{
  "contractName": "Crowdsale",
  "abi": [
    {
      "inputs": [
        {
          "internalType": "string",
          "name": "symbol",
          "type": "string"
        },
        {
          "internalType": "string",
          "name": "name",
          "type": "string"
        },
        {
          "internalType": "uint8",
          "name": "decimals",
          "type": "uint8"
        },
        {
          "internalType": "uint256",
          "name": "totalSupply",
          "type": "uint256"
        },
        {
          "internalType": "uint256",
          "name": "rate",
          "type": "uint256"
        },
        {
          "internalType": "address payable",
          "name": "wallet",
          "type": "address"
        }
      ],
      "stateMutability": "nonpayable",
      "type": "constructor"
    },
    {
      "anonymous": false,
      "inputs": [
        {
          "indexed": true,
          "internalType": "address",
          "name": "_token",
          "type": "address"
        },
        {
          "indexed": true,
          "internalType": "address",
          "name": "_controller",
          "type": "address"
        },
        {
          "indexed": false,
          "internalType": "uint256",
          "name": "_amount",
          "type": "uint256"
        }
      ],
      "name": "ClaimedTokens",
      "type": "event"
    },
    {
      "anonymous": false,
      "inputs": [
        {
          "indexed": true,
          "internalType": "address",
          "name": "previousOwner",
          "type": "address"
        },
        {
          "indexed": true,
          "internalType": "address",
          "name": "newOwner",
          "type": "address"
        }
      ],
      "name": "OwnershipTransferred",
      "type": "event"
    },
    {
      "anonymous": false,
      "inputs": [
        {
          "indexed": true,
          "internalType": "address",
          "name": "purchaser",
          "type": "address"
        },
        {
          "indexed": true,
          "internalType": "address",
          "name": "beneficiary",
          "type": "address"
        },
        {
          "indexed": false,
          "internalType": "uint256",
          "name": "value",
          "type": "uint256"
        },
        {
          "indexed": false,
          "internalType": "uint256",
          "name": "amount",
          "type": "uint256"
        }
      ],
      "name": "TokensPurchased",
      "type": "event"
    },
    {
      "inputs": [
        {
          "internalType": "uint256",
          "name": "value",
          "type": "uint256"
        }
      ],
      "name": "_setCap",
      "outputs": [
        {
          "internalType": "uint256",
          "name": "",
          "type": "uint256"
        }
      ],
      "stateMutability": "nonpayable",
      "type": "function"
    },
    {
      "inputs": [
        {
          "internalType": "uint256",
          "name": "value",
          "type": "uint256"
        }
      ],
      "name": "_setMIN",
      "outputs": [
        {
          "internalType": "uint256",
          "name": "",
          "type": "uint256"
        }
      ],
      "stateMutability": "nonpayable",
      "type": "function"
    },
    {
      "inputs": [],
      "name": "_weiRaised",
      "outputs": [
        {
          "internalType": "uint256",
          "name": "",
          "type": "uint256"
        }
      ],
      "stateMutability": "view",
      "type": "function"
    },
    {
      "inputs": [],
      "name": "isOwner",
      "outputs": [
        {
          "internalType": "bool",
          "name": "",
          "type": "bool"
        }
      ],
      "stateMutability": "view",
      "type": "function"
    },
    {
      "inputs": [],
      "name": "owner",
      "outputs": [
        {
          "internalType": "address",
          "name": "",
          "type": "address"
        }
      ],
      "stateMutability": "view",
      "type": "function"
    },
    {
      "inputs": [],
      "name": "renounceOwnership",
      "outputs": [],
      "stateMutability": "nonpayable",
      "type": "function"
    },
    {
      "inputs": [
        {
          "internalType": "address",
          "name": "newOwner",
          "type": "address"
        }
      ],
      "name": "transferOwnership",
      "outputs": [],
      "stateMutability": "nonpayable",
      "type": "function"
    },
    {
      "stateMutability": "payable",
      "type": "receive"
    },
    {
      "inputs": [],
      "name": "totalSupply",
      "outputs": [
        {
          "internalType": "uint256",
          "name": "",
          "type": "uint256"
        }
      ],
      "stateMutability": "view",
      "type": "function"
    },
    {
      "inputs": [
        {
          "internalType": "address",
          "name": "account",
          "type": "address"
        }
      ],
      "name": "balanceOf",
      "outputs": [
        {
          "internalType": "uint256",
          "name": "",
          "type": "uint256"
        }
      ],
      "stateMutability": "view",
      "type": "function"
    },
    {
      "inputs": [
        {
          "internalType": "address",
          "name": "owner",
          "type": "address"
        },
        {
          "internalType": "address",
          "name": "spender",
          "type": "address"
        }
      ],
      "name": "allowance",
      "outputs": [
        {
          "internalType": "uint256",
          "name": "",
          "type": "uint256"
        }
      ],
      "stateMutability": "view",
      "type": "function"
    },
    {
      "inputs": [
        {
          "internalType": "address",
          "name": "spender",
          "type": "address"
        },
        {
          "internalType": "uint256",
          "name": "value",
          "type": "uint256"
        }
      ],
      "name": "approve",
      "outputs": [
        {
          "internalType": "bool",
          "name": "",
          "type": "bool"
        }
      ],
      "stateMutability": "nonpayable",
      "type": "function"
    },
    {
      "inputs": [
        {
          "internalType": "address",
          "name": "spender",
          "type": "address"
        },
        {
          "internalType": "uint256",
          "name": "addedValue",
          "type": "uint256"
        }
      ],
      "name": "increaseAllowance",
      "outputs": [
        {
          "internalType": "bool",
          "name": "",
          "type": "bool"
        }
      ],
      "stateMutability": "nonpayable",
      "type": "function"
    },
    {
      "inputs": [
        {
          "internalType": "address",
          "name": "spender",
          "type": "address"
        },
        {
          "internalType": "uint256",
          "name": "subtractedValue",
          "type": "uint256"
        }
      ],
      "name": "decreaseAllowance",
      "outputs": [
        {
          "internalType": "bool",
          "name": "",
          "type": "bool"
        }
      ],
      "stateMutability": "nonpayable",
      "type": "function"
    },
    {
      "inputs": [],
      "name": "token",
      "outputs": [
        {
          "internalType": "contract SimpleToken_IERC20",
          "name": "",
          "type": "address"
        }
      ],
      "stateMutability": "view",
      "type": "function"
    },
    {
      "inputs": [],
      "name": "wallet",
      "outputs": [
        {
          "internalType": "address payable",
          "name": "",
          "type": "address"
        }
      ],
      "stateMutability": "view",
      "type": "function"
    },
    {
      "inputs": [],
      "name": "rate",
      "outputs": [
        {
          "internalType": "uint256",
          "name": "",
          "type": "uint256"
        }
      ],
      "stateMutability": "view",
      "type": "function"
    },
    {
      "inputs": [],
      "name": "weiRaised",
      "outputs": [
        {
          "internalType": "uint256",
          "name": "",
          "type": "uint256"
        }
      ],
      "stateMutability": "view",
      "type": "function"
    },
    {
      "inputs": [
        {
          "internalType": "address",
          "name": "beneficiary",
          "type": "address"
        }
      ],
      "name": "buyTokens",
      "outputs": [],
      "stateMutability": "payable",
      "type": "function"
    },
    {
      "inputs": [
        {
          "internalType": "address",
          "name": "__token",
          "type": "address"
        }
      ],
      "name": "claimTokens",
      "outputs": [],
      "stateMutability": "nonpayable",
      "type": "function"
    }
  ],
  "bytecode": "0x60806040523480156200001157600080fd5b5060405162003aba38038062003aba833981810160405260c08110156200003757600080fd5b81019080805160405193929190846401000000008211156200005857600080fd5b838201915060208201858111156200006f57600080fd5b82518660018202830111640100000000821117156200008d57600080fd5b8083526020830192505050908051906020019080838360005b83811015620000c3578082015181840152602081019050620000a6565b50505050905090810190601f168015620000f15780820380516001836020036101000a031916815260200191505b50604052602001805160405193929190846401000000008211156200011557600080fd5b838201915060208201858111156200012c57600080fd5b82518660018202830111640100000000821117156200014a57600080fd5b8083526020830192505050908051906020019080838360005b838110156200018057808201518184015260208101905062000163565b50505050905090810190601f168015620001ae5780820380516001836020036101000a031916815260200191505b50604052602001805190602001909291908051906020019092919080519060200190929190805190602001909291905050506000620001f26200046160201b60201c565b9050806000806101000a81548173ffffffffffffffffffffffffffffffffffffffff021916908373ffffffffffffffffffffffffffffffffffffffff1602179055508073ffffffffffffffffffffffffffffffffffffffff16600073ffffffffffffffffffffffffffffffffffffffff167f8be0079c531659141344cd1fd0a4f28419497f9722a3daafe3b4186f6b6457e060405160405180910390a3506001600360006101000a81548160ff02191690831515021790555085858585604051620002bd9062000469565b8080602001806020018560ff168152602001848152602001838103835287818151815260200191508051906020019080838360005b838110156200030f578082015181840152602081019050620002f2565b50505050905090810190601f1680156200033d5780820380516001836020036101000a031916815260200191505b50838103825286818151815260200191508051906020019080838360005b83811015620003785780820151818401526020810190506200035b565b50505050905090810190601f168015620003a65780820380516001836020036101000a031916815260200191505b509650505050505050604051809103906000f080158015620003cc573d6000803e3d6000fd5b50600360016101000a81548173ffffffffffffffffffffffffffffffffffffffff021916908373ffffffffffffffffffffffffffffffffffffffff1602179055508160058190555080600460006101000a81548173ffffffffffffffffffffffffffffffffffffffff021916908373ffffffffffffffffffffffffffffffffffffffff16021790555050505050505062000477565b600033905090565b6117a9806200231183390190565b611e8a80620004876000396000f3fe6080604052600436106101185760003560e01c80638f32d59b116100a0578063ec8ac4d811610064578063ec8ac4d814610534578063f08e67a514610578578063f2fde38b146105c7578063fc0c546a14610618578063fe9e392e146106595761012f565b80638f32d59b1461039557806394a5aa8d146103c2578063a457c2d7146103ed578063dd62ed3e1461045e578063df8de3e7146104e35761012f565b80634042b66f116100e75780634042b66f1461026c578063521eb2731461029757806370a08231146102d8578063715018a61461033d5780638da5cb5b146103545761012f565b8063095ea7b31461013457806318160ddd146101a55780632c4e722e146101d057806339509351146101fb5761012f565b3661012f5761012d6101286106a8565b6106b0565b005b600080fd5b34801561014057600080fd5b5061018d6004803603604081101561015757600080fd5b81019080803573ffffffffffffffffffffffffffffffffffffffff1690602001909291908035906020019092919050505061095e565b60405180821515815260200191505060405180910390f35b3480156101b157600080fd5b506101ba610a36565b6040518082815260200191505060405180910390f35b3480156101dc57600080fd5b506101e5610ae0565b6040518082815260200191505060405180910390f35b34801561020757600080fd5b506102546004803603604081101561021e57600080fd5b81019080803573ffffffffffffffffffffffffffffffffffffffff16906020019092919080359060200190929190505050610aea565b60405180821515815260200191505060405180910390f35b34801561027857600080fd5b50610281610bc2565b6040518082815260200191505060405180910390f35b3480156102a357600080fd5b506102ac610bcc565b604051808273ffffffffffffffffffffffffffffffffffffffff16815260200191505060405180910390f35b3480156102e457600080fd5b50610327600480360360208110156102fb57600080fd5b81019080803573ffffffffffffffffffffffffffffffffffffffff169060200190929190505050610bf6565b6040518082815260200191505060405180910390f35b34801561034957600080fd5b50610352610cc3565b005b34801561036057600080fd5b50610369610dfb565b604051808273ffffffffffffffffffffffffffffffffffffffff16815260200191505060405180910390f35b3480156103a157600080fd5b506103aa610e24565b60405180821515815260200191505060405180910390f35b3480156103ce57600080fd5b506103d7610e82565b6040518082815260200191505060405180910390f35b3480156103f957600080fd5b506104466004803603604081101561041057600080fd5b81019080803573ffffffffffffffffffffffffffffffffffffffff16906020019092919080359060200190929190505050610e88565b60405180821515815260200191505060405180910390f35b34801561046a57600080fd5b506104cd6004803603604081101561048157600080fd5b81019080803573ffffffffffffffffffffffffffffffffffffffff169060200190929190803573ffffffffffffffffffffffffffffffffffffffff169060200190929190505050610f60565b6040518082815260200191505060405180910390f35b3480156104ef57600080fd5b506105326004803603602081101561050657600080fd5b81019080803573ffffffffffffffffffffffffffffffffffffffff16906020019092919050505061104c565b005b6105766004803603602081101561054a57600080fd5b81019080803573ffffffffffffffffffffffffffffffffffffffff1690602001909291905050506106b0565b005b34801561058457600080fd5b506105b16004803603602081101561059b57600080fd5b810190808035906020019092919050505061133a565b6040518082815260200191505060405180910390f35b3480156105d357600080fd5b50610616600480360360208110156105ea57600080fd5b81019080803573ffffffffffffffffffffffffffffffffffffffff169060200190929190505050611487565b005b34801561062457600080fd5b5061062d61150d565b604051808273ffffffffffffffffffffffffffffffffffffffff16815260200191505060405180910390f35b34801561066557600080fd5b506106926004803603602081101561067c57600080fd5b8101908080359060200190929190505050611537565b6040518082815260200191505060405180910390f35b600033905090565b600360009054906101000a900460ff16610732576040517f08c379a000000000000000000000000000000000000000000000000000000000815260040180806020018281038252601f8152602001807f5265656e7472616e637947756172643a207265656e7472616e742063616c6c0081525060200191505060405180910390fd5b6000600360006101000a81548160ff021916908315150217905550610755611683565b6107c7576040517f08c379a00000000000000000000000000000000000000000000000000000000081526004018080602001828103825260158152602001807f4361707065643a20756e636f72726563742073756d000000000000000000000081525060200191505060405180910390fd5b60003490506107d682826116fa565b60006107e1826117fb565b90506107f88260065461181990919063ffffffff16565b60068190555061080883826118a1565b61081283836118af565b8273ffffffffffffffffffffffffffffffffffffffff166108316106a8565b73ffffffffffffffffffffffffffffffffffffffff167f6faf93231a456e552dbc9961f58d9713ee4f2e69d15f1975b050ef0911053a7b8484604051808381526020018281526020019250505060405180910390a361088e610dfb565b73ffffffffffffffffffffffffffffffffffffffff168373ffffffffffffffffffffffffffffffffffffffff16141561092c5760086108cb6106a8565b9080600181540180825580915050600190039060005260206000200160009091909190916101000a81548173ffffffffffffffffffffffffffffffffffffffff021916908373ffffffffffffffffffffffffffffffffffffffff1602179055505b6109346118b3565b61093e838361191e565b50506001600360006101000a81548160ff02191690831515021790555050565b6000600360019054906101000a900473ffffffffffffffffffffffffffffffffffffffff1673ffffffffffffffffffffffffffffffffffffffff1663095ea7b384846040518363ffffffff1660e01b8152600401808373ffffffffffffffffffffffffffffffffffffffff16815260200182815260200192505050602060405180830381600087803b1580156109f357600080fd5b505af1158015610a07573d6000803e3d6000fd5b505050506040513d6020811015610a1d57600080fd5b8101908080519060200190929190505050905092915050565b6000600360019054906101000a900473ffffffffffffffffffffffffffffffffffffffff1673ffffffffffffffffffffffffffffffffffffffff166318160ddd6040518163ffffffff1660e01b815260040160206040518083038186803b158015610aa057600080fd5b505afa158015610ab4573d6000803e3d6000fd5b505050506040513d6020811015610aca57600080fd5b8101908080519060200190929190505050905090565b6000600554905090565b6000600360019054906101000a900473ffffffffffffffffffffffffffffffffffffffff1673ffffffffffffffffffffffffffffffffffffffff16633950935184846040518363ffffffff1660e01b8152600401808373ffffffffffffffffffffffffffffffffffffffff16815260200182815260200192505050602060405180830381600087803b158015610b7f57600080fd5b505af1158015610b93573d6000803e3d6000fd5b505050506040513d6020811015610ba957600080fd5b8101908080519060200190929190505050905092915050565b6000600654905090565b6000600460009054906101000a900473ffffffffffffffffffffffffffffffffffffffff16905090565b6000600360019054906101000a900473ffffffffffffffffffffffffffffffffffffffff1673ffffffffffffffffffffffffffffffffffffffff166370a08231836040518263ffffffff1660e01b8152600401808273ffffffffffffffffffffffffffffffffffffffff16815260200191505060206040518083038186803b158015610c8157600080fd5b505afa158015610c95573d6000803e3d6000fd5b505050506040513d6020811015610cab57600080fd5b81019080805190602001909291905050509050919050565b610ccb610e24565b610d3d576040517f08c379a00000000000000000000000000000000000000000000000000000000081526004018080602001828103825260208152602001807f4f776e61626c653a2063616c6c6572206973206e6f7420746865206f776e657281525060200191505060405180910390fd5b600073ffffffffffffffffffffffffffffffffffffffff1660008054906101000a900473ffffffffffffffffffffffffffffffffffffffff1673ffffffffffffffffffffffffffffffffffffffff167f8be0079c531659141344cd1fd0a4f28419497f9722a3daafe3b4186f6b6457e060405160405180910390a360008060006101000a81548173ffffffffffffffffffffffffffffffffffffffff021916908373ffffffffffffffffffffffffffffffffffffffff160217905550565b60008060009054906101000a900473ffffffffffffffffffffffffffffffffffffffff16905090565b60008060009054906101000a900473ffffffffffffffffffffffffffffffffffffffff1673ffffffffffffffffffffffffffffffffffffffff16610e666106a8565b73ffffffffffffffffffffffffffffffffffffffff1614905090565b60065481565b6000600360019054906101000a900473ffffffffffffffffffffffffffffffffffffffff1673ffffffffffffffffffffffffffffffffffffffff1663a457c2d784846040518363ffffffff1660e01b8152600401808373ffffffffffffffffffffffffffffffffffffffff16815260200182815260200192505050602060405180830381600087803b158015610f1d57600080fd5b505af1158015610f31573d6000803e3d6000fd5b505050506040513d6020811015610f4757600080fd5b8101908080519060200190929190505050905092915050565b6000600360019054906101000a900473ffffffffffffffffffffffffffffffffffffffff1673ffffffffffffffffffffffffffffffffffffffff1663dd62ed3e84846040518363ffffffff1660e01b8152600401808373ffffffffffffffffffffffffffffffffffffffff1681526020018273ffffffffffffffffffffffffffffffffffffffff1681526020019250505060206040518083038186803b15801561100957600080fd5b505afa15801561101d573d6000803e3d6000fd5b505050506040513d602081101561103357600080fd5b8101908080519060200190929190505050905092915050565b611054610e24565b6110c6576040517f08c379a00000000000000000000000000000000000000000000000000000000081526004018080602001828103825260208152602001807f4f776e61626c653a2063616c6c6572206973206e6f7420746865206f776e657281525060200191505060405180910390fd5b600073ffffffffffffffffffffffffffffffffffffffff168173ffffffffffffffffffffffffffffffffffffffff16141561116957600460009054906101000a900473ffffffffffffffffffffffffffffffffffffffff1673ffffffffffffffffffffffffffffffffffffffff166108fc479081150290604051600060405180830381858888f19350505050158015611163573d6000803e3d6000fd5b50611337565b600081905060008173ffffffffffffffffffffffffffffffffffffffff166370a08231306040518263ffffffff1660e01b8152600401808273ffffffffffffffffffffffffffffffffffffffff16815260200191505060206040518083038186803b1580156111d757600080fd5b505afa1580156111eb573d6000803e3d6000fd5b505050506040513d602081101561120157600080fd5b810190808051906020019092919050505090508173ffffffffffffffffffffffffffffffffffffffff1663a9059cbb611238610dfb565b836040518363ffffffff1660e01b8152600401808373ffffffffffffffffffffffffffffffffffffffff16815260200182815260200192505050602060405180830381600087803b15801561128c57600080fd5b505af11580156112a0573d6000803e3d6000fd5b505050506040513d60208110156112b657600080fd5b8101908080519060200190929190505050506112d0610dfb565b73ffffffffffffffffffffffffffffffffffffffff168373ffffffffffffffffffffffffffffffffffffffff167ff931edb47c50b4b4104c187b5814a9aef5f709e17e2ecf9617e860cacade929c836040518082815260200191505060405180910390a350505b50565b6000611344610e24565b6113b6576040517f08c379a00000000000000000000000000000000000000000000000000000000081526004018080602001828103825260208152602001807f4f776e61626c653a2063616c6c6572206973206e6f7420746865206f776e657281525060200191505060405180910390fd5b6000821015611410576040517f08c379a000000000000000000000000000000000000000000000000000000000815260040180806020018281038252602f815260200180611da4602f913960400191505060405180910390fd5b60006002541461147657600254821115611475576040517f08c379a0000000000000000000000000000000000000000000000000000000008152600401808060200182810382526037815260200180611df46037913960400191505060405180910390fd5b5b816001819055506001549050919050565b61148f610e24565b611501576040517f08c379a00000000000000000000000000000000000000000000000000000000081526004018080602001828103825260208152602001807f4f776e61626c653a2063616c6c6572206973206e6f7420746865206f776e657281525060200191505060405180910390fd5b61150a81611a1a565b50565b6000600360019054906101000a900473ffffffffffffffffffffffffffffffffffffffff16905090565b6000611541610e24565b6115b3576040517f08c379a00000000000000000000000000000000000000000000000000000000081526004018080602001828103825260208152602001807f4f776e61626c653a2063616c6c6572206973206e6f7420746865206f776e657281525060200191505060405180910390fd5b6000821161160c576040517f08c379a000000000000000000000000000000000000000000000000000000000815260040180806020018281038252603e815260200180611d40603e913960400191505060405180910390fd5b60006001541461167257600154821015611671576040517f08c379a0000000000000000000000000000000000000000000000000000000008152600401808060200182810382526037815260200180611df46037913960400191505060405180910390fd5b5b816002819055506002549050919050565b6000806001541415801561169a5750600060025414155b80156116a857506001543410155b80156116c9575060006116c634600254611b5d90919063ffffffff16565b10155b156116f2576116e334600254611b5d90919063ffffffff16565b600281905550600190506116f7565b600090505b90565b600073ffffffffffffffffffffffffffffffffffffffff168273ffffffffffffffffffffffffffffffffffffffff161415611780576040517f08c379a000000000000000000000000000000000000000000000000000000000815260040180806020018281038252602a815260200180611e2b602a913960400191505060405180910390fd5b60008114156117f7576040517f08c379a00000000000000000000000000000000000000000000000000000000081526004018080602001828103825260198152602001807f43726f776473616c653a20776569416d6f756e7420697320300000000000000081525060200191505060405180910390fd5b5050565b600061181260055483611be690919063ffffffff16565b9050919050565b600080828401905083811015611897576040517f08c379a000000000000000000000000000000000000000000000000000000000815260040180806020018281038252601b8152602001807f536166654d6174683a206164646974696f6e206f766572666c6f77000000000081525060200191505060405180910390fd5b8091505092915050565b6118ab8282611c6c565b5050565b5050565b600460009054906101000a900473ffffffffffffffffffffffffffffffffffffffff1673ffffffffffffffffffffffffffffffffffffffff166108fc349081150290604051600060405180830381858888f1935050505015801561191b573d6000803e3d6000fd5b50565b61197081600760008573ffffffffffffffffffffffffffffffffffffffff1673ffffffffffffffffffffffffffffffffffffffff1681526020019081526020016000205461181990919063ffffffff16565b600760008473ffffffffffffffffffffffffffffffffffffffff1673ffffffffffffffffffffffffffffffffffffffff168152602001908152602001600020819055506008829080600181540180825580915050600190039060005260206000200160009091909190916101000a81548173ffffffffffffffffffffffffffffffffffffffff021916908373ffffffffffffffffffffffffffffffffffffffff1602179055505050565b600073ffffffffffffffffffffffffffffffffffffffff168173ffffffffffffffffffffffffffffffffffffffff161415611aa0576040517f08c379a0000000000000000000000000000000000000000000000000000000008152600401808060200182810382526026815260200180611d7e6026913960400191505060405180910390fd5b8073ffffffffffffffffffffffffffffffffffffffff1660008054906101000a900473ffffffffffffffffffffffffffffffffffffffff1673ffffffffffffffffffffffffffffffffffffffff167f8be0079c531659141344cd1fd0a4f28419497f9722a3daafe3b4186f6b6457e060405160405180910390a3806000806101000a81548173ffffffffffffffffffffffffffffffffffffffff021916908373ffffffffffffffffffffffffffffffffffffffff16021790555050565b600082821115611bd5576040517f08c379a000000000000000000000000000000000000000000000000000000000815260040180806020018281038252601e8152602001807f536166654d6174683a207375627472616374696f6e206f766572666c6f77000081525060200191505060405180910390fd5b600082840390508091505092915050565b600080831415611bf95760009050611c66565b6000828402905082848281611c0a57fe5b0414611c61576040517f08c379a0000000000000000000000000000000000000000000000000000000008152600401808060200182810382526021815260200180611dd36021913960400191505060405180910390fd5b809150505b92915050565b600360019054906101000a900473ffffffffffffffffffffffffffffffffffffffff1673ffffffffffffffffffffffffffffffffffffffff1663a9059cbb83836040518363ffffffff1660e01b8152600401808373ffffffffffffffffffffffffffffffffffffffff16815260200182815260200192505050602060405180830381600087803b158015611cff57600080fd5b505af1158015611d13573d6000803e3d6000fd5b505050506040513d6020811015611d2957600080fd5b810190808051906020019092919050505050505056fe4361707065645f6d696e3a206d61782073756d2063616e6e6f7420626520736d616c6c6572207468616e204e554c4c206f7220657175616c20746f2069744f776e61626c653a206e6577206f776e657220697320746865207a65726f20616464726573734361707065645f6d696e3a207468652073756d2063616e6e6f7420626520736d616c6c6572207468616e204e554c4c536166654d6174683a206d756c7469706c69636174696f6e206f766572666c6f774361707065645f6d696e3a206d61782073756d206861766520746f2062652067726561746572207468616e206d696e207061796d656e7443726f776473616c653a2062656e656669636961727920697320746865207a65726f2061646472657373a26469706673582212203ba4eb6d04604466a63a88916b62f490b09fe45a32703a6d05816f32effe003764736f6c634300060c003360806040523480156200001157600080fd5b50604051620017a9380380620017a9833981810160405260808110156200003757600080fd5b81019080805160405193929190846401000000008211156200005857600080fd5b838201915060208201858111156200006f57600080fd5b82518660018202830111640100000000821117156200008d57600080fd5b8083526020830192505050908051906020019080838360005b83811015620000c3578082015181840152602081019050620000a6565b50505050905090810190601f168015620000f15780820380516001836020036101000a031916815260200191505b50604052602001805160405193929190846401000000008211156200011557600080fd5b838201915060208201858111156200012c57600080fd5b82518660018202830111640100000000821117156200014a57600080fd5b8083526020830192505050908051906020019080838360005b838110156200018057808201518184015260208101905062000163565b50505050905090810190601f168015620001ae5780820380516001836020036101000a031916815260200191505b506040526020018051906020019092919080519060200190929190505050620001ed620001e06200024460201b60201c565b826200024c60201b60201c565b836001908051906020019062000205929190620004ba565b5082600090805190602001906200021e929190620004ba565b5081600260006101000a81548160ff021916908360ff1602179055505050505062000560565b600033905090565b600073ffffffffffffffffffffffffffffffffffffffff168273ffffffffffffffffffffffffffffffffffffffff161415620002f0576040517f08c379a000000000000000000000000000000000000000000000000000000000815260040180806020018281038252601f8152602001807f45524332303a206d696e7420746f20746865207a65726f20616464726573730081525060200191505060405180910390fd5b62000304600083836200042c60201b60201c565b62000320816003546200043160201b62000bc51790919060201c565b6003819055506200037f81600460008573ffffffffffffffffffffffffffffffffffffffff1673ffffffffffffffffffffffffffffffffffffffff168152602001908152602001600020546200043160201b62000bc51790919060201c565b600460008473ffffffffffffffffffffffffffffffffffffffff1673ffffffffffffffffffffffffffffffffffffffff168152602001908152602001600020819055508173ffffffffffffffffffffffffffffffffffffffff16600073ffffffffffffffffffffffffffffffffffffffff167fddf252ad1be2c89b69c2b068fc378daa952ba7f163c4a11628f55a4df523b3ef836040518082815260200191505060405180910390a35050565b505050565b600080828401905083811015620004b0576040517f08c379a000000000000000000000000000000000000000000000000000000000815260040180806020018281038252601b8152602001807f536166654d6174683a206164646974696f6e206f766572666c6f77000000000081525060200191505060405180910390fd5b8091505092915050565b828054600181600116156101000203166002900490600052602060002090601f016020900481019282601f10620004fd57805160ff19168380011785556200052e565b828001600101855582156200052e579182015b828111156200052d57825182559160200191906001019062000510565b5b5090506200053d919062000541565b5090565b5b808211156200055c57600081600090555060010162000542565b5090565b61123980620005706000396000f3fe608060405234801561001057600080fd5b50600436106100b45760003560e01c80633eaaf86b116100715780633eaaf86b146102c757806370a08231146102e557806395d89b411461033d578063a457c2d7146103c0578063a9059cbb14610424578063dd62ed3e14610488576100b4565b806306fdde03146100b9578063095ea7b31461013c57806318160ddd146101a057806323b872dd146101be578063313ce567146102425780633950935114610263575b600080fd5b6100c1610500565b6040518080602001828103825283818151815260200191508051906020019080838360005b838110156101015780820151818401526020810190506100e6565b50505050905090810190601f16801561012e5780820380516001836020036101000a031916815260200191505b509250505060405180910390f35b6101886004803603604081101561015257600080fd5b81019080803573ffffffffffffffffffffffffffffffffffffffff1690602001909291908035906020019092919050505061059e565b60405180821515815260200191505060405180910390f35b6101a86105bc565b6040518082815260200191505060405180910390f35b61022a600480360360608110156101d457600080fd5b81019080803573ffffffffffffffffffffffffffffffffffffffff169060200190929190803573ffffffffffffffffffffffffffffffffffffffff16906020019092919080359060200190929190505050610617565b60405180821515815260200191505060405180910390f35b61024a6107c8565b604051808260ff16815260200191505060405180910390f35b6102af6004803603604081101561027957600080fd5b81019080803573ffffffffffffffffffffffffffffffffffffffff169060200190929190803590602001909291905050506107db565b60405180821515815260200191505060405180910390f35b6102cf610887565b6040518082815260200191505060405180910390f35b610327600480360360208110156102fb57600080fd5b81019080803573ffffffffffffffffffffffffffffffffffffffff16906020019092919050505061088d565b6040518082815260200191505060405180910390f35b6103456108d6565b6040518080602001828103825283818151815260200191508051906020019080838360005b8381101561038557808201518184015260208101905061036a565b50505050905090810190601f1680156103b25780820380516001836020036101000a031916815260200191505b509250505060405180910390f35b61040c600480360360408110156103d657600080fd5b81019080803573ffffffffffffffffffffffffffffffffffffffff16906020019092919080359060200190929190505050610974565b60405180821515815260200191505060405180910390f35b6104706004803603604081101561043a57600080fd5b81019080803573ffffffffffffffffffffffffffffffffffffffff16906020019092919080359060200190929190505050610b20565b60405180821515815260200191505060405180910390f35b6104ea6004803603604081101561049e57600080fd5b81019080803573ffffffffffffffffffffffffffffffffffffffff169060200190929190803573ffffffffffffffffffffffffffffffffffffffff169060200190929190505050610b3e565b6040518082815260200191505060405180910390f35b60008054600181600116156101000203166002900480601f0160208091040260200160405190810160405280929190818152602001828054600181600116156101000203166002900480156105965780601f1061056b57610100808354040283529160200191610596565b820191906000526020600020905b81548152906001019060200180831161057957829003601f168201915b505050505081565b60006105b26105ab610c4d565b8484610c55565b6001905092915050565b6000610612600460008073ffffffffffffffffffffffffffffffffffffffff1673ffffffffffffffffffffffffffffffffffffffff16815260200190815260200160002054600354610e4c90919063ffffffff16565b905090565b600081600560008673ffffffffffffffffffffffffffffffffffffffff1673ffffffffffffffffffffffffffffffffffffffff16815260200190815260200160002060003373ffffffffffffffffffffffffffffffffffffffff1673ffffffffffffffffffffffffffffffffffffffff16815260200190815260200160002054101561070b576040517f08c379a00000000000000000000000000000000000000000000000000000000081526004018080602001828103825260158152602001807f646f6e6074206861766520616c6c6f77616e636573000000000000000000000081525060200191505060405180910390fd5b610716848484610ed5565b6107bd84610722610c4d565b6107b885600560008a73ffffffffffffffffffffffffffffffffffffffff1673ffffffffffffffffffffffffffffffffffffffff168152602001908152602001600020600061076f610c4d565b73ffffffffffffffffffffffffffffffffffffffff1673ffffffffffffffffffffffffffffffffffffffff16815260200190815260200160002054610e4c90919063ffffffff16565b610c55565b600190509392505050565b600260009054906101000a900460ff1681565b600061087d338461087885600560006107f2610c4d565b73ffffffffffffffffffffffffffffffffffffffff1673ffffffffffffffffffffffffffffffffffffffff16815260200190815260200160002060008973ffffffffffffffffffffffffffffffffffffffff1673ffffffffffffffffffffffffffffffffffffffff16815260200190815260200160002054610bc590919063ffffffff16565b610c55565b6001905092915050565b60035481565b6000600460008373ffffffffffffffffffffffffffffffffffffffff1673ffffffffffffffffffffffffffffffffffffffff168152602001908152602001600020549050919050565b60018054600181600116156101000203166002900480601f01602080910402602001604051908101604052809291908181526020018280546001816001161561010002031660029004801561096c5780601f106109415761010080835404028352916020019161096c565b820191906000526020600020905b81548152906001019060200180831161094f57829003601f168201915b505050505081565b60008160056000610983610c4d565b73ffffffffffffffffffffffffffffffffffffffff1673ffffffffffffffffffffffffffffffffffffffff16815260200190815260200160002060008573ffffffffffffffffffffffffffffffffffffffff1673ffffffffffffffffffffffffffffffffffffffff168152602001908152602001600020541015610a6f576040517f08c379a00000000000000000000000000000000000000000000000000000000081526004018080602001828103825260148152602001807f646f6e6074206861766520616c6c6f77616e636500000000000000000000000081525060200191505060405180910390fd5b610b16610a7a610c4d565b84610b118560056000610a8b610c4d565b73ffffffffffffffffffffffffffffffffffffffff1673ffffffffffffffffffffffffffffffffffffffff16815260200190815260200160002060008973ffffffffffffffffffffffffffffffffffffffff1673ffffffffffffffffffffffffffffffffffffffff16815260200190815260200160002054610e4c90919063ffffffff16565b610c55565b6001905092915050565b6000610b34610b2d610c4d565b8484610ed5565b6001905092915050565b6000600560008473ffffffffffffffffffffffffffffffffffffffff1673ffffffffffffffffffffffffffffffffffffffff16815260200190815260200160002060008373ffffffffffffffffffffffffffffffffffffffff1673ffffffffffffffffffffffffffffffffffffffff16815260200190815260200160002054905092915050565b600080828401905083811015610c43576040517f08c379a000000000000000000000000000000000000000000000000000000000815260040180806020018281038252601b8152602001807f536166654d6174683a206164646974696f6e206f766572666c6f77000000000081525060200191505060405180910390fd5b8091505092915050565b600033905090565b600073ffffffffffffffffffffffffffffffffffffffff168373ffffffffffffffffffffffffffffffffffffffff161415610cdb576040517f08c379a00000000000000000000000000000000000000000000000000000000081526004018080602001828103825260248152602001806111e06024913960400191505060405180910390fd5b600073ffffffffffffffffffffffffffffffffffffffff168273ffffffffffffffffffffffffffffffffffffffff161415610d61576040517f08c379a00000000000000000000000000000000000000000000000000000000081526004018080602001828103825260228152602001806111996022913960400191505060405180910390fd5b80600560008573ffffffffffffffffffffffffffffffffffffffff1673ffffffffffffffffffffffffffffffffffffffff16815260200190815260200160002060008473ffffffffffffffffffffffffffffffffffffffff1673ffffffffffffffffffffffffffffffffffffffff168152602001908152602001600020819055508173ffffffffffffffffffffffffffffffffffffffff168373ffffffffffffffffffffffffffffffffffffffff167f8c5be1e5ebec7d5bd14f71427d1e84f3dd0314c0f7b2291e5b200ac8c7c3b925836040518082815260200191505060405180910390a3505050565b600082821115610ec4576040517f08c379a000000000000000000000000000000000000000000000000000000000815260040180806020018281038252601e8152602001807f536166654d6174683a207375627472616374696f6e206f766572666c6f77000081525060200191505060405180910390fd5b600082840390508091505092915050565b600073ffffffffffffffffffffffffffffffffffffffff168373ffffffffffffffffffffffffffffffffffffffff161415610f5b576040517f08c379a00000000000000000000000000000000000000000000000000000000081526004018080602001828103825260258152602001806111bb6025913960400191505060405180910390fd5b600073ffffffffffffffffffffffffffffffffffffffff168273ffffffffffffffffffffffffffffffffffffffff161415610fe1576040517f08c379a00000000000000000000000000000000000000000000000000000000081526004018080602001828103825260238152602001806111766023913960400191505060405180910390fd5b61103381600460008673ffffffffffffffffffffffffffffffffffffffff1673ffffffffffffffffffffffffffffffffffffffff16815260200190815260200160002054610e4c90919063ffffffff16565b600460008573ffffffffffffffffffffffffffffffffffffffff1673ffffffffffffffffffffffffffffffffffffffff168152602001908152602001600020819055506110c881600460008573ffffffffffffffffffffffffffffffffffffffff1673ffffffffffffffffffffffffffffffffffffffff16815260200190815260200160002054610bc590919063ffffffff16565b600460008473ffffffffffffffffffffffffffffffffffffffff1673ffffffffffffffffffffffffffffffffffffffff168152602001908152602001600020819055508173ffffffffffffffffffffffffffffffffffffffff168373ffffffffffffffffffffffffffffffffffffffff167fddf252ad1be2c89b69c2b068fc378daa952ba7f163c4a11628f55a4df523b3ef836040518082815260200191505060405180910390a350505056fe45524332303a207472616e7366657220746f20746865207a65726f206164647265737345524332303a20617070726f766520746f20746865207a65726f206164647265737345524332303a207472616e736665722066726f6d20746865207a65726f206164647265737345524332303a20617070726f76652066726f6d20746865207a65726f2061646472657373a26469706673582212200d2322e29cb7016b09f63c62add9df6526abb68470b2c44d527756c04d3ece6c64736f6c634300060c0033",
  "source": "pragma solidity >= 0.6.0 <=0.7.0; \r\n\r\n\r\nlibrary SafeMath {\r\n\r\n    function add(uint256 a, uint256 b) internal pure returns (uint256) {\r\n        uint256 c = a + b;\r\n        require(c >= a, \"SafeMath: addition overflow\");\r\n\r\n        return c;\r\n    }\r\n\r\n\r\n    function sub(uint256 a, uint256 b) internal pure returns (uint256) {\r\n        require(b <= a, \"SafeMath: subtraction overflow\");\r\n        uint256 c = a - b;\r\n\r\n        return c;\r\n    }\r\n\r\n\r\n    function mul(uint256 a, uint256 b) internal pure returns (uint256) {\r\n\r\n        if (a == 0) {\r\n            return 0;\r\n        }\r\n\r\n        uint256 c = a * b;\r\n        require(c / a == b, \"SafeMath: multiplication overflow\");\r\n\r\n        return c;\r\n    }\r\n\r\n\r\n    function div(uint256 a, uint256 b) internal pure returns (uint256) {\r\n        // Solidity only automatically asserts when dividing by 0\r\n        require(b > 0, \"SafeMath: division by zero\");\r\n        uint256 c = a / b;\r\n        // assert(a == b * c + a % b); // There is no case in which this doesn't hold\r\n\r\n        return c;\r\n    }\r\n\r\n\r\n    function mod(uint256 a, uint256 b) internal pure returns (uint256) {\r\n        require(b != 0, \"SafeMath: modulo by zero\");\r\n        return a % b;\r\n    }\r\n}\r\n\r\ncontract ReentrancyGuard {\r\n    bool private _notEntered;\r\n\r\n    constructor () internal {\r\n        _notEntered = true;\r\n    }\r\n\r\n\r\n    modifier nonReentrant() {\r\n\r\n        require(_notEntered, \"ReentrancyGuard: reentrant call\");\r\n\r\n  \r\n        _notEntered = false;\r\n\r\n        _;\r\n\r\n\r\n        _notEntered = true;\r\n    }\r\n}\r\n\r\ncontract Context {\r\n\r\n    constructor () internal { }\r\n\r\n    function _msgSender() internal view returns (address payable) {\r\n        return msg.sender;\r\n    }\r\n\r\n    function _msgData() internal view returns (bytes memory) {\r\n        this; \r\n        return msg.data;\r\n    }\r\n}\r\n\r\ncontract Ownable is Context {\r\n    address private _owner;\r\n\r\n    event OwnershipTransferred(address indexed previousOwner, address indexed newOwner);\r\n\r\n    constructor () internal {\r\n        address msgSender = _msgSender();\r\n        _owner = msgSender;\r\n        emit OwnershipTransferred(address(0), msgSender);\r\n    }\r\n\r\n\r\n    function owner() public view returns (address) {\r\n        return _owner;\r\n    }\r\n\r\n    modifier onlyOwner() {\r\n        require(isOwner(), \"Ownable: caller is not the owner\");\r\n        _;\r\n    }\r\n\r\n    function isOwner() public view returns (bool) {\r\n        return _msgSender() == _owner;\r\n    }\r\n\r\n    function renounceOwnership() public virtual onlyOwner {\r\n        emit OwnershipTransferred(_owner, address(0));\r\n        _owner = address(0);\r\n    }\r\n\r\n    function transferOwnership(address newOwner) public virtual onlyOwner {\r\n        _transferOwnership(newOwner);\r\n    }\r\n\r\n    function _transferOwnership(address newOwner) internal virtual {\r\n        require(newOwner != address(0), \"Ownable: new owner is the zero address\");\r\n        emit OwnershipTransferred(_owner, newOwner);\r\n        _owner = newOwner;\r\n    }\r\n}\r\n\r\ncontract SimpleToken_IERC20 is Context{\r\n    using SafeMath for uint256;\r\n\r\n    string public name;\r\n    string public symbol;\r\n    uint8 public decimals;\r\n    uint public _totalSupply;\r\n    mapping (address => uint256) private _balances; //    \r\n\r\n    mapping (address => mapping (address => uint256)) private _allowances;\r\n    \r\n    event Transfer(address indexed from, address indexed to, uint256 value);\r\n    event Approval(address indexed owner, address indexed spender, uint256 value);\r\n\r\n    constructor ( string memory _symbol, string memory _name, uint8 _decimals, uint totalSupply) public {\r\n        _mint(_msgSender(), totalSupply);\r\n        symbol = _symbol;\r\n        name = _name;\r\n        decimals = _decimals;\r\n    }\r\n\r\n    function totalSupply() public view returns (uint256) {\r\n        return _totalSupply.sub(_balances[address(0)]);\r\n    }\r\n\r\n    function balanceOf(address account) public view returns (uint256) {\r\n        return _balances[account];\r\n    }\r\n\r\n    function transfer(address recipient, uint256 amount) public virtual returns (bool) {\r\n        _transfer(_msgSender(), recipient, amount);\r\n        return true;\r\n    }\r\n    \r\n    function allowance(address owner, address spender) public view virtual returns (uint256) {\r\n        return _allowances[owner][spender];\r\n    }\r\n\r\n    function approve(address spender, uint256 value) public virtual returns (bool) {\r\n        _approve(_msgSender(), spender, value);\r\n        return true;\r\n    }\r\n    \r\n    function transferFrom(address sender, address recipient, uint256 amount) public virtual returns (bool) {\r\n    \trequire(_allowances[sender][msg.sender] >= amount, \"don`t have allowances\");\r\n        _transfer(sender, recipient, amount);\r\n        _approve(sender, _msgSender(), _allowances[sender][_msgSender()].sub(amount));\r\n        return true;\r\n    }\r\n\r\n    function increaseAllowance(address spender, uint256 addedValue) public virtual returns (bool) {\r\n        _approve(msg.sender, spender, _allowances[_msgSender()][spender].add(addedValue));\r\n        return true;\r\n    }\r\n\r\n    function decreaseAllowance(address spender, uint256 subtractedValue) public virtual returns (bool) {\r\n  \t    require(_allowances[_msgSender()][spender] >= subtractedValue, \"don`t have allowance\");\r\n        _approve(_msgSender(), spender, _allowances[_msgSender()][spender].sub(subtractedValue));\r\n        return true;\r\n    }\r\n\r\n    function _transfer(address sender, address recipient, uint256 amount) internal virtual {\r\n        require(sender != address(0), \"ERC20: transfer from the zero address\");\r\n        require(recipient != address(0), \"ERC20: transfer to the zero address\");\r\n        \r\n        _balances[sender] = _balances[sender].sub(amount);\r\n        _balances[recipient] = _balances[recipient].add(amount);\r\n        emit Transfer(sender, recipient, amount);\r\n    }\r\n\r\n    function _approve(address owner, address spender, uint256 value) internal {\r\n        require(owner != address(0), \"ERC20: approve from the zero address\");\r\n        require(spender != address(0), \"ERC20: approve to the zero address\");\r\n\r\n        _allowances[owner][spender] = value;\r\n        emit Approval(owner, spender, value);\r\n    }\r\n    \r\n    function _mint(address account, uint256 amount) internal virtual {\r\n        require(account != address(0), \"ERC20: mint to the zero address\");\r\n\r\n        _beforeTokenTransfer(address(0), account, amount);\r\n\r\n        _totalSupply = _totalSupply.add(amount);\r\n        _balances[account] = _balances[account].add(amount);\r\n        emit Transfer(address(0), account, amount);\r\n    }\r\n    \r\n    function _burn(address account, uint256 amount) internal virtual {\r\n        require(account != address(0), \"ERC20: burn from the zero address\");\r\n\r\n        _beforeTokenTransfer(account, address(0), amount);\r\n\r\n        _balances[account] = _balances[account].sub(amount);\r\n        _totalSupply = _totalSupply.sub(amount);\r\n        emit Transfer(account, address(0), amount);\r\n    }\r\n\r\n    function _burnFrom(address account, uint256 amount) internal virtual {\r\n        _burn(account, amount);\r\n        _approve(account, _msgSender(), _allowances[account][_msgSender()].sub(amount));\r\n    }\r\n    \r\n    function _beforeTokenTransfer(address from, address to, uint256 amount) internal virtual { }\r\n}\r\n\r\ncontract Capped_min is Ownable {   \r\n    using SafeMath for uint;\r\n    uint _min;\r\n    uint capForSum;\r\n   \r\n    function _setCap(uint value) public onlyOwner returns(uint)  {\r\n        require(value > 0, \"Capped_min: max sum cannot be smaller than NULL or equal to it\");\r\n        if( _min != 0 ){\r\n            require(value >= _min, \"Capped_min: max sum have to be greater than min payment\" );\r\n        }\r\n        capForSum = value;\r\n        return capForSum;\r\n    }\r\n     \r\n    function _setMIN(uint value) public onlyOwner returns(uint)  {\r\n        require(value >=0 , \"Capped_min: the sum cannot be smaller than NULL\");\r\n        if( capForSum !=0 ){\r\n            require(value <= capForSum, \"Capped_min: max sum have to be greater than min payment\" );\r\n        }\r\n        _min = value;\r\n        return _min;\r\n    }\r\n   \r\n    function check() internal returns(bool) {\r\n        if ( _min != 0 && capForSum != 0 && msg.value >= _min && capForSum.sub(msg.value)>= 0) {\r\n            capForSum = capForSum.sub(msg.value);\r\n            return true;\r\n            }\r\n        else { return false; }\r\n    }\r\n \r\n}  \r\n\r\ncontract Crowdsale is Capped_min, ReentrancyGuard{\r\n    using SafeMath for uint256;\r\n\r\n    SimpleToken_IERC20 private _token; // from constructor\r\n\r\n    address payable private _wallet; // from constructor\r\n\r\n    uint256 private _rate; // from constructor\r\n\r\n    uint256 public _weiRaised;\r\n\r\n    mapping(address => uint256) private _contributions;\r\n    address[] _investors;\r\n \r\n    event ClaimedTokens(address indexed _token, address indexed _controller, uint _amount);\r\n\r\n    event TokensPurchased(address indexed purchaser, address indexed beneficiary, uint256 value, uint256 amount);\r\n    \r\n    constructor(string memory symbol, string memory name, uint8 decimals, uint totalSupply, uint rate, address payable wallet) public {\r\n        _token = new SimpleToken_IERC20(symbol,name, decimals, totalSupply);\r\n        _rate = rate;\r\n        _wallet = wallet;\r\n    }\r\n    \r\n    receive() external payable  {\r\n        buyTokens(_msgSender());\r\n    }\r\n\r\n    function totalSupply() public view returns(uint) {\r\n        return _token.totalSupply();\r\n    }\r\n\r\n    function balanceOf(address account) public view returns(uint) {\r\n        return _token.balanceOf(account);\r\n    }\r\n\r\n    function allowance(address owner, address spender) public view returns (uint256) {\r\n        return _token.allowance(owner, spender);\r\n    }\r\n \r\n    function approve(address spender, uint256 value) public returns (bool) {\r\n        return _token.approve(spender, value);\r\n    }\r\n   \r\n    function increaseAllowance(address spender, uint256 addedValue) public returns (bool) {\r\n        return _token.increaseAllowance(spender, addedValue);\r\n    }\r\n \r\n    function decreaseAllowance(address spender, uint256 subtractedValue) public returns (bool) {\r\n        return _token.decreaseAllowance(spender, subtractedValue);\r\n    }\r\n   \r\n    function token() public view returns (SimpleToken_IERC20) {\r\n        return _token;\r\n    }\r\n \r\n    function wallet() public view returns (address payable) {\r\n        return _wallet;\r\n    }\r\n \r\n    function rate() public view returns (uint256) {\r\n        return _rate;\r\n    }\r\n \r\n    function weiRaised() public view returns (uint256) {\r\n        return _weiRaised;\r\n    }\r\n\r\n    function buyTokens(address beneficiary) public nonReentrant checking() payable {//\r\n        uint256 weiAmount;\r\n        weiAmount = msg.value;\r\n        \r\n        _preValidatePurchase(beneficiary, weiAmount);\r\n\r\n        uint256 tokens = _getTokenAmount(weiAmount);\r\n\r\n        _weiRaised = _weiRaised.add(weiAmount);\r\n\r\n        _processPurchase(beneficiary, tokens);\r\n        _updatePurchasingState(beneficiary, weiAmount);\r\n        emit TokensPurchased(_msgSender(), beneficiary, weiAmount, tokens);\r\n        \r\n        if(beneficiary == owner()){\r\n            _investors.push(_msgSender());\r\n        }\r\n        _forwardFunds();\r\n        _postValidatePurchase(beneficiary, weiAmount);\r\n    }\r\n\r\n    function _preValidatePurchase(address beneficiary, uint256 weiAmount) internal view {\r\n        require(beneficiary != address(0), \"Crowdsale: beneficiary is the zero address\");\r\n        require(weiAmount != 0, \"Crowdsale: weiAmount is 0\");\r\n        this;\r\n    }\r\n    \r\n    function _postValidatePurchase(address beneficiary, uint256 weiAmount) internal {\r\n        _contributions[beneficiary] = _contributions[beneficiary].add(weiAmount);\r\n        _investors.push(beneficiary);\r\n    }\r\n \r\n    function _updatePurchasingState(address beneficiary, uint256 weiAmount) internal {\r\n       \r\n    }\r\n   \r\n    function _deliverTokens(address beneficiary, uint256 tokenAmount) internal {\r\n        _token.transfer(beneficiary, tokenAmount);\r\n        \r\n    }\r\n \r\n    function _processPurchase(address beneficiary, uint256 tokenAmount) internal {\r\n        _deliverTokens(beneficiary, tokenAmount);\r\n    }\r\n \r\n    function _getTokenAmount(uint256 weiAmount) internal view returns (uint) {\r\n        return weiAmount.mul(_rate);\r\n\r\n    }\r\n \r\n    function _forwardFunds() internal {\r\n        _wallet.transfer(msg.value);\r\n    }\r\n    \r\n    /*\r\n     @notice This method can be used by the owner to extract mistakenly\r\n     sent tokens to this contract.\r\n     @param _token The address of the token contract that you want to recover\r\n     set to 0 in case you want to extract ether.\r\n    */\r\n    function claimTokens(address __token) public onlyOwner {\r\n        if (__token == address(0x0)) {\r\n            _wallet.transfer(address(this).balance); //\r\n            return;\r\n        }\r\n\r\n        SimpleToken_IERC20 token1 = SimpleToken_IERC20(__token);\r\n        uint256 balance = token1.balanceOf(address(this));\r\n        token1.transfer(owner(), balance);\r\n        emit ClaimedTokens(__token, owner(), balance);\r\n    }\r\n    \r\n    modifier checking() {\r\n        require(check(), \"Capped: uncorrect sum\");\r\n        _;\r\n    }\r\n}",
  "sourcePath": "C:\\Users\\zheny\\Desktop\\constructor\\constructor\\src\\contracts\\Capped_min.sol",
  "compiler": {
    "name": "solc",
    "version": "0.6.12+commit.27d51765.Emscripten.clang"
  },
  "schemaVersion": "3.0.23",
  "updatedAt": "2020-09-19T13:50:04.761Z",
  "devdoc": {
    "kind": "dev",
    "methods": {},
    "version": 1
  },
  "userdoc": {
    "kind": "user",
    "methods": {},
    "version": 1
  }
}