{
  "contractName": "Crowdsale",
  "abi": [
    {
      "inputs": [
        {
          "internalType": "uint256",
          "name": "total_",
          "type": "uint256"
        },
        {
          "internalType": "string",
          "name": "symbol",
          "type": "string"
        },
        {
          "internalType": "string",
          "name": "name",
          "type": "string"
        },
        {
          "internalType": "uint8",
          "name": "decimals",
          "type": "uint8"
        },
        {
          "internalType": "address payable",
          "name": "wallet",
          "type": "address"
        },
        {
          "internalType": "uint256",
          "name": "rate",
          "type": "uint256"
        }
      ],
      "stateMutability": "nonpayable",
      "type": "constructor"
    },
    {
      "anonymous": false,
      "inputs": [
        {
          "indexed": true,
          "internalType": "address",
          "name": "payee",
          "type": "address"
        },
        {
          "indexed": false,
          "internalType": "uint256",
          "name": "weiAmount",
          "type": "uint256"
        }
      ],
      "name": "Cancel",
      "type": "event"
    },
    {
      "anonymous": false,
      "inputs": [
        {
          "indexed": true,
          "internalType": "address",
          "name": "_token",
          "type": "address"
        },
        {
          "indexed": true,
          "internalType": "address",
          "name": "_controller",
          "type": "address"
        },
        {
          "indexed": false,
          "internalType": "uint256",
          "name": "_amount",
          "type": "uint256"
        }
      ],
      "name": "ClaimedTokens",
      "type": "event"
    },
    {
      "anonymous": false,
      "inputs": [
        {
          "indexed": true,
          "internalType": "address",
          "name": "payee",
          "type": "address"
        },
        {
          "indexed": false,
          "internalType": "uint256",
          "name": "weiAmount",
          "type": "uint256"
        }
      ],
      "name": "Deposited",
      "type": "event"
    },
    {
      "anonymous": false,
      "inputs": [
        {
          "indexed": true,
          "internalType": "address",
          "name": "previousOwner",
          "type": "address"
        },
        {
          "indexed": true,
          "internalType": "address",
          "name": "newOwner",
          "type": "address"
        }
      ],
      "name": "OwnershipTransferred",
      "type": "event"
    },
    {
      "anonymous": false,
      "inputs": [
        {
          "indexed": true,
          "internalType": "address",
          "name": "purchaser",
          "type": "address"
        },
        {
          "indexed": true,
          "internalType": "address",
          "name": "beneficiary",
          "type": "address"
        },
        {
          "indexed": false,
          "internalType": "uint256",
          "name": "value",
          "type": "uint256"
        },
        {
          "indexed": false,
          "internalType": "uint256",
          "name": "amount",
          "type": "uint256"
        }
      ],
      "name": "TokensPurchased",
      "type": "event"
    },
    {
      "anonymous": false,
      "inputs": [
        {
          "indexed": true,
          "internalType": "address",
          "name": "payee",
          "type": "address"
        },
        {
          "indexed": false,
          "internalType": "uint256",
          "name": "weiAmount",
          "type": "uint256"
        }
      ],
      "name": "Withdrawn",
      "type": "event"
    },
    {
      "inputs": [],
      "name": "_weiRaised",
      "outputs": [
        {
          "internalType": "uint256",
          "name": "",
          "type": "uint256"
        }
      ],
      "stateMutability": "view",
      "type": "function"
    },
    {
      "inputs": [
        {
          "internalType": "address",
          "name": "payee",
          "type": "address"
        }
      ],
      "name": "accept",
      "outputs": [],
      "stateMutability": "nonpayable",
      "type": "function"
    },
    {
      "inputs": [],
      "name": "cancel_payee",
      "outputs": [],
      "stateMutability": "nonpayable",
      "type": "function"
    },
    {
      "inputs": [
        {
          "internalType": "address payable",
          "name": "payee",
          "type": "address"
        }
      ],
      "name": "cancel_scientist",
      "outputs": [],
      "stateMutability": "nonpayable",
      "type": "function"
    },
    {
      "inputs": [
        {
          "internalType": "address payable",
          "name": "payee",
          "type": "address"
        }
      ],
      "name": "check_opinion_Inv",
      "outputs": [
        {
          "internalType": "bool",
          "name": "",
          "type": "bool"
        }
      ],
      "stateMutability": "view",
      "type": "function"
    },
    {
      "inputs": [
        {
          "internalType": "address payable",
          "name": "payee",
          "type": "address"
        }
      ],
      "name": "check_opinion_Sc",
      "outputs": [
        {
          "internalType": "bool",
          "name": "",
          "type": "bool"
        }
      ],
      "stateMutability": "view",
      "type": "function"
    },
    {
      "inputs": [],
      "name": "deposit",
      "outputs": [
        {
          "internalType": "uint256",
          "name": "",
          "type": "uint256"
        }
      ],
      "stateMutability": "payable",
      "type": "function"
    },
    {
      "inputs": [
        {
          "internalType": "address",
          "name": "payee",
          "type": "address"
        }
      ],
      "name": "depositeOf",
      "outputs": [
        {
          "internalType": "uint256",
          "name": "",
          "type": "uint256"
        }
      ],
      "stateMutability": "view",
      "type": "function"
    },
    {
      "inputs": [],
      "name": "isOwner",
      "outputs": [
        {
          "internalType": "bool",
          "name": "",
          "type": "bool"
        }
      ],
      "stateMutability": "view",
      "type": "function"
    },
    {
      "inputs": [],
      "name": "owner",
      "outputs": [
        {
          "internalType": "address",
          "name": "",
          "type": "address"
        }
      ],
      "stateMutability": "view",
      "type": "function"
    },
    {
      "inputs": [],
      "name": "renounceOwnership",
      "outputs": [],
      "stateMutability": "nonpayable",
      "type": "function"
    },
    {
      "inputs": [
        {
          "internalType": "address",
          "name": "newOwner",
          "type": "address"
        }
      ],
      "name": "transferOwnership",
      "outputs": [],
      "stateMutability": "nonpayable",
      "type": "function"
    },
    {
      "stateMutability": "payable",
      "type": "receive"
    },
    {
      "inputs": [],
      "name": "totalSupply",
      "outputs": [
        {
          "internalType": "uint256",
          "name": "",
          "type": "uint256"
        }
      ],
      "stateMutability": "view",
      "type": "function"
    },
    {
      "inputs": [
        {
          "internalType": "address",
          "name": "account",
          "type": "address"
        }
      ],
      "name": "balanceOf",
      "outputs": [
        {
          "internalType": "uint256",
          "name": "",
          "type": "uint256"
        }
      ],
      "stateMutability": "view",
      "type": "function"
    },
    {
      "inputs": [
        {
          "internalType": "address",
          "name": "owner",
          "type": "address"
        },
        {
          "internalType": "address",
          "name": "spender",
          "type": "address"
        }
      ],
      "name": "allowance",
      "outputs": [
        {
          "internalType": "uint256",
          "name": "",
          "type": "uint256"
        }
      ],
      "stateMutability": "view",
      "type": "function"
    },
    {
      "inputs": [
        {
          "internalType": "address",
          "name": "spender",
          "type": "address"
        },
        {
          "internalType": "uint256",
          "name": "value",
          "type": "uint256"
        }
      ],
      "name": "approve",
      "outputs": [
        {
          "internalType": "bool",
          "name": "",
          "type": "bool"
        }
      ],
      "stateMutability": "nonpayable",
      "type": "function"
    },
    {
      "inputs": [
        {
          "internalType": "address",
          "name": "spender",
          "type": "address"
        },
        {
          "internalType": "uint256",
          "name": "addedValue",
          "type": "uint256"
        }
      ],
      "name": "increaseAllowance",
      "outputs": [
        {
          "internalType": "bool",
          "name": "",
          "type": "bool"
        }
      ],
      "stateMutability": "nonpayable",
      "type": "function"
    },
    {
      "inputs": [
        {
          "internalType": "address",
          "name": "spender",
          "type": "address"
        },
        {
          "internalType": "uint256",
          "name": "subtractedValue",
          "type": "uint256"
        }
      ],
      "name": "decreaseAllowance",
      "outputs": [
        {
          "internalType": "bool",
          "name": "",
          "type": "bool"
        }
      ],
      "stateMutability": "nonpayable",
      "type": "function"
    },
    {
      "inputs": [],
      "name": "token",
      "outputs": [
        {
          "internalType": "contract SimpleToken_IERC20",
          "name": "",
          "type": "address"
        }
      ],
      "stateMutability": "view",
      "type": "function"
    },
    {
      "inputs": [],
      "name": "wallet",
      "outputs": [
        {
          "internalType": "address payable",
          "name": "",
          "type": "address"
        }
      ],
      "stateMutability": "view",
      "type": "function"
    },
    {
      "inputs": [],
      "name": "rate",
      "outputs": [
        {
          "internalType": "uint256",
          "name": "",
          "type": "uint256"
        }
      ],
      "stateMutability": "view",
      "type": "function"
    },
    {
      "inputs": [],
      "name": "weiRaised",
      "outputs": [
        {
          "internalType": "uint256",
          "name": "",
          "type": "uint256"
        }
      ],
      "stateMutability": "view",
      "type": "function"
    },
    {
      "inputs": [
        {
          "internalType": "address",
          "name": "beneficiary",
          "type": "address"
        }
      ],
      "name": "buyTokens",
      "outputs": [],
      "stateMutability": "payable",
      "type": "function"
    },
    {
      "inputs": [
        {
          "internalType": "address",
          "name": "__token",
          "type": "address"
        }
      ],
      "name": "claimTokens",
      "outputs": [],
      "stateMutability": "nonpayable",
      "type": "function"
    },
    {
      "inputs": [
        {
          "internalType": "address payable",
          "name": "payee",
          "type": "address"
        }
      ],
      "name": "doEscrow",
      "outputs": [],
      "stateMutability": "nonpayable",
      "type": "function"
    }
  ],
  "bytecode": "0x60806040523480156200001157600080fd5b506040516200497038038062004970833981810160405260c08110156200003757600080fd5b8101908080519060200190929190805160405193929190846401000000008211156200006257600080fd5b838201915060208201858111156200007957600080fd5b82518660018202830111640100000000821117156200009757600080fd5b8083526020830192505050908051906020019080838360005b83811015620000cd578082015181840152602081019050620000b0565b50505050905090810190601f168015620000fb5780820380516001836020036101000a031916815260200191505b50604052602001805160405193929190846401000000008211156200011f57600080fd5b838201915060208201858111156200013657600080fd5b82518660018202830111640100000000821117156200015457600080fd5b8083526020830192505050908051906020019080838360005b838110156200018a5780820151818401526020810190506200016d565b50505050905090810190601f168015620001b85780820380516001836020036101000a031916815260200191505b506040526020018051906020019092919080519060200190929190805190602001909291905050506000620001f26200044e60201b60201c565b9050806000806101000a81548173ffffffffffffffffffffffffffffffffffffffff021916908373ffffffffffffffffffffffffffffffffffffffff1602179055508073ffffffffffffffffffffffffffffffffffffffff16600073ffffffffffffffffffffffffffffffffffffffff167f8be0079c531659141344cd1fd0a4f28419497f9722a3daafe3b4186f6b6457e060405160405180910390a350600160058190555085858585604051620002aa9062000456565b8085815260200180602001806020018460ff168152602001838103835286818151815260200191508051906020019080838360005b83811015620002fc578082015181840152602081019050620002df565b50505050905090810190601f1680156200032a5780820380516001836020036101000a031916815260200191505b50838103825285818151815260200191508051906020019080838360005b838110156200036557808201518184015260208101905062000348565b50505050905090810190601f168015620003935780820380516001836020036101000a031916815260200191505b509650505050505050604051809103906000f080158015620003b9573d6000803e3d6000fd5b50600660006101000a81548173ffffffffffffffffffffffffffffffffffffffff021916908373ffffffffffffffffffffffffffffffffffffffff16021790555081600760006101000a81548173ffffffffffffffffffffffffffffffffffffffff021916908373ffffffffffffffffffffffffffffffffffffffff1602179055508060088190555050505050505062000464565b600033905090565b6119918062002fdf83390190565b612b6b80620004746000396000f3fe60806040526004361061016a5760003560e01c8063915b1759116100d1578063d0e30db01161008a578063df8de3e711610064578063df8de3e714610790578063ec8ac4d8146107e1578063f2fde38b14610825578063fc0c546a1461087657610181565b8063d0e30db014610688578063dd62ed3e146106a6578063df7632821461072b57610181565b8063915b1759146104cc57806394a5aa8d146104e35780639f0059201461050e578063a457c2d71461055f578063b9347a09146105d0578063b98718991461063757610181565b8063521eb27311610123578063521eb2731461033a5780635fe68de31461037b57806370a08231146103e2578063715018a6146104475780638da5cb5b1461045e5780638f32d59b1461049f57610181565b8063095ea7b314610186578063121223ef146101f757806318160ddd146102485780632c4e722e14610273578063395093511461029e5780634042b66f1461030f57610181565b366101815761017f61017a6108b7565b6108bf565b005b600080fd5b34801561019257600080fd5b506101df600480360360408110156101a957600080fd5b81019080803573ffffffffffffffffffffffffffffffffffffffff16906020019092919080359060200190929190505050610b9f565b60405180821515815260200191505060405180910390f35b34801561020357600080fd5b506102466004803603602081101561021a57600080fd5b81019080803573ffffffffffffffffffffffffffffffffffffffff169060200190929190505050610c9c565b005b34801561025457600080fd5b5061025d610d71565b6040518082815260200191505060405180910390f35b34801561027f57600080fd5b50610288610e1b565b6040518082815260200191505060405180910390f35b3480156102aa57600080fd5b506102f7600480360360408110156102c157600080fd5b81019080803573ffffffffffffffffffffffffffffffffffffffff16906020019092919080359060200190929190505050610e25565b60405180821515815260200191505060405180910390f35b34801561031b57600080fd5b50610324610f22565b6040518082815260200191505060405180910390f35b34801561034657600080fd5b5061034f610f2c565b604051808273ffffffffffffffffffffffffffffffffffffffff16815260200191505060405180910390f35b34801561038757600080fd5b506103ca6004803603602081101561039e57600080fd5b81019080803573ffffffffffffffffffffffffffffffffffffffff169060200190929190505050610f56565b60405180821515815260200191505060405180910390f35b3480156103ee57600080fd5b506104316004803603602081101561040557600080fd5b81019080803573ffffffffffffffffffffffffffffffffffffffff169060200190929190505050610fac565b6040518082815260200191505060405180910390f35b34801561045357600080fd5b5061045c611079565b005b34801561046a57600080fd5b506104736111b1565b604051808273ffffffffffffffffffffffffffffffffffffffff16815260200191505060405180910390f35b3480156104ab57600080fd5b506104b46111da565b60405180821515815260200191505060405180910390f35b3480156104d857600080fd5b506104e1611238565b005b3480156104ef57600080fd5b506104f86113a1565b6040518082815260200191505060405180910390f35b34801561051a57600080fd5b5061055d6004803603602081101561053157600080fd5b81019080803573ffffffffffffffffffffffffffffffffffffffff1690602001909291905050506113a7565b005b34801561056b57600080fd5b506105b86004803603604081101561058257600080fd5b81019080803573ffffffffffffffffffffffffffffffffffffffff169060200190929190803590602001909291905050506115e1565b60405180821515815260200191505060405180910390f35b3480156105dc57600080fd5b5061061f600480360360208110156105f357600080fd5b81019080803573ffffffffffffffffffffffffffffffffffffffff1690602001909291905050506116de565b60405180821515815260200191505060405180910390f35b34801561064357600080fd5b506106866004803603602081101561065a57600080fd5b81019080803573ffffffffffffffffffffffffffffffffffffffff169060200190929190505050611734565b005b6106906118ca565b6040518082815260200191505060405180910390f35b3480156106b257600080fd5b50610715600480360360408110156106c957600080fd5b81019080803573ffffffffffffffffffffffffffffffffffffffff169060200190929190803573ffffffffffffffffffffffffffffffffffffffff169060200190929190505050611aeb565b6040518082815260200191505060405180910390f35b34801561073757600080fd5b5061077a6004803603602081101561074e57600080fd5b81019080803573ffffffffffffffffffffffffffffffffffffffff169060200190929190505050611bd7565b6040518082815260200191505060405180910390f35b34801561079c57600080fd5b506107df600480360360208110156107b357600080fd5b81019080803573ffffffffffffffffffffffffffffffffffffffff169060200190929190505050611c20565b005b610823600480360360208110156107f757600080fd5b81019080803573ffffffffffffffffffffffffffffffffffffffff1690602001909291905050506108bf565b005b34801561083157600080fd5b506108746004803603602081101561084857600080fd5b81019080803573ffffffffffffffffffffffffffffffffffffffff169060200190929190505050611f0e565b005b34801561088257600080fd5b5061088b611f94565b604051808273ffffffffffffffffffffffffffffffffffffffff16815260200191505060405180910390f35b600033905090565b600160056000828254019250508190555060006005549050600080600260008573ffffffffffffffffffffffffffffffffffffffff1673ffffffffffffffffffffffffffffffffffffffff16815260200190815260200160002054146109ab57600260008473ffffffffffffffffffffffffffffffffffffffff1673ffffffffffffffffffffffffffffffffffffffff1681526020019081526020016000205490506000600260008573ffffffffffffffffffffffffffffffffffffffff1673ffffffffffffffffffffffffffffffffffffffff168152602001908152602001600020819055506109af565b3490505b6109b98382611fbe565b60006109c4826120bf565b90506109db826009546120dd90919063ffffffff16565b6009819055506109eb8482612165565b6109f58483612173565b8373ffffffffffffffffffffffffffffffffffffffff16610a146108b7565b73ffffffffffffffffffffffffffffffffffffffff167f6faf93231a456e552dbc9961f58d9713ee4f2e69d15f1975b050ef0911053a7b8484604051808381526020018281526020019250505060405180910390a3610a716111b1565b73ffffffffffffffffffffffffffffffffffffffff168473ffffffffffffffffffffffffffffffffffffffff161415610b0f57600b610aae6108b7565b9080600181540180825580915050600190039060005260206000200160009091909190916101000a81548173ffffffffffffffffffffffffffffffffffffffff021916908373ffffffffffffffffffffffffffffffffffffffff1602179055505b610b1882612177565b610b2284836121e3565b50506005548114610b9b576040517f08c379a000000000000000000000000000000000000000000000000000000000815260040180806020018281038252601f8152602001807f5265656e7472616e637947756172643a207265656e7472616e742063616c6c0081525060200191505060405180910390fd5b5050565b6000600660009054906101000a900473ffffffffffffffffffffffffffffffffffffffff1673ffffffffffffffffffffffffffffffffffffffff1663e1f21c67610be76108b7565b85856040518463ffffffff1660e01b8152600401808473ffffffffffffffffffffffffffffffffffffffff1681526020018373ffffffffffffffffffffffffffffffffffffffff1681526020018281526020019350505050602060405180830381600087803b158015610c5957600080fd5b505af1158015610c6d573d6000803e3d6000fd5b505050506040513d6020811015610c8357600080fd5b8101908080519060200190929190505050905092915050565b610ca46111da565b610d16576040517f08c379a00000000000000000000000000000000000000000000000000000000081526004018080602001828103825260208152602001807f4f776e61626c653a2063616c6c6572206973206e6f7420746865206f776e657281525060200191505060405180910390fd5b6000600460008373ffffffffffffffffffffffffffffffffffffffff1673ffffffffffffffffffffffffffffffffffffffff16815260200190815260200160002060006101000a81548160ff02191690831515021790555050565b6000600660009054906101000a900473ffffffffffffffffffffffffffffffffffffffff1673ffffffffffffffffffffffffffffffffffffffff166318160ddd6040518163ffffffff1660e01b815260040160206040518083038186803b158015610ddb57600080fd5b505afa158015610def573d6000803e3d6000fd5b505050506040513d6020811015610e0557600080fd5b8101908080519060200190929190505050905090565b6000600854905090565b6000600660009054906101000a900473ffffffffffffffffffffffffffffffffffffffff1673ffffffffffffffffffffffffffffffffffffffff16636c43a2ca610e6d6108b7565b85856040518463ffffffff1660e01b8152600401808473ffffffffffffffffffffffffffffffffffffffff1681526020018373ffffffffffffffffffffffffffffffffffffffff1681526020018281526020019350505050602060405180830381600087803b158015610edf57600080fd5b505af1158015610ef3573d6000803e3d6000fd5b505050506040513d6020811015610f0957600080fd5b8101908080519060200190929190505050905092915050565b6000600954905090565b6000600760009054906101000a900473ffffffffffffffffffffffffffffffffffffffff16905090565b6000600460008373ffffffffffffffffffffffffffffffffffffffff1673ffffffffffffffffffffffffffffffffffffffff16815260200190815260200160002060009054906101000a900460ff169050919050565b6000600660009054906101000a900473ffffffffffffffffffffffffffffffffffffffff1673ffffffffffffffffffffffffffffffffffffffff166370a08231836040518263ffffffff1660e01b8152600401808273ffffffffffffffffffffffffffffffffffffffff16815260200191505060206040518083038186803b15801561103757600080fd5b505afa15801561104b573d6000803e3d6000fd5b505050506040513d602081101561106157600080fd5b81019080805190602001909291905050509050919050565b6110816111da565b6110f3576040517f08c379a00000000000000000000000000000000000000000000000000000000081526004018080602001828103825260208152602001807f4f776e61626c653a2063616c6c6572206973206e6f7420746865206f776e657281525060200191505060405180910390fd5b600073ffffffffffffffffffffffffffffffffffffffff1660008054906101000a900473ffffffffffffffffffffffffffffffffffffffff1673ffffffffffffffffffffffffffffffffffffffff167f8be0079c531659141344cd1fd0a4f28419497f9722a3daafe3b4186f6b6457e060405160405180910390a360008060006101000a81548173ffffffffffffffffffffffffffffffffffffffff021916908373ffffffffffffffffffffffffffffffffffffffff160217905550565b60008060009054906101000a900473ffffffffffffffffffffffffffffffffffffffff16905090565b60008060009054906101000a900473ffffffffffffffffffffffffffffffffffffffff1673ffffffffffffffffffffffffffffffffffffffff1661121c6108b7565b73ffffffffffffffffffffffffffffffffffffffff1614905090565b6000600260006112466108b7565b73ffffffffffffffffffffffffffffffffffffffff1673ffffffffffffffffffffffffffffffffffffffff1681526020019081526020016000205414156112f5576040517f08c379a000000000000000000000000000000000000000000000000000000000815260040180806020018281038252601c8152602001807f457363726f773a20796f7520617265206e6f7420696e766573746f720000000081525060200191505060405180910390fd5b6000600360006113036108b7565b73ffffffffffffffffffffffffffffffffffffffff1673ffffffffffffffffffffffffffffffffffffffff16815260200190815260200160002060006101000a81548160ff02191690831515021790555042600160006113616108b7565b73ffffffffffffffffffffffffffffffffffffffff1673ffffffffffffffffffffffffffffffffffffffff16815260200190815260200160002081905550565b60095481565b6000600260003373ffffffffffffffffffffffffffffffffffffffff1673ffffffffffffffffffffffffffffffffffffffff16815260200190815260200160002054146114e157600360008273ffffffffffffffffffffffffffffffffffffffff1673ffffffffffffffffffffffffffffffffffffffff16815260200190815260200160002060009054906101000a900460ff166114dc576001600360008373ffffffffffffffffffffffffffffffffffffffff1673ffffffffffffffffffffffffffffffffffffffff16815260200190815260200160002060006101000a81548160ff02191690831515021790555042600160008373ffffffffffffffffffffffffffffffffffffffff1673ffffffffffffffffffffffffffffffffffffffff168152602001908152602001600020819055505b6115de565b6114e96111da565b156115dd57600460008273ffffffffffffffffffffffffffffffffffffffff1673ffffffffffffffffffffffffffffffffffffffff16815260200190815260200160002060009054906101000a900460ff166115dc576001600460008373ffffffffffffffffffffffffffffffffffffffff1673ffffffffffffffffffffffffffffffffffffffff16815260200190815260200160002060006101000a81548160ff02191690831515021790555042600160008373ffffffffffffffffffffffffffffffffffffffff1673ffffffffffffffffffffffffffffffffffffffff168152602001908152602001600020819055505b5b5b50565b6000600660009054906101000a900473ffffffffffffffffffffffffffffffffffffffff1673ffffffffffffffffffffffffffffffffffffffff1663d73b1dc96116296108b7565b85856040518463ffffffff1660e01b8152600401808473ffffffffffffffffffffffffffffffffffffffff1681526020018373ffffffffffffffffffffffffffffffffffffffff1681526020018281526020019350505050602060405180830381600087803b15801561169b57600080fd5b505af11580156116af573d6000803e3d6000fd5b505050506040513d60208110156116c557600080fd5b8101908080519060200190929190505050905092915050565b6000600360008373ffffffffffffffffffffffffffffffffffffffff1673ffffffffffffffffffffffffffffffffffffffff16815260200190815260200160002060009054906101000a900460ff169050919050565b8061173d6111b1565b73ffffffffffffffffffffffffffffffffffffffff1661175b6108b7565b73ffffffffffffffffffffffffffffffffffffffff1614806117af57508073ffffffffffffffffffffffffffffffffffffffff166117976108b7565b73ffffffffffffffffffffffffffffffffffffffff16145b611804576040517f08c379a0000000000000000000000000000000000000000000000000000000008152600401808060200182810382526032815260200180612ab96032913960400191505060405180910390fd5b61180d826122df565b156118ad5761181b8261239b565b8173ffffffffffffffffffffffffffffffffffffffff167f7084f5476618d8e60b11ef0d7d3f06914655adb8793e28ff7f018d4c76d505d5600260008573ffffffffffffffffffffffffffffffffffffffff1673ffffffffffffffffffffffffffffffffffffffff168152602001908152602001600020546040518082815260200191505060405180910390a26118c6565b6118b682612434565b156118c5576118c48261269e565b5b5b5050565b60006118d46111da565b15611947576040517f08c379a00000000000000000000000000000000000000000000000000000000081526004018080602001828103825260208152602001807f457363726f773a20746865206f776e65722063616e6074206465706f7369746581525060200191505060405180910390fd5b600034905060008110156119a6576040517f08c379a0000000000000000000000000000000000000000000000000000000008152600401808060200182810382526036815260200180612a836036913960400191505060405180910390fd5b6119ff81600260006119b66108b7565b73ffffffffffffffffffffffffffffffffffffffff1673ffffffffffffffffffffffffffffffffffffffff168152602001908152602001600020546120dd90919063ffffffff16565b60026000611a0b6108b7565b73ffffffffffffffffffffffffffffffffffffffff1673ffffffffffffffffffffffffffffffffffffffff16815260200190815260200160002081905550611a516108b7565b73ffffffffffffffffffffffffffffffffffffffff167f2da466a7b24304f47e87fa2e1e5a81b9831ce54fec19055ce277ca2f39ba42c4826040518082815260200191505060405180910390a260026000611aaa6108b7565b73ffffffffffffffffffffffffffffffffffffffff1673ffffffffffffffffffffffffffffffffffffffff1681526020019081526020016000205491505090565b6000600660009054906101000a900473ffffffffffffffffffffffffffffffffffffffff1673ffffffffffffffffffffffffffffffffffffffff1663dd62ed3e84846040518363ffffffff1660e01b8152600401808373ffffffffffffffffffffffffffffffffffffffff1681526020018273ffffffffffffffffffffffffffffffffffffffff1681526020019250505060206040518083038186803b158015611b9457600080fd5b505afa158015611ba8573d6000803e3d6000fd5b505050506040513d6020811015611bbe57600080fd5b8101908080519060200190929190505050905092915050565b6000600260008373ffffffffffffffffffffffffffffffffffffffff1673ffffffffffffffffffffffffffffffffffffffff168152602001908152602001600020549050919050565b611c286111da565b611c9a576040517f08c379a00000000000000000000000000000000000000000000000000000000081526004018080602001828103825260208152602001807f4f776e61626c653a2063616c6c6572206973206e6f7420746865206f776e657281525060200191505060405180910390fd5b600073ffffffffffffffffffffffffffffffffffffffff168173ffffffffffffffffffffffffffffffffffffffff161415611d3d57600760009054906101000a900473ffffffffffffffffffffffffffffffffffffffff1673ffffffffffffffffffffffffffffffffffffffff166108fc479081150290604051600060405180830381858888f19350505050158015611d37573d6000803e3d6000fd5b50611f0b565b600081905060008173ffffffffffffffffffffffffffffffffffffffff166370a08231306040518263ffffffff1660e01b8152600401808273ffffffffffffffffffffffffffffffffffffffff16815260200191505060206040518083038186803b158015611dab57600080fd5b505afa158015611dbf573d6000803e3d6000fd5b505050506040513d6020811015611dd557600080fd5b810190808051906020019092919050505090508173ffffffffffffffffffffffffffffffffffffffff1663a9059cbb611e0c6111b1565b836040518363ffffffff1660e01b8152600401808373ffffffffffffffffffffffffffffffffffffffff16815260200182815260200192505050602060405180830381600087803b158015611e6057600080fd5b505af1158015611e74573d6000803e3d6000fd5b505050506040513d6020811015611e8a57600080fd5b810190808051906020019092919050505050611ea46111b1565b73ffffffffffffffffffffffffffffffffffffffff168373ffffffffffffffffffffffffffffffffffffffff167ff931edb47c50b4b4104c187b5814a9aef5f709e17e2ecf9617e860cacade929c836040518082815260200191505060405180910390a350505b50565b611f166111da565b611f88576040517f08c379a00000000000000000000000000000000000000000000000000000000081526004018080602001828103825260208152602001807f4f776e61626c653a2063616c6c6572206973206e6f7420746865206f776e657281525060200191505060405180910390fd5b611f91816127c0565b50565b6000600660009054906101000a900473ffffffffffffffffffffffffffffffffffffffff16905090565b600073ffffffffffffffffffffffffffffffffffffffff168273ffffffffffffffffffffffffffffffffffffffff161415612044576040517f08c379a000000000000000000000000000000000000000000000000000000000815260040180806020018281038252602a815260200180612b0c602a913960400191505060405180910390fd5b60008114156120bb576040517f08c379a00000000000000000000000000000000000000000000000000000000081526004018080602001828103825260198152602001807f43726f776473616c653a20776569416d6f756e7420697320300000000000000081525060200191505060405180910390fd5b5050565b60006120d66008548361290390919063ffffffff16565b9050919050565b60008082840190508381101561215b576040517f08c379a000000000000000000000000000000000000000000000000000000000815260040180806020018281038252601b8152602001807f536166654d6174683a206164646974696f6e206f766572666c6f77000000000081525060200191505060405180910390fd5b8091505092915050565b61216f8282612989565b5050565b5050565b600760009054906101000a900473ffffffffffffffffffffffffffffffffffffffff1673ffffffffffffffffffffffffffffffffffffffff166108fc829081150290604051600060405180830381858888f193505050501580156121df573d6000803e3d6000fd5b5050565b61223581600a60008573ffffffffffffffffffffffffffffffffffffffff1673ffffffffffffffffffffffffffffffffffffffff168152602001908152602001600020546120dd90919063ffffffff16565b600a60008473ffffffffffffffffffffffffffffffffffffffff1673ffffffffffffffffffffffffffffffffffffffff16815260200190815260200160002081905550600b829080600181540180825580915050600190039060005260206000200160009091909190916101000a81548173ffffffffffffffffffffffffffffffffffffffff021916908373ffffffffffffffffffffffffffffffffffffffff1602179055505050565b60008060009050600360008473ffffffffffffffffffffffffffffffffffffffff1673ffffffffffffffffffffffffffffffffffffffff16815260200190815260200160002060009054906101000a900460ff1680156123885750600460008473ffffffffffffffffffffffffffffffffffffffff1673ffffffffffffffffffffffffffffffffffffffff16815260200190815260200160002060009054906101000a900460ff165b1561239257600190505b80915050919050565b6123a4816108bf565b8073ffffffffffffffffffffffffffffffffffffffff167f7084f5476618d8e60b11ef0d7d3f06914655adb8793e28ff7f018d4c76d505d5600260008473ffffffffffffffffffffffffffffffffffffffff1673ffffffffffffffffffffffffffffffffffffffff168152602001908152602001600020546040518082815260200191505060405180910390a250565b60008060009050600360008473ffffffffffffffffffffffffffffffffffffffff1673ffffffffffffffffffffffffffffffffffffffff16815260200190815260200160002060009054906101000a900460ff161580156124de5750600460008473ffffffffffffffffffffffffffffffffffffffff1673ffffffffffffffffffffffffffffffffffffffff16815260200190815260200160002060009054906101000a900460ff165b806125885750600360008473ffffffffffffffffffffffffffffffffffffffff1673ffffffffffffffffffffffffffffffffffffffff16815260200190815260200160002060009054906101000a900460ff1680156125875750600460008473ffffffffffffffffffffffffffffffffffffffff1673ffffffffffffffffffffffffffffffffffffffff16815260200190815260200160002060009054906101000a900460ff16155b5b806126335750600360008473ffffffffffffffffffffffffffffffffffffffff1673ffffffffffffffffffffffffffffffffffffffff16815260200190815260200160002060009054906101000a900460ff161580156126325750600460008473ffffffffffffffffffffffffffffffffffffffff1673ffffffffffffffffffffffffffffffffffffffff16815260200190815260200160002060009054906101000a900460ff16155b5b8015612682575062278d00600160008573ffffffffffffffffffffffffffffffffffffffff1673ffffffffffffffffffffffffffffffffffffffff168152602001908152602001600020540142115b156126905780915050612699565b60019050809150505b919050565b6000600260008373ffffffffffffffffffffffffffffffffffffffff1673ffffffffffffffffffffffffffffffffffffffff1681526020019081526020016000205490506000600260008473ffffffffffffffffffffffffffffffffffffffff1673ffffffffffffffffffffffffffffffffffffffff168152602001908152602001600020819055508173ffffffffffffffffffffffffffffffffffffffff166108fc829081150290604051600060405180830381858888f1935050505015801561276d573d6000803e3d6000fd5b508173ffffffffffffffffffffffffffffffffffffffff167f27f83af92b39768b17fe0c8d6922452702717efb8626d97e7a754e0b27d4f6d2826040518082815260200191505060405180910390a25050565b600073ffffffffffffffffffffffffffffffffffffffff168173ffffffffffffffffffffffffffffffffffffffff161415612846576040517f08c379a0000000000000000000000000000000000000000000000000000000008152600401808060200182810382526026815260200180612a5d6026913960400191505060405180910390fd5b8073ffffffffffffffffffffffffffffffffffffffff1660008054906101000a900473ffffffffffffffffffffffffffffffffffffffff1673ffffffffffffffffffffffffffffffffffffffff167f8be0079c531659141344cd1fd0a4f28419497f9722a3daafe3b4186f6b6457e060405160405180910390a3806000806101000a81548173ffffffffffffffffffffffffffffffffffffffff021916908373ffffffffffffffffffffffffffffffffffffffff16021790555050565b6000808314156129165760009050612983565b600082840290508284828161292757fe5b041461297e576040517f08c379a0000000000000000000000000000000000000000000000000000000008152600401808060200182810382526021815260200180612aeb6021913960400191505060405180910390fd5b809150505b92915050565b600660009054906101000a900473ffffffffffffffffffffffffffffffffffffffff1673ffffffffffffffffffffffffffffffffffffffff1663a9059cbb83836040518363ffffffff1660e01b8152600401808373ffffffffffffffffffffffffffffffffffffffff16815260200182815260200192505050602060405180830381600087803b158015612a1c57600080fd5b505af1158015612a30573d6000803e3d6000fd5b505050506040513d6020811015612a4657600080fd5b810190808051906020019092919050505050505056fe4f776e61626c653a206e6577206f776e657220697320746865207a65726f2061646472657373457363726f773a207468652073756d2063616e607420626520657175616c20746f207a65726f206f72206c657373207468616e206974457363726f773a20596f7520646f6e60742068617665207065726d6973736f6e20666f7220746869732066756e6374696f6e536166654d6174683a206d756c7469706c69636174696f6e206f766572666c6f7743726f776473616c653a2062656e656669636961727920697320746865207a65726f2061646472657373a264697066735822122030335e0ecbc7aa3391c056c492f9e7aaf6b68b95701975c264d53ac5a5be895e64736f6c634300060c003360806040523480156200001157600080fd5b506040516200199138038062001991833981810160405260808110156200003757600080fd5b8101908080519060200190929190805160405193929190846401000000008211156200006257600080fd5b838201915060208201858111156200007957600080fd5b82518660018202830111640100000000821117156200009757600080fd5b8083526020830192505050908051906020019080838360005b83811015620000cd578082015181840152602081019050620000b0565b50505050905090810190601f168015620000fb5780820380516001836020036101000a031916815260200191505b50604052602001805160405193929190846401000000008211156200011f57600080fd5b838201915060208201858111156200013657600080fd5b82518660018202830111640100000000821117156200015457600080fd5b8083526020830192505050908051906020019080838360005b838110156200018a5780820151818401526020810190506200016d565b50505050905090810190601f168015620001b85780820380516001836020036101000a031916815260200191505b5060405260200180519060200190929190505050620001ed620001e06200024460201b60201c565b856200024c60201b60201c565b826001908051906020019062000205929190620004a1565b5081600090805190602001906200021e929190620004a1565b5080600260006101000a81548160ff021916908360ff1602179055505050505062000547565b600033905090565b600073ffffffffffffffffffffffffffffffffffffffff168273ffffffffffffffffffffffffffffffffffffffff161415620002f0576040517f08c379a000000000000000000000000000000000000000000000000000000000815260040180806020018281038252601f8152602001807f45524332303a206d696e7420746f20746865207a65726f20616464726573730081525060200191505060405180910390fd5b6200030c816003546200041860201b62000d551790919060201c565b6003819055506200036b81600460008573ffffffffffffffffffffffffffffffffffffffff1673ffffffffffffffffffffffffffffffffffffffff168152602001908152602001600020546200041860201b62000d551790919060201c565b600460008473ffffffffffffffffffffffffffffffffffffffff1673ffffffffffffffffffffffffffffffffffffffff168152602001908152602001600020819055508173ffffffffffffffffffffffffffffffffffffffff16600073ffffffffffffffffffffffffffffffffffffffff167fddf252ad1be2c89b69c2b068fc378daa952ba7f163c4a11628f55a4df523b3ef836040518082815260200191505060405180910390a35050565b60008082840190508381101562000497576040517f08c379a000000000000000000000000000000000000000000000000000000000815260040180806020018281038252601b8152602001807f536166654d6174683a206164646974696f6e206f766572666c6f77000000000081525060200191505060405180910390fd5b8091505092915050565b828054600181600116156101000203166002900490600052602060002090601f016020900481019282601f10620004e457805160ff191683800117855562000515565b8280016001018555821562000515579182015b8281111562000514578251825591602001919060010190620004f7565b5b50905062000524919062000528565b5090565b5b808211156200054357600081600090555060010162000529565b5090565b61143a80620005576000396000f3fe608060405234801561001057600080fd5b50600436106100b45760003560e01c806370a082311161007157806370a08231146102a157806395d89b41146102f9578063a9059cbb1461037c578063d73b1dc9146103e0578063dd62ed3e14610464578063e1f21c67146104dc576100b4565b806306fdde03146100b957806318160ddd1461013c57806323b872dd1461015a578063313ce567146101de5780633eaaf86b146101ff5780636c43a2ca1461021d575b600080fd5b6100c1610560565b6040518080602001828103825283818151815260200191508051906020019080838360005b838110156101015780820151818401526020810190506100e6565b50505050905090810190601f16801561012e5780820380516001836020036101000a031916815260200191505b509250505060405180910390f35b6101446105fe565b6040518082815260200191505060405180910390f35b6101c66004803603606081101561017057600080fd5b81019080803573ffffffffffffffffffffffffffffffffffffffff169060200190929190803573ffffffffffffffffffffffffffffffffffffffff16906020019092919080359060200190929190505050610659565b60405180821515815260200191505060405180910390f35b6101e661080a565b604051808260ff16815260200191505060405180910390f35b61020761081d565b6040518082815260200191505060405180910390f35b6102896004803603606081101561023357600080fd5b81019080803573ffffffffffffffffffffffffffffffffffffffff169060200190929190803573ffffffffffffffffffffffffffffffffffffffff16906020019092919080359060200190929190505050610823565b60405180821515815260200191505060405180910390f35b6102e3600480360360208110156102b757600080fd5b81019080803573ffffffffffffffffffffffffffffffffffffffff1690602001909291905050506109b8565b6040518082815260200191505060405180910390f35b610301610a01565b6040518080602001828103825283818151815260200191508051906020019080838360005b83811015610341578082015181840152602081019050610326565b50505050905090810190601f16801561036e5780820380516001836020036101000a031916815260200191505b509250505060405180910390f35b6103c86004803603604081101561039257600080fd5b81019080803573ffffffffffffffffffffffffffffffffffffffff16906020019092919080359060200190929190505050610a9f565b60405180821515815260200191505060405180910390f35b61044c600480360360608110156103f657600080fd5b81019080803573ffffffffffffffffffffffffffffffffffffffff169060200190929190803573ffffffffffffffffffffffffffffffffffffffff16906020019092919080359060200190929190505050610abd565b60405180821515815260200191505060405180910390f35b6104c66004803603604081101561047a57600080fd5b81019080803573ffffffffffffffffffffffffffffffffffffffff169060200190929190803573ffffffffffffffffffffffffffffffffffffffff169060200190929190505050610c55565b6040518082815260200191505060405180910390f35b610548600480360360608110156104f257600080fd5b81019080803573ffffffffffffffffffffffffffffffffffffffff169060200190929190803573ffffffffffffffffffffffffffffffffffffffff16906020019092919080359060200190929190505050610cdc565b60405180821515815260200191505060405180910390f35b60008054600181600116156101000203166002900480601f0160208091040260200160405190810160405280929190818152602001828054600181600116156101000203166002900480156105f65780601f106105cb576101008083540402835291602001916105f6565b820191906000526020600020905b8154815290600101906020018083116105d957829003601f168201915b505050505081565b6000610654600460008073ffffffffffffffffffffffffffffffffffffffff1673ffffffffffffffffffffffffffffffffffffffff16815260200190815260200160002054600354610ddd90919063ffffffff16565b905090565b600081600560008673ffffffffffffffffffffffffffffffffffffffff1673ffffffffffffffffffffffffffffffffffffffff16815260200190815260200160002060003373ffffffffffffffffffffffffffffffffffffffff1673ffffffffffffffffffffffffffffffffffffffff16815260200190815260200160002054101561074d576040517f08c379a00000000000000000000000000000000000000000000000000000000081526004018080602001828103825260158152602001807f646f6e6074206861766520616c6c6f77616e636573000000000000000000000081525060200191505060405180910390fd5b610758848484610e66565b6107ff84610764611150565b6107fa85600560008a73ffffffffffffffffffffffffffffffffffffffff1673ffffffffffffffffffffffffffffffffffffffff16815260200190815260200160002060006107b1611150565b73ffffffffffffffffffffffffffffffffffffffff1673ffffffffffffffffffffffffffffffffffffffff16815260200190815260200160002054610ddd90919063ffffffff16565b611158565b600190509392505050565b600260009054906101000a900460ff1681565b60035481565b60006108b482600560008773ffffffffffffffffffffffffffffffffffffffff1673ffffffffffffffffffffffffffffffffffffffff16815260200190815260200160002060008673ffffffffffffffffffffffffffffffffffffffff1673ffffffffffffffffffffffffffffffffffffffff16815260200190815260200160002054610d5590919063ffffffff16565b6108bd856109b8565b1015610914576040517f08c379a00000000000000000000000000000000000000000000000000000000081526004018080602001828103825260278152602001806113de6027913960400191505060405180910390fd5b6109ad84846109a885600560008a73ffffffffffffffffffffffffffffffffffffffff1673ffffffffffffffffffffffffffffffffffffffff16815260200190815260200160002060008973ffffffffffffffffffffffffffffffffffffffff1673ffffffffffffffffffffffffffffffffffffffff16815260200190815260200160002054610d5590919063ffffffff16565b611158565b600190509392505050565b6000600460008373ffffffffffffffffffffffffffffffffffffffff1673ffffffffffffffffffffffffffffffffffffffff168152602001908152602001600020549050919050565b60018054600181600116156101000203166002900480601f016020809104026020016040519081016040528092919081815260200182805460018160011615610100020316600290048015610a975780601f10610a6c57610100808354040283529160200191610a97565b820191906000526020600020905b815481529060010190602001808311610a7a57829003601f168201915b505050505081565b6000610ab3610aac611150565b8484610e66565b6001905092915050565b600081600560008673ffffffffffffffffffffffffffffffffffffffff1673ffffffffffffffffffffffffffffffffffffffff16815260200190815260200160002060008573ffffffffffffffffffffffffffffffffffffffff1673ffffffffffffffffffffffffffffffffffffffff168152602001908152602001600020541015610bb1576040517f08c379a00000000000000000000000000000000000000000000000000000000081526004018080602001828103825260148152602001807f646f6e6074206861766520616c6c6f77616e636500000000000000000000000081525060200191505060405180910390fd5b610c4a8484610c4585600560008a73ffffffffffffffffffffffffffffffffffffffff1673ffffffffffffffffffffffffffffffffffffffff16815260200190815260200160002060008973ffffffffffffffffffffffffffffffffffffffff1673ffffffffffffffffffffffffffffffffffffffff16815260200190815260200160002054610ddd90919063ffffffff16565b611158565b600190509392505050565b6000600560008473ffffffffffffffffffffffffffffffffffffffff1673ffffffffffffffffffffffffffffffffffffffff16815260200190815260200160002060008373ffffffffffffffffffffffffffffffffffffffff1673ffffffffffffffffffffffffffffffffffffffff16815260200190815260200160002054905092915050565b600081610ce8856109b8565b1015610d3f576040517f08c379a00000000000000000000000000000000000000000000000000000000081526004018080602001828103825260278152602001806113de6027913960400191505060405180910390fd5b610d4a848484611158565b600190509392505050565b600080828401905083811015610dd3576040517f08c379a000000000000000000000000000000000000000000000000000000000815260040180806020018281038252601b8152602001807f536166654d6174683a206164646974696f6e206f766572666c6f77000000000081525060200191505060405180910390fd5b8091505092915050565b600082821115610e55576040517f08c379a000000000000000000000000000000000000000000000000000000000815260040180806020018281038252601e8152602001807f536166654d6174683a207375627472616374696f6e206f766572666c6f77000081525060200191505060405180910390fd5b600082840390508091505092915050565b600073ffffffffffffffffffffffffffffffffffffffff168373ffffffffffffffffffffffffffffffffffffffff161415610eec576040517f08c379a00000000000000000000000000000000000000000000000000000000081526004018080602001828103825260258152602001806113956025913960400191505060405180910390fd5b600073ffffffffffffffffffffffffffffffffffffffff168273ffffffffffffffffffffffffffffffffffffffff161415610f72576040517f08c379a00000000000000000000000000000000000000000000000000000000081526004018080602001828103825260238152602001806113506023913960400191505060405180910390fd5b610fc481600460008673ffffffffffffffffffffffffffffffffffffffff1673ffffffffffffffffffffffffffffffffffffffff16815260200190815260200160002054610ddd90919063ffffffff16565b600460008573ffffffffffffffffffffffffffffffffffffffff1673ffffffffffffffffffffffffffffffffffffffff1681526020019081526020016000208190555061105981600460008573ffffffffffffffffffffffffffffffffffffffff1673ffffffffffffffffffffffffffffffffffffffff16815260200190815260200160002054610d5590919063ffffffff16565b600460008473ffffffffffffffffffffffffffffffffffffffff1673ffffffffffffffffffffffffffffffffffffffff168152602001908152602001600020819055506110e68283600460008673ffffffffffffffffffffffffffffffffffffffff1673ffffffffffffffffffffffffffffffffffffffff16815260200190815260200160002054611158565b8173ffffffffffffffffffffffffffffffffffffffff168373ffffffffffffffffffffffffffffffffffffffff167fddf252ad1be2c89b69c2b068fc378daa952ba7f163c4a11628f55a4df523b3ef836040518082815260200191505060405180910390a3505050565b600033905090565b600073ffffffffffffffffffffffffffffffffffffffff168373ffffffffffffffffffffffffffffffffffffffff1614156111de576040517f08c379a00000000000000000000000000000000000000000000000000000000081526004018080602001828103825260248152602001806113ba6024913960400191505060405180910390fd5b600073ffffffffffffffffffffffffffffffffffffffff168273ffffffffffffffffffffffffffffffffffffffff161415611264576040517f08c379a00000000000000000000000000000000000000000000000000000000081526004018080602001828103825260228152602001806113736022913960400191505060405180910390fd5b80600560008573ffffffffffffffffffffffffffffffffffffffff1673ffffffffffffffffffffffffffffffffffffffff16815260200190815260200160002060008473ffffffffffffffffffffffffffffffffffffffff1673ffffffffffffffffffffffffffffffffffffffff168152602001908152602001600020819055508173ffffffffffffffffffffffffffffffffffffffff168373ffffffffffffffffffffffffffffffffffffffff167f8c5be1e5ebec7d5bd14f71427d1e84f3dd0314c0f7b2291e5b200ac8c7c3b925836040518082815260200191505060405180910390a350505056fe45524332303a207472616e7366657220746f20746865207a65726f206164647265737345524332303a20617070726f766520746f20746865207a65726f206164647265737345524332303a207472616e736665722066726f6d20746865207a65726f206164647265737345524332303a20617070726f76652066726f6d20746865207a65726f2061646472657373746f6b656e3a20796f7520646f6573206e6f74206861766520736f206d616e7920746f6b656e73a26469706673582212208804c8d27f554f8e5ccc5f488a21e80d5e7efcd11e978c5d73d01cf26ff2901e64736f6c634300060c0033",
  "source": "pragma solidity >= 0.6.0;\r\n\r\nlibrary SafeMath {\r\n\r\n    function add(uint256 a, uint256 b) internal pure returns (uint256) {\r\n        uint256 c = a + b;\r\n        require(c >= a, \"SafeMath: addition overflow\");\r\n\r\n        return c;\r\n    }\r\n\r\n    function sub(uint256 a, uint256 b) internal pure returns (uint256) {\r\n        require(b <= a, \"SafeMath: subtraction overflow\");\r\n        uint256 c = a - b;\r\n\r\n        return c;\r\n    }\r\n\r\n    function mul(uint256 a, uint256 b) internal pure returns (uint256) {\r\n     \r\n         if (a == 0) {\r\n            return 0;\r\n        }\r\n\r\n        uint256 c = a * b;\r\n        require(c / a == b, \"SafeMath: multiplication overflow\");\r\n\r\n        return c;\r\n    }\r\n\r\n    \r\n    function div(uint256 a, uint256 b) internal pure returns (uint256) {\r\n       \r\n        require(b > 0, \"SafeMath: division by zero\");\r\n        uint256 c = a / b;\r\n      \r\n        return c;\r\n    }\r\n\r\n  \r\n    function mod(uint256 a, uint256 b) internal pure returns (uint256) {\r\n        require(b != 0, \"SafeMath: modulo by zero\");\r\n        return a % b;\r\n    }\r\n}\r\n\r\ncontract ReentrancyGuard {\r\n\r\n    uint256 private _guardCounter;\r\n\r\n    constructor () internal {\r\n       _guardCounter = 1;\r\n    }\r\n\r\n   \r\n    modifier nonReentrant() {\r\n        _guardCounter += 1;\r\n        uint256 localCounter = _guardCounter;\r\n        _;\r\n        require(localCounter == _guardCounter, \"ReentrancyGuard: reentrant call\");\r\n    }\r\n}\r\n\r\ncontract Context {\r\n \r\n   constructor () internal { }\r\n   \r\n    function _msgSender() internal view returns (address payable) {\r\n        return msg.sender;\r\n    }\r\n\r\n    function _msgData() internal view returns (bytes memory) {\r\n        this; // silence state mutability warning without generating bytecode - see https://github.com/ethereum/solidity/issues/2691\r\n        return msg.data;\r\n    }\r\n}\r\n\r\ncontract Ownable is Context {\r\n    address private _owner;\r\n\r\n    event OwnershipTransferred(address indexed previousOwner, address indexed newOwner);\r\n\r\n   constructor () internal {\r\n        address msgSender = _msgSender();\r\n        _owner = msgSender;\r\n        emit OwnershipTransferred(address(0), msgSender);\r\n    }\r\n\r\n   function owner() public view returns (address) {\r\n        return _owner;\r\n    }\r\n\r\n   modifier onlyOwner() {\r\n        require(isOwner(), \"Ownable: caller is not the owner\");\r\n        _;\r\n    }\r\n\r\n    function isOwner() public view returns (bool) {\r\n        return _msgSender() == _owner;\r\n    }\r\n\r\n    function renounceOwnership() public virtual onlyOwner {\r\n        emit OwnershipTransferred(_owner, address(0));\r\n        _owner = address(0);\r\n    }\r\n\r\n    function transferOwnership(address newOwner) public virtual onlyOwner {\r\n        _transferOwnership(newOwner);\r\n    }\r\n\r\n    function _transferOwnership(address newOwner) internal virtual {\r\n        require(newOwner != address(0), \"Ownable: new owner is the zero address\");\r\n        emit OwnershipTransferred(_owner, newOwner);\r\n        _owner = newOwner;\r\n    }\r\n}\r\n\r\ncontract Escrow is Ownable {\r\n    using SafeMath for uint256;  using SafeMath for uint256;\r\n    \r\n    mapping(address => uint) start;\r\n    mapping(address => uint) balanceDeposit;\r\n    mapping (address => bool) investorOk;\r\n    mapping (address => bool) scientistOk;\r\n    \r\n    event Deposited(address indexed payee, uint256 weiAmount);\r\n    event Withdrawn(address indexed payee, uint256 weiAmount);\r\n    event Cancel(address indexed payee, uint256 weiAmount);\r\n    \r\n    function deposit() public payable returns(uint){\r\n        require( !isOwner(), 'Escrow: the owner can`t deposite');\r\n        uint value = msg.value;\r\n        require( value >= 0, 'Escrow: the sum can`t be equal to zero or less than it');\r\n        balanceDeposit[_msgSender()] = balanceDeposit[_msgSender()].add(value);\r\n        emit Deposited(_msgSender(), value);\r\n        return balanceDeposit[_msgSender()];\r\n    }\r\n    \r\n    function depositeOf(address payee) public view returns(uint) {\r\n        return balanceDeposit[payee];\r\n    }\r\n    \r\n    \r\n    function accept(address payee) public { \r\n        if (balanceDeposit[msg.sender] != 0){\r\n            if(! investorOk[payee]){ \r\n                investorOk[payee]= true;\r\n                start[payee] = block.timestamp;\r\n            }\r\n        }\r\n        else if (isOwner()){\r\n            if(!scientistOk[payee]){\r\n                scientistOk[payee] = true;\r\n                start[payee] = block.timestamp;\r\n            }\r\n        }\r\n    }\r\n\r\n    function checkAndWithdraw(address payable payee) internal view returns(bool) {\r\n        bool escrow = false;\r\n        if (investorOk[payee] && scientistOk[payee]) {\r\n            escrow = true;\r\n        }\r\n        return escrow;\r\n    }\r\n    \r\n    function returnDeposit(address payable payee) internal {\r\n        uint value = balanceDeposit[payee];\r\n        balanceDeposit[payee] = 0;\r\n        payee.transfer(value);\r\n        emit Cancel(payee, value);\r\n    } \r\n\r\n    function check_opinion_Sc(address payable payee) public view returns(bool){\r\n        return scientistOk[payee];\r\n    }\r\n\r\n    function check_opinion_Inv(address payable payee) public view returns(bool){\r\n        return investorOk[payee];\r\n    }\r\n    \r\n    function cancel_scientist (address payable payee) public onlyOwner{\r\n        scientistOk[payee] = false;\r\n    }\r\n\r\n    function cancel_payee() public {\r\n        require(balanceDeposit[_msgSender()] != 0, 'Escrow: you are not investor');\r\n        investorOk[_msgSender()]= false;\r\n        start[_msgSender()] = block.timestamp;\r\n    }\r\n\r\n    \r\n    function check(address payee) internal view returns(bool) {\r\n        bool escrow = false;\r\n        if ((((!investorOk[payee] && scientistOk[payee]) || (investorOk[payee] && !scientistOk[payee]) \r\n                                || (!investorOk[payee] && !scientistOk[payee]))) && block.timestamp >(start[payee] + 30 days)){\r\n            return escrow;\r\n        }\r\n        escrow = true;\r\n        return escrow;\r\n    }\r\n}\r\n\r\n\r\ncontract SimpleToken_IERC20 is Context{\r\n    using SafeMath for uint256;\r\n\r\n    string public name;\r\n    string public symbol;\r\n    uint8 public decimals;\r\n    uint public _totalSupply;\r\n    \r\n    mapping (address => uint256) private _balances; //    \r\n\r\n    mapping (address => mapping (address => uint256)) private _allowances;\r\n    \r\n    event Transfer(address indexed from, address indexed to, uint256 value);\r\n    event Approval(address indexed owner, address indexed spender, uint256 value);\r\n\r\n    constructor (uint totalSuply, string memory _symbol, string memory _name, uint8 _decimals) public {\r\n        _mint(_msgSender(), totalSuply);\r\n        symbol = _symbol;\r\n        name = _name;\r\n        decimals = _decimals;\r\n    }\r\n\r\n    function totalSupply() public view returns (uint256) {\r\n        return _totalSupply.sub(_balances[address(0)]);\r\n    }\r\n\r\n    function balanceOf(address account) public view returns (uint256) {\r\n        return _balances[account];\r\n    }\r\n\r\n    function transfer(address recipient, uint256 amount) public virtual returns (bool) {\r\n        _transfer(_msgSender(), recipient, amount);\r\n        return true;\r\n    }\r\n    \r\n    function allowance(address owner, address spender) public view virtual returns (uint256) {\r\n        return _allowances[owner][spender];\r\n    }\r\n\r\n    function approve(address owner, address spender, uint256 value) public virtual returns (bool) {\r\n        require(balanceOf(owner) >= value, 'token: you does not have so many tokens');\r\n        _approve(owner, spender, value);\r\n        return true;\r\n    }\r\n    \r\n    function transferFrom(address sender, address recipient, uint256 amount) public virtual returns (bool) {\r\n    \trequire(_allowances[sender][msg.sender] >= amount, \"don`t have allowances\");\r\n        _transfer(sender, recipient, amount);\r\n        _approve(sender, _msgSender(), _allowances[sender][_msgSender()].sub(amount));\r\n        return true;\r\n    }\r\n\r\n    function increaseAllowance(address __owner, address spender, uint256 addedValue) public virtual returns (bool) {\r\n        require(balanceOf(__owner)>=  _allowances[__owner][spender].add(addedValue), 'token: you does not have so many tokens');\r\n        _approve(__owner, spender, _allowances[__owner][spender].add(addedValue));\r\n        return true;\r\n    }\r\n\r\n    function decreaseAllowance(address __owner, address spender, uint256 subtractedValue) public virtual returns (bool) {\r\n  \t    require(_allowances[__owner][spender] >= subtractedValue, \"don`t have allowance\");\r\n        _approve(__owner, spender, _allowances[__owner][spender].sub(subtractedValue));\r\n        return true;\r\n    }\r\n\r\n    function _transfer(address sender, address recipient, uint256 amount) internal virtual {\r\n        require(sender != address(0), \"ERC20: transfer from the zero address\");\r\n        require(recipient != address(0), \"ERC20: transfer to the zero address\");\r\n        \r\n        _balances[sender] = _balances[sender].sub(amount);\r\n        _balances[recipient] = _balances[recipient].add(amount);\r\n        _approve(recipient, recipient, _balances[recipient]);\r\n        emit Transfer(sender, recipient, amount);\r\n    }\r\n\r\n    function _approve(address owner, address spender, uint256 value) internal {  \r\n        require(owner != address(0), \"ERC20: approve from the zero address\");\r\n        require(spender != address(0), \"ERC20: approve to the zero address\");\r\n\r\n        _allowances[owner][spender] = value;\r\n        emit Approval(owner, spender, value);\r\n    }\r\n    \r\n    function _mint(address account, uint256 amount) internal virtual {\r\n        require(account != address(0), \"ERC20: mint to the zero address\");\r\n        _totalSupply = _totalSupply.add(amount);\r\n        _balances[account] = _balances[account].add(amount);\r\n        emit Transfer(address(0), account, amount);\r\n    }\r\n    \r\n    function _burn(address account, uint256 amount) internal virtual {\r\n        require(account != address(0), \"ERC20: burn from the zero address\");\r\n\r\n        _balances[account] = _balances[account].sub(amount);\r\n        _totalSupply = _totalSupply.sub(amount);\r\n        emit Transfer(account, address(0), amount);\r\n    }\r\n\r\n    function _burnFrom(address account, uint256 amount) internal virtual {\r\n        _burn(account, amount);\r\n        _approve(account, _msgSender(), _allowances[account][_msgSender()].sub(amount));\r\n    }\r\n}\r\n\r\n\r\ncontract Crowdsale is Escrow, ReentrancyGuard{\r\n    \r\n    using SafeMath for uint256;\r\n\r\n    SimpleToken_IERC20 private _token; \r\n\r\n    address payable private _wallet; \r\n\r\n    uint256 private _rate;  \r\n\r\n    uint256 public _weiRaised;\r\n    \r\n    mapping(address => uint256) private _contributions;\r\n    address[] _investors;\r\n \r\n    event ClaimedTokens(address indexed _token, address indexed _controller, uint _amount);\r\n\r\n    event TokensPurchased(address indexed purchaser, address indexed beneficiary, uint256 value, uint256 amount);\r\n    \r\n    receive() external payable  {\r\n        buyTokens(_msgSender());\r\n    }\r\n    \r\n    constructor(uint total_, string memory symbol, string memory name, uint8 decimals, address payable wallet, uint rate) public{\r\n        _token = new SimpleToken_IERC20(total_, symbol, name, decimals);\r\n        _wallet = wallet;\r\n        _rate = rate;\r\n    }\r\n    \r\n\r\n    function totalSupply() public view returns(uint) {\r\n        return _token.totalSupply(); \r\n    }\r\n    \r\n    function balanceOf(address account) public view returns(uint) {\r\n        return _token.balanceOf(account);\r\n    }\r\n    \r\n    function allowance(address owner, address spender) public view returns (uint256) {\r\n        return _token.allowance(owner, spender);\r\n    }\r\n\r\n    function approve(address spender, uint256 value) public returns (bool) {\r\n        return _token.approve(_msgSender(), spender, value);\r\n    }\r\n    \r\n    function increaseAllowance(address spender, uint256 addedValue) public returns (bool) {\r\n        return _token.increaseAllowance(_msgSender(), spender, addedValue); \r\n    }\r\n\r\n    function decreaseAllowance(address spender, uint256 subtractedValue) public returns (bool) {\r\n        return _token.decreaseAllowance(_msgSender(),spender, subtractedValue);\r\n    }\r\n    \r\n    function token() public view returns (SimpleToken_IERC20) {\r\n        return _token;\r\n    }\r\n\r\n    function wallet() public view returns (address payable) {\r\n        return _wallet;\r\n    }\r\n\r\n    function rate() public view returns (uint256) {\r\n        return _rate;\r\n    }\r\n\r\n    function weiRaised() public view returns (uint256) {\r\n        return _weiRaised;\r\n    }\r\n    \r\n    function buyTokens(address beneficiary) public nonReentrant payable {//\r\n        uint256 weiAmount;\r\n        if (balanceDeposit[beneficiary] != 0 ) {\r\n            weiAmount = balanceDeposit[beneficiary];\r\n            balanceDeposit[beneficiary] = 0; \r\n        }\r\n        else {\r\n            weiAmount = msg.value;\r\n        }\r\n        _preValidatePurchase(beneficiary, weiAmount);\r\n\r\n        uint256 tokens = _getTokenAmount(weiAmount);\r\n\r\n        _weiRaised = _weiRaised.add(weiAmount);\r\n\r\n        _processPurchase(beneficiary, tokens);\r\n        _updatePurchasingState(beneficiary, weiAmount);\r\n        emit TokensPurchased(_msgSender(), beneficiary, weiAmount, tokens);\r\n        \r\n        if(beneficiary == owner()){\r\n            _investors.push(_msgSender());\r\n        }\r\n        _forwardFunds(weiAmount);\r\n        _postValidatePurchase(beneficiary, weiAmount);\r\n    }\r\n    \r\n    function _postValidatePurchase(address beneficiary, uint256 weiAmount) internal {\r\n        _contributions[beneficiary] = _contributions[beneficiary].add(weiAmount);\r\n        _investors.push(beneficiary);\r\n    }\r\n    \r\n    function _preValidatePurchase(address beneficiary, uint256 weiAmount) internal view {\r\n        require(beneficiary != address(0), \"Crowdsale: beneficiary is the zero address\");\r\n        require(weiAmount != 0, \"Crowdsale: weiAmount is 0\");\r\n        this;\r\n    }\r\n\r\n    function _updatePurchasingState(address beneficiary, uint256 weiAmount) internal {\r\n     \r\n    }\r\n    \r\n    function _deliverTokens(address beneficiary, uint256 tokenAmount) internal {\r\n        _token.transfer(beneficiary, tokenAmount);\r\n    }\r\n\r\n    function _processPurchase(address beneficiary, uint256 tokenAmount) internal {\r\n        _deliverTokens(beneficiary, tokenAmount);\r\n    }\r\n\r\n    function _getTokenAmount(uint256 weiAmount) internal view returns (uint) {\r\n        return weiAmount.mul(_rate);\r\n    }\r\n\r\n    function _forwardFunds(uint weiAmount) internal {\r\n        _wallet.transfer(weiAmount);\r\n    }\r\n    \r\n    /*\r\n     @notice This method can be used by the owner to extract mistakenly\r\n     sent tokens to this contract.\r\n     @param _token The address of the token contract that you want to recover\r\n     set to 0 in case you want to extract ether.\r\n    */\r\n    function claimTokens(address __token) public onlyOwner {\r\n        if (__token == address(0x0)) {\r\n            _wallet.transfer(address(this).balance); //\r\n            return;\r\n        }\r\n\r\n        SimpleToken_IERC20 token1 = SimpleToken_IERC20(__token);\r\n        uint256 balance = token1.balanceOf(address(this));\r\n        token1.transfer(owner(), balance);\r\n        emit ClaimedTokens(__token, owner(), balance);\r\n    }\r\n    \r\n    function withdraw(address payable payee) internal {\r\n        buyTokens(payee);\r\n        emit Withdrawn(payee, balanceDeposit[payee]);\r\n    }\r\n    \r\n    function doEscrow(address payable payee) public checkSender(payee) {\r\n        if(super.checkAndWithdraw(payee)){\r\n            withdraw(payee);\r\n            emit Withdrawn(payee, balanceDeposit[payee]); \r\n        }\r\n        else if (check(payee)) {\r\n            returnDeposit(payee);\r\n        }\r\n    }\r\n    \r\n    modifier checkSender(address payable payee){\r\n        require( _msgSender() == owner() || _msgSender() == payee, \"Escrow: You don`t have permisson for this function\");\r\n        _;\r\n    }\r\n    \r\n} \r\n\r\n",
  "sourcePath": "C:\\Users\\zheny\\Desktop\\constructor\\constructor\\src\\contracts\\Stage.sol",
  "compiler": {
    "name": "solc",
    "version": "0.6.12+commit.27d51765.Emscripten.clang"
  },
  "schemaVersion": "3.0.23",
  "updatedAt": "2020-08-04T06:31:54.943Z",
  "devdoc": {
    "kind": "dev",
    "methods": {},
    "version": 1
  },
  "userdoc": {
    "kind": "user",
    "methods": {},
    "version": 1
  }
}