{
  "contractName": "Crowdsale",
  "abi": [
    {
      "inputs": [
        {
          "internalType": "uint256",
          "name": "totalSupply",
          "type": "uint256"
        },
        {
          "internalType": "string",
          "name": "symbol",
          "type": "string"
        },
        {
          "internalType": "string",
          "name": "name",
          "type": "string"
        },
        {
          "internalType": "uint8",
          "name": "decimals",
          "type": "uint8"
        },
        {
          "internalType": "address payable",
          "name": "wallet",
          "type": "address"
        },
        {
          "internalType": "uint256",
          "name": "rate",
          "type": "uint256"
        }
      ],
      "stateMutability": "nonpayable",
      "type": "constructor"
    },
    {
      "anonymous": false,
      "inputs": [
        {
          "indexed": true,
          "internalType": "address",
          "name": "_token",
          "type": "address"
        },
        {
          "indexed": true,
          "internalType": "address",
          "name": "_controller",
          "type": "address"
        },
        {
          "indexed": false,
          "internalType": "uint256",
          "name": "_amount",
          "type": "uint256"
        }
      ],
      "name": "ClaimedTokens",
      "type": "event"
    },
    {
      "anonymous": false,
      "inputs": [
        {
          "indexed": true,
          "internalType": "address",
          "name": "previousOwner",
          "type": "address"
        },
        {
          "indexed": true,
          "internalType": "address",
          "name": "newOwner",
          "type": "address"
        }
      ],
      "name": "OwnershipTransferred",
      "type": "event"
    },
    {
      "anonymous": false,
      "inputs": [
        {
          "indexed": true,
          "internalType": "address",
          "name": "purchaser",
          "type": "address"
        },
        {
          "indexed": true,
          "internalType": "address",
          "name": "beneficiary",
          "type": "address"
        },
        {
          "indexed": false,
          "internalType": "uint256",
          "name": "value",
          "type": "uint256"
        },
        {
          "indexed": false,
          "internalType": "uint256",
          "name": "amount",
          "type": "uint256"
        }
      ],
      "name": "TokensPurchased",
      "type": "event"
    },
    {
      "inputs": [
        {
          "internalType": "uint256",
          "name": "value",
          "type": "uint256"
        }
      ],
      "name": "_setMIN",
      "outputs": [
        {
          "internalType": "uint256",
          "name": "",
          "type": "uint256"
        }
      ],
      "stateMutability": "nonpayable",
      "type": "function"
    },
    {
      "inputs": [],
      "name": "_weiRaised",
      "outputs": [
        {
          "internalType": "uint256",
          "name": "",
          "type": "uint256"
        }
      ],
      "stateMutability": "view",
      "type": "function"
    },
    {
      "inputs": [],
      "name": "isOwner",
      "outputs": [
        {
          "internalType": "bool",
          "name": "",
          "type": "bool"
        }
      ],
      "stateMutability": "view",
      "type": "function"
    },
    {
      "inputs": [],
      "name": "owner",
      "outputs": [
        {
          "internalType": "address",
          "name": "",
          "type": "address"
        }
      ],
      "stateMutability": "view",
      "type": "function"
    },
    {
      "inputs": [],
      "name": "renounceOwnership",
      "outputs": [],
      "stateMutability": "nonpayable",
      "type": "function"
    },
    {
      "inputs": [
        {
          "internalType": "address",
          "name": "newOwner",
          "type": "address"
        }
      ],
      "name": "transferOwnership",
      "outputs": [],
      "stateMutability": "nonpayable",
      "type": "function"
    },
    {
      "stateMutability": "payable",
      "type": "receive"
    },
    {
      "inputs": [],
      "name": "get_balance",
      "outputs": [
        {
          "internalType": "uint256",
          "name": "",
          "type": "uint256"
        }
      ],
      "stateMutability": "view",
      "type": "function"
    },
    {
      "inputs": [
        {
          "internalType": "uint256",
          "name": "a",
          "type": "uint256"
        }
      ],
      "name": "get_ether",
      "outputs": [],
      "stateMutability": "nonpayable",
      "type": "function"
    },
    {
      "inputs": [],
      "name": "totalSupply",
      "outputs": [
        {
          "internalType": "uint256",
          "name": "",
          "type": "uint256"
        }
      ],
      "stateMutability": "view",
      "type": "function"
    },
    {
      "inputs": [
        {
          "internalType": "address",
          "name": "account",
          "type": "address"
        }
      ],
      "name": "balanceOf",
      "outputs": [
        {
          "internalType": "uint256",
          "name": "",
          "type": "uint256"
        }
      ],
      "stateMutability": "view",
      "type": "function"
    },
    {
      "inputs": [
        {
          "internalType": "address",
          "name": "owner",
          "type": "address"
        },
        {
          "internalType": "address",
          "name": "spender",
          "type": "address"
        }
      ],
      "name": "allowance",
      "outputs": [
        {
          "internalType": "uint256",
          "name": "",
          "type": "uint256"
        }
      ],
      "stateMutability": "view",
      "type": "function"
    },
    {
      "inputs": [
        {
          "internalType": "address",
          "name": "spender",
          "type": "address"
        },
        {
          "internalType": "uint256",
          "name": "value",
          "type": "uint256"
        }
      ],
      "name": "approve",
      "outputs": [
        {
          "internalType": "bool",
          "name": "",
          "type": "bool"
        }
      ],
      "stateMutability": "nonpayable",
      "type": "function"
    },
    {
      "inputs": [
        {
          "internalType": "address",
          "name": "spender",
          "type": "address"
        },
        {
          "internalType": "uint256",
          "name": "addedValue",
          "type": "uint256"
        }
      ],
      "name": "increaseAllowance",
      "outputs": [
        {
          "internalType": "bool",
          "name": "",
          "type": "bool"
        }
      ],
      "stateMutability": "nonpayable",
      "type": "function"
    },
    {
      "inputs": [
        {
          "internalType": "address",
          "name": "spender",
          "type": "address"
        },
        {
          "internalType": "uint256",
          "name": "subtractedValue",
          "type": "uint256"
        }
      ],
      "name": "decreaseAllowance",
      "outputs": [
        {
          "internalType": "bool",
          "name": "",
          "type": "bool"
        }
      ],
      "stateMutability": "nonpayable",
      "type": "function"
    },
    {
      "inputs": [],
      "name": "token",
      "outputs": [
        {
          "internalType": "contract SimpleToken_IERC20",
          "name": "",
          "type": "address"
        }
      ],
      "stateMutability": "view",
      "type": "function"
    },
    {
      "inputs": [],
      "name": "wallet",
      "outputs": [
        {
          "internalType": "address payable",
          "name": "",
          "type": "address"
        }
      ],
      "stateMutability": "view",
      "type": "function"
    },
    {
      "inputs": [],
      "name": "rate",
      "outputs": [
        {
          "internalType": "uint256",
          "name": "",
          "type": "uint256"
        }
      ],
      "stateMutability": "view",
      "type": "function"
    },
    {
      "inputs": [],
      "name": "weiRaised",
      "outputs": [
        {
          "internalType": "uint256",
          "name": "",
          "type": "uint256"
        }
      ],
      "stateMutability": "view",
      "type": "function"
    },
    {
      "inputs": [
        {
          "internalType": "address",
          "name": "beneficiary",
          "type": "address"
        }
      ],
      "name": "buyTokens",
      "outputs": [],
      "stateMutability": "payable",
      "type": "function"
    },
    {
      "inputs": [
        {
          "internalType": "address",
          "name": "__token",
          "type": "address"
        }
      ],
      "name": "claimTokens",
      "outputs": [],
      "stateMutability": "nonpayable",
      "type": "function"
    }
  ],
  "bytecode": "0x60806040523480156200001157600080fd5b5060405162003b9b38038062003b9b833981810160405260c08110156200003757600080fd5b8101908080519060200190929190805160405193929190846401000000008211156200006257600080fd5b838201915060208201858111156200007957600080fd5b82518660018202830111640100000000821117156200009757600080fd5b8083526020830192505050908051906020019080838360005b83811015620000cd578082015181840152602081019050620000b0565b50505050905090810190601f168015620000fb5780820380516001836020036101000a031916815260200191505b50604052602001805160405193929190846401000000008211156200011f57600080fd5b838201915060208201858111156200013657600080fd5b82518660018202830111640100000000821117156200015457600080fd5b8083526020830192505050908051906020019080838360005b838110156200018a5780820151818401526020810190506200016d565b50505050905090810190601f168015620001b85780820380516001836020036101000a031916815260200191505b506040526020018051906020019092919080519060200190929190805190602001909291905050506000620001f26200046160201b60201c565b9050806000806101000a81548173ffffffffffffffffffffffffffffffffffffffff021916908373ffffffffffffffffffffffffffffffffffffffff1602179055508073ffffffffffffffffffffffffffffffffffffffff16600073ffffffffffffffffffffffffffffffffffffffff167f8be0079c531659141344cd1fd0a4f28419497f9722a3daafe3b4186f6b6457e060405160405180910390a3506001600260006101000a81548160ff02191690831515021790555085858585604051620002bd9062000469565b8085815260200180602001806020018460ff168152602001838103835286818151815260200191508051906020019080838360005b838110156200030f578082015181840152602081019050620002f2565b50505050905090810190601f1680156200033d5780820380516001836020036101000a031916815260200191505b50838103825285818151815260200191508051906020019080838360005b83811015620003785780820151818401526020810190506200035b565b50505050905090810190601f168015620003a65780820380516001836020036101000a031916815260200191505b509650505050505050604051809103906000f080158015620003cc573d6000803e3d6000fd5b50600260016101000a81548173ffffffffffffffffffffffffffffffffffffffff021916908373ffffffffffffffffffffffffffffffffffffffff1602179055508060048190555081600360006101000a81548173ffffffffffffffffffffffffffffffffffffffff021916908373ffffffffffffffffffffffffffffffffffffffff16021790555050505050505062000477565b600033905090565b611991806200220a83390190565b611d8380620004876000396000f3fe6080604052600436106101235760003560e01c806394a5aa8d116100a0578063df8de3e711610064578063df8de3e714610554578063ec8ac4d8146105a5578063f08e67a5146105e9578063f2fde38b14610638578063fc0c546a146106895761013a565b806394a5aa8d146103cd578063a457c2d7146103f8578063c1cfb99a14610469578063d2edfcae14610494578063dd62ed3e146104cf5761013a565b8063521eb273116100e7578063521eb273146102a257806370a08231146102e3578063715018a6146103485780638da5cb5b1461035f5780638f32d59b146103a05761013a565b8063095ea7b31461013f57806318160ddd146101b05780632c4e722e146101db57806339509351146102065780634042b66f146102775761013a565b3661013a576101386101336106ca565b6106d2565b005b600080fd5b34801561014b57600080fd5b506101986004803603604081101561016257600080fd5b81019080803573ffffffffffffffffffffffffffffffffffffffff16906020019092919080359060200190929190505050610980565b60405180821515815260200191505060405180910390f35b3480156101bc57600080fd5b506101c5610a7d565b6040518082815260200191505060405180910390f35b3480156101e757600080fd5b506101f0610b27565b6040518082815260200191505060405180910390f35b34801561021257600080fd5b5061025f6004803603604081101561022957600080fd5b81019080803573ffffffffffffffffffffffffffffffffffffffff16906020019092919080359060200190929190505050610b31565b60405180821515815260200191505060405180910390f35b34801561028357600080fd5b5061028c610c2e565b6040518082815260200191505060405180910390f35b3480156102ae57600080fd5b506102b7610c38565b604051808273ffffffffffffffffffffffffffffffffffffffff16815260200191505060405180910390f35b3480156102ef57600080fd5b506103326004803603602081101561030657600080fd5b81019080803573ffffffffffffffffffffffffffffffffffffffff169060200190929190505050610c62565b6040518082815260200191505060405180910390f35b34801561035457600080fd5b5061035d610d2f565b005b34801561036b57600080fd5b50610374610e67565b604051808273ffffffffffffffffffffffffffffffffffffffff16815260200191505060405180910390f35b3480156103ac57600080fd5b506103b5610e90565b60405180821515815260200191505060405180910390f35b3480156103d957600080fd5b506103e2610eee565b6040518082815260200191505060405180910390f35b34801561040457600080fd5b506104516004803603604081101561041b57600080fd5b81019080803573ffffffffffffffffffffffffffffffffffffffff16906020019092919080359060200190929190505050610ef4565b60405180821515815260200191505060405180910390f35b34801561047557600080fd5b5061047e610ff1565b6040518082815260200191505060405180910390f35b3480156104a057600080fd5b506104cd600480360360208110156104b757600080fd5b8101908080359060200190929190505050610ff9565b005b3480156104db57600080fd5b5061053e600480360360408110156104f257600080fd5b81019080803573ffffffffffffffffffffffffffffffffffffffff169060200190929190803573ffffffffffffffffffffffffffffffffffffffff169060200190929190505050611138565b6040518082815260200191505060405180910390f35b34801561056057600080fd5b506105a36004803603602081101561057757600080fd5b81019080803573ffffffffffffffffffffffffffffffffffffffff169060200190929190505050611224565b005b6105e7600480360360208110156105bb57600080fd5b81019080803573ffffffffffffffffffffffffffffffffffffffff1690602001909291905050506106d2565b005b3480156105f557600080fd5b506106226004803603602081101561060c57600080fd5b8101908080359060200190929190505050611512565b6040518082815260200191505060405180910390f35b34801561064457600080fd5b506106876004803603602081101561065b57600080fd5b81019080803573ffffffffffffffffffffffffffffffffffffffff1690602001909291905050506115f9565b005b34801561069557600080fd5b5061069e61167f565b604051808273ffffffffffffffffffffffffffffffffffffffff16815260200191505060405180910390f35b600033905090565b600260009054906101000a900460ff16610754576040517f08c379a000000000000000000000000000000000000000000000000000000000815260040180806020018281038252601f8152602001807f5265656e7472616e637947756172643a207265656e7472616e742063616c6c0081525060200191505060405180910390fd5b6000600260006101000a81548160ff0219169083151502179055506107776116a9565b6107e9576040517f08c379a00000000000000000000000000000000000000000000000000000000081526004018080602001828103825260158152602001807f4361707065643a20756e636f72726563742073756d000000000000000000000081525060200191505060405180910390fd5b60003490506107f882826116d5565b6000610803826117d6565b905061081a826005546117f490919063ffffffff16565b60058190555061082a838261187c565b610834838361188a565b8273ffffffffffffffffffffffffffffffffffffffff166108536106ca565b73ffffffffffffffffffffffffffffffffffffffff167f6faf93231a456e552dbc9961f58d9713ee4f2e69d15f1975b050ef0911053a7b8484604051808381526020018281526020019250505060405180910390a36108b0610e67565b73ffffffffffffffffffffffffffffffffffffffff168373ffffffffffffffffffffffffffffffffffffffff16141561094e5760076108ed6106ca565b9080600181540180825580915050600190039060005260206000200160009091909190916101000a81548173ffffffffffffffffffffffffffffffffffffffff021916908373ffffffffffffffffffffffffffffffffffffffff1602179055505b61095661188e565b61096083836118f9565b50506001600260006101000a81548160ff02191690831515021790555050565b6000600260019054906101000a900473ffffffffffffffffffffffffffffffffffffffff1673ffffffffffffffffffffffffffffffffffffffff1663e1f21c676109c86106ca565b85856040518463ffffffff1660e01b8152600401808473ffffffffffffffffffffffffffffffffffffffff1681526020018373ffffffffffffffffffffffffffffffffffffffff1681526020018281526020019350505050602060405180830381600087803b158015610a3a57600080fd5b505af1158015610a4e573d6000803e3d6000fd5b505050506040513d6020811015610a6457600080fd5b8101908080519060200190929190505050905092915050565b6000600260019054906101000a900473ffffffffffffffffffffffffffffffffffffffff1673ffffffffffffffffffffffffffffffffffffffff166318160ddd6040518163ffffffff1660e01b815260040160206040518083038186803b158015610ae757600080fd5b505afa158015610afb573d6000803e3d6000fd5b505050506040513d6020811015610b1157600080fd5b8101908080519060200190929190505050905090565b6000600454905090565b6000600260019054906101000a900473ffffffffffffffffffffffffffffffffffffffff1673ffffffffffffffffffffffffffffffffffffffff16636c43a2ca610b796106ca565b85856040518463ffffffff1660e01b8152600401808473ffffffffffffffffffffffffffffffffffffffff1681526020018373ffffffffffffffffffffffffffffffffffffffff1681526020018281526020019350505050602060405180830381600087803b158015610beb57600080fd5b505af1158015610bff573d6000803e3d6000fd5b505050506040513d6020811015610c1557600080fd5b8101908080519060200190929190505050905092915050565b6000600554905090565b6000600360009054906101000a900473ffffffffffffffffffffffffffffffffffffffff16905090565b6000600260019054906101000a900473ffffffffffffffffffffffffffffffffffffffff1673ffffffffffffffffffffffffffffffffffffffff166370a08231836040518263ffffffff1660e01b8152600401808273ffffffffffffffffffffffffffffffffffffffff16815260200191505060206040518083038186803b158015610ced57600080fd5b505afa158015610d01573d6000803e3d6000fd5b505050506040513d6020811015610d1757600080fd5b81019080805190602001909291905050509050919050565b610d37610e90565b610da9576040517f08c379a00000000000000000000000000000000000000000000000000000000081526004018080602001828103825260208152602001807f4f776e61626c653a2063616c6c6572206973206e6f7420746865206f776e657281525060200191505060405180910390fd5b600073ffffffffffffffffffffffffffffffffffffffff1660008054906101000a900473ffffffffffffffffffffffffffffffffffffffff1673ffffffffffffffffffffffffffffffffffffffff167f8be0079c531659141344cd1fd0a4f28419497f9722a3daafe3b4186f6b6457e060405160405180910390a360008060006101000a81548173ffffffffffffffffffffffffffffffffffffffff021916908373ffffffffffffffffffffffffffffffffffffffff160217905550565b60008060009054906101000a900473ffffffffffffffffffffffffffffffffffffffff16905090565b60008060009054906101000a900473ffffffffffffffffffffffffffffffffffffffff1673ffffffffffffffffffffffffffffffffffffffff16610ed26106ca565b73ffffffffffffffffffffffffffffffffffffffff1614905090565b60055481565b6000600260019054906101000a900473ffffffffffffffffffffffffffffffffffffffff1673ffffffffffffffffffffffffffffffffffffffff1663d73b1dc9610f3c6106ca565b85856040518463ffffffff1660e01b8152600401808473ffffffffffffffffffffffffffffffffffffffff1681526020018373ffffffffffffffffffffffffffffffffffffffff1681526020018281526020019350505050602060405180830381600087803b158015610fae57600080fd5b505af1158015610fc2573d6000803e3d6000fd5b505050506040513d6020811015610fd857600080fd5b8101908080519060200190929190505050905092915050565b600047905090565b611001610e90565b611073576040517f08c379a00000000000000000000000000000000000000000000000000000000081526004018080602001828103825260208152602001807f4f776e61626c653a2063616c6c6572206973206e6f7420746865206f776e657281525060200191505060405180910390fd5b478111156110cc576040517f08c379a0000000000000000000000000000000000000000000000000000000008152600401808060200182810382526023815260200180611cd96023913960400191505060405180910390fd5b600360009054906101000a900473ffffffffffffffffffffffffffffffffffffffff1673ffffffffffffffffffffffffffffffffffffffff166108fc829081150290604051600060405180830381858888f19350505050158015611134573d6000803e3d6000fd5b5050565b6000600260019054906101000a900473ffffffffffffffffffffffffffffffffffffffff1673ffffffffffffffffffffffffffffffffffffffff1663dd62ed3e84846040518363ffffffff1660e01b8152600401808373ffffffffffffffffffffffffffffffffffffffff1681526020018273ffffffffffffffffffffffffffffffffffffffff1681526020019250505060206040518083038186803b1580156111e157600080fd5b505afa1580156111f5573d6000803e3d6000fd5b505050506040513d602081101561120b57600080fd5b8101908080519060200190929190505050905092915050565b61122c610e90565b61129e576040517f08c379a00000000000000000000000000000000000000000000000000000000081526004018080602001828103825260208152602001807f4f776e61626c653a2063616c6c6572206973206e6f7420746865206f776e657281525060200191505060405180910390fd5b600073ffffffffffffffffffffffffffffffffffffffff168173ffffffffffffffffffffffffffffffffffffffff16141561134157600360009054906101000a900473ffffffffffffffffffffffffffffffffffffffff1673ffffffffffffffffffffffffffffffffffffffff166108fc479081150290604051600060405180830381858888f1935050505015801561133b573d6000803e3d6000fd5b5061150f565b600081905060008173ffffffffffffffffffffffffffffffffffffffff166370a08231306040518263ffffffff1660e01b8152600401808273ffffffffffffffffffffffffffffffffffffffff16815260200191505060206040518083038186803b1580156113af57600080fd5b505afa1580156113c3573d6000803e3d6000fd5b505050506040513d60208110156113d957600080fd5b810190808051906020019092919050505090508173ffffffffffffffffffffffffffffffffffffffff1663a9059cbb611410610e67565b836040518363ffffffff1660e01b8152600401808373ffffffffffffffffffffffffffffffffffffffff16815260200182815260200192505050602060405180830381600087803b15801561146457600080fd5b505af1158015611478573d6000803e3d6000fd5b505050506040513d602081101561148e57600080fd5b8101908080519060200190929190505050506114a8610e67565b73ffffffffffffffffffffffffffffffffffffffff168373ffffffffffffffffffffffffffffffffffffffff167ff931edb47c50b4b4104c187b5814a9aef5f709e17e2ecf9617e860cacade929c836040518082815260200191505060405180910390a350505b50565b600061151c610e90565b61158e576040517f08c379a00000000000000000000000000000000000000000000000000000000081526004018080602001828103825260208152602001807f4f776e61626c653a2063616c6c6572206973206e6f7420746865206f776e657281525060200191505060405180910390fd5b60008210156115e8576040517f08c379a0000000000000000000000000000000000000000000000000000000008152600401808060200182810382526028815260200180611cfc6028913960400191505060405180910390fd5b816001819055506001549050919050565b611601610e90565b611673576040517f08c379a00000000000000000000000000000000000000000000000000000000081526004018080602001828103825260208152602001807f4f776e61626c653a2063616c6c6572206973206e6f7420746865206f776e657281525060200191505060405180910390fd5b61167c816119f5565b50565b6000600260019054906101000a900473ffffffffffffffffffffffffffffffffffffffff16905090565b600080600154141580156116bf57506001543410155b156116cd57600190506116d2565b600090505b90565b600073ffffffffffffffffffffffffffffffffffffffff168273ffffffffffffffffffffffffffffffffffffffff16141561175b576040517f08c379a000000000000000000000000000000000000000000000000000000000815260040180806020018281038252602a815260200180611d24602a913960400191505060405180910390fd5b60008114156117d2576040517f08c379a00000000000000000000000000000000000000000000000000000000081526004018080602001828103825260198152602001807f43726f776473616c653a20776569416d6f756e7420697320300000000000000081525060200191505060405180910390fd5b5050565b60006117ed60045483611b3890919063ffffffff16565b9050919050565b600080828401905083811015611872576040517f08c379a000000000000000000000000000000000000000000000000000000000815260040180806020018281038252601b8152602001807f536166654d6174683a206164646974696f6e206f766572666c6f77000000000081525060200191505060405180910390fd5b8091505092915050565b6118868282611bbe565b5050565b5050565b600360009054906101000a900473ffffffffffffffffffffffffffffffffffffffff1673ffffffffffffffffffffffffffffffffffffffff166108fc349081150290604051600060405180830381858888f193505050501580156118f6573d6000803e3d6000fd5b50565b61194b81600660008573ffffffffffffffffffffffffffffffffffffffff1673ffffffffffffffffffffffffffffffffffffffff168152602001908152602001600020546117f490919063ffffffff16565b600660008473ffffffffffffffffffffffffffffffffffffffff1673ffffffffffffffffffffffffffffffffffffffff168152602001908152602001600020819055506007829080600181540180825580915050600190039060005260206000200160009091909190916101000a81548173ffffffffffffffffffffffffffffffffffffffff021916908373ffffffffffffffffffffffffffffffffffffffff1602179055505050565b600073ffffffffffffffffffffffffffffffffffffffff168173ffffffffffffffffffffffffffffffffffffffff161415611a7b576040517f08c379a0000000000000000000000000000000000000000000000000000000008152600401808060200182810382526026815260200180611c926026913960400191505060405180910390fd5b8073ffffffffffffffffffffffffffffffffffffffff1660008054906101000a900473ffffffffffffffffffffffffffffffffffffffff1673ffffffffffffffffffffffffffffffffffffffff167f8be0079c531659141344cd1fd0a4f28419497f9722a3daafe3b4186f6b6457e060405160405180910390a3806000806101000a81548173ffffffffffffffffffffffffffffffffffffffff021916908373ffffffffffffffffffffffffffffffffffffffff16021790555050565b600080831415611b4b5760009050611bb8565b6000828402905082848281611b5c57fe5b0414611bb3576040517f08c379a0000000000000000000000000000000000000000000000000000000008152600401808060200182810382526021815260200180611cb86021913960400191505060405180910390fd5b809150505b92915050565b600260019054906101000a900473ffffffffffffffffffffffffffffffffffffffff1673ffffffffffffffffffffffffffffffffffffffff1663a9059cbb83836040518363ffffffff1660e01b8152600401808373ffffffffffffffffffffffffffffffffffffffff16815260200182815260200192505050602060405180830381600087803b158015611c5157600080fd5b505af1158015611c65573d6000803e3d6000fd5b505050506040513d6020811015611c7b57600080fd5b810190808051906020019092919050505050505056fe4f776e61626c653a206e6577206f776e657220697320746865207a65726f2061646472657373536166654d6174683a206d756c7469706c69636174696f6e206f766572666c6f77636f6e747261637420646f6573206e6f74206861766520656e6f7567682065746865724d696e3a207468652073756d2063616e6e6f7420626520736d616c6c6572207468616e204e554c4c43726f776473616c653a2062656e656669636961727920697320746865207a65726f2061646472657373a264697066735822122089085b2bc469cf05a272b609354d5376a245d48ab443dedf7b248ef1f3df731064736f6c634300060c003360806040523480156200001157600080fd5b506040516200199138038062001991833981810160405260808110156200003757600080fd5b8101908080519060200190929190805160405193929190846401000000008211156200006257600080fd5b838201915060208201858111156200007957600080fd5b82518660018202830111640100000000821117156200009757600080fd5b8083526020830192505050908051906020019080838360005b83811015620000cd578082015181840152602081019050620000b0565b50505050905090810190601f168015620000fb5780820380516001836020036101000a031916815260200191505b50604052602001805160405193929190846401000000008211156200011f57600080fd5b838201915060208201858111156200013657600080fd5b82518660018202830111640100000000821117156200015457600080fd5b8083526020830192505050908051906020019080838360005b838110156200018a5780820151818401526020810190506200016d565b50505050905090810190601f168015620001b85780820380516001836020036101000a031916815260200191505b5060405260200180519060200190929190505050620001ed620001e06200024460201b60201c565b856200024c60201b60201c565b826001908051906020019062000205929190620004a1565b5081600090805190602001906200021e929190620004a1565b5080600260006101000a81548160ff021916908360ff1602179055505050505062000547565b600033905090565b600073ffffffffffffffffffffffffffffffffffffffff168273ffffffffffffffffffffffffffffffffffffffff161415620002f0576040517f08c379a000000000000000000000000000000000000000000000000000000000815260040180806020018281038252601f8152602001807f45524332303a206d696e7420746f20746865207a65726f20616464726573730081525060200191505060405180910390fd5b6200030c816003546200041860201b62000d551790919060201c565b6003819055506200036b81600460008573ffffffffffffffffffffffffffffffffffffffff1673ffffffffffffffffffffffffffffffffffffffff168152602001908152602001600020546200041860201b62000d551790919060201c565b600460008473ffffffffffffffffffffffffffffffffffffffff1673ffffffffffffffffffffffffffffffffffffffff168152602001908152602001600020819055508173ffffffffffffffffffffffffffffffffffffffff16600073ffffffffffffffffffffffffffffffffffffffff167fddf252ad1be2c89b69c2b068fc378daa952ba7f163c4a11628f55a4df523b3ef836040518082815260200191505060405180910390a35050565b60008082840190508381101562000497576040517f08c379a000000000000000000000000000000000000000000000000000000000815260040180806020018281038252601b8152602001807f536166654d6174683a206164646974696f6e206f766572666c6f77000000000081525060200191505060405180910390fd5b8091505092915050565b828054600181600116156101000203166002900490600052602060002090601f016020900481019282601f10620004e457805160ff191683800117855562000515565b8280016001018555821562000515579182015b8281111562000514578251825591602001919060010190620004f7565b5b50905062000524919062000528565b5090565b5b808211156200054357600081600090555060010162000529565b5090565b61143a80620005576000396000f3fe608060405234801561001057600080fd5b50600436106100b45760003560e01c806370a082311161007157806370a08231146102a157806395d89b41146102f9578063a9059cbb1461037c578063d73b1dc9146103e0578063dd62ed3e14610464578063e1f21c67146104dc576100b4565b806306fdde03146100b957806318160ddd1461013c57806323b872dd1461015a578063313ce567146101de5780633eaaf86b146101ff5780636c43a2ca1461021d575b600080fd5b6100c1610560565b6040518080602001828103825283818151815260200191508051906020019080838360005b838110156101015780820151818401526020810190506100e6565b50505050905090810190601f16801561012e5780820380516001836020036101000a031916815260200191505b509250505060405180910390f35b6101446105fe565b6040518082815260200191505060405180910390f35b6101c66004803603606081101561017057600080fd5b81019080803573ffffffffffffffffffffffffffffffffffffffff169060200190929190803573ffffffffffffffffffffffffffffffffffffffff16906020019092919080359060200190929190505050610659565b60405180821515815260200191505060405180910390f35b6101e661080a565b604051808260ff16815260200191505060405180910390f35b61020761081d565b6040518082815260200191505060405180910390f35b6102896004803603606081101561023357600080fd5b81019080803573ffffffffffffffffffffffffffffffffffffffff169060200190929190803573ffffffffffffffffffffffffffffffffffffffff16906020019092919080359060200190929190505050610823565b60405180821515815260200191505060405180910390f35b6102e3600480360360208110156102b757600080fd5b81019080803573ffffffffffffffffffffffffffffffffffffffff1690602001909291905050506109b8565b6040518082815260200191505060405180910390f35b610301610a01565b6040518080602001828103825283818151815260200191508051906020019080838360005b83811015610341578082015181840152602081019050610326565b50505050905090810190601f16801561036e5780820380516001836020036101000a031916815260200191505b509250505060405180910390f35b6103c86004803603604081101561039257600080fd5b81019080803573ffffffffffffffffffffffffffffffffffffffff16906020019092919080359060200190929190505050610a9f565b60405180821515815260200191505060405180910390f35b61044c600480360360608110156103f657600080fd5b81019080803573ffffffffffffffffffffffffffffffffffffffff169060200190929190803573ffffffffffffffffffffffffffffffffffffffff16906020019092919080359060200190929190505050610abd565b60405180821515815260200191505060405180910390f35b6104c66004803603604081101561047a57600080fd5b81019080803573ffffffffffffffffffffffffffffffffffffffff169060200190929190803573ffffffffffffffffffffffffffffffffffffffff169060200190929190505050610c55565b6040518082815260200191505060405180910390f35b610548600480360360608110156104f257600080fd5b81019080803573ffffffffffffffffffffffffffffffffffffffff169060200190929190803573ffffffffffffffffffffffffffffffffffffffff16906020019092919080359060200190929190505050610cdc565b60405180821515815260200191505060405180910390f35b60008054600181600116156101000203166002900480601f0160208091040260200160405190810160405280929190818152602001828054600181600116156101000203166002900480156105f65780601f106105cb576101008083540402835291602001916105f6565b820191906000526020600020905b8154815290600101906020018083116105d957829003601f168201915b505050505081565b6000610654600460008073ffffffffffffffffffffffffffffffffffffffff1673ffffffffffffffffffffffffffffffffffffffff16815260200190815260200160002054600354610ddd90919063ffffffff16565b905090565b600081600560008673ffffffffffffffffffffffffffffffffffffffff1673ffffffffffffffffffffffffffffffffffffffff16815260200190815260200160002060003373ffffffffffffffffffffffffffffffffffffffff1673ffffffffffffffffffffffffffffffffffffffff16815260200190815260200160002054101561074d576040517f08c379a00000000000000000000000000000000000000000000000000000000081526004018080602001828103825260158152602001807f646f6e6074206861766520616c6c6f77616e636573000000000000000000000081525060200191505060405180910390fd5b610758848484610e66565b6107ff84610764611150565b6107fa85600560008a73ffffffffffffffffffffffffffffffffffffffff1673ffffffffffffffffffffffffffffffffffffffff16815260200190815260200160002060006107b1611150565b73ffffffffffffffffffffffffffffffffffffffff1673ffffffffffffffffffffffffffffffffffffffff16815260200190815260200160002054610ddd90919063ffffffff16565b611158565b600190509392505050565b600260009054906101000a900460ff1681565b60035481565b60006108b482600560008773ffffffffffffffffffffffffffffffffffffffff1673ffffffffffffffffffffffffffffffffffffffff16815260200190815260200160002060008673ffffffffffffffffffffffffffffffffffffffff1673ffffffffffffffffffffffffffffffffffffffff16815260200190815260200160002054610d5590919063ffffffff16565b6108bd856109b8565b1015610914576040517f08c379a00000000000000000000000000000000000000000000000000000000081526004018080602001828103825260278152602001806113de6027913960400191505060405180910390fd5b6109ad84846109a885600560008a73ffffffffffffffffffffffffffffffffffffffff1673ffffffffffffffffffffffffffffffffffffffff16815260200190815260200160002060008973ffffffffffffffffffffffffffffffffffffffff1673ffffffffffffffffffffffffffffffffffffffff16815260200190815260200160002054610d5590919063ffffffff16565b611158565b600190509392505050565b6000600460008373ffffffffffffffffffffffffffffffffffffffff1673ffffffffffffffffffffffffffffffffffffffff168152602001908152602001600020549050919050565b60018054600181600116156101000203166002900480601f016020809104026020016040519081016040528092919081815260200182805460018160011615610100020316600290048015610a975780601f10610a6c57610100808354040283529160200191610a97565b820191906000526020600020905b815481529060010190602001808311610a7a57829003601f168201915b505050505081565b6000610ab3610aac611150565b8484610e66565b6001905092915050565b600081600560008673ffffffffffffffffffffffffffffffffffffffff1673ffffffffffffffffffffffffffffffffffffffff16815260200190815260200160002060008573ffffffffffffffffffffffffffffffffffffffff1673ffffffffffffffffffffffffffffffffffffffff168152602001908152602001600020541015610bb1576040517f08c379a00000000000000000000000000000000000000000000000000000000081526004018080602001828103825260148152602001807f646f6e6074206861766520616c6c6f77616e636500000000000000000000000081525060200191505060405180910390fd5b610c4a8484610c4585600560008a73ffffffffffffffffffffffffffffffffffffffff1673ffffffffffffffffffffffffffffffffffffffff16815260200190815260200160002060008973ffffffffffffffffffffffffffffffffffffffff1673ffffffffffffffffffffffffffffffffffffffff16815260200190815260200160002054610ddd90919063ffffffff16565b611158565b600190509392505050565b6000600560008473ffffffffffffffffffffffffffffffffffffffff1673ffffffffffffffffffffffffffffffffffffffff16815260200190815260200160002060008373ffffffffffffffffffffffffffffffffffffffff1673ffffffffffffffffffffffffffffffffffffffff16815260200190815260200160002054905092915050565b600081610ce8856109b8565b1015610d3f576040517f08c379a00000000000000000000000000000000000000000000000000000000081526004018080602001828103825260278152602001806113de6027913960400191505060405180910390fd5b610d4a848484611158565b600190509392505050565b600080828401905083811015610dd3576040517f08c379a000000000000000000000000000000000000000000000000000000000815260040180806020018281038252601b8152602001807f536166654d6174683a206164646974696f6e206f766572666c6f77000000000081525060200191505060405180910390fd5b8091505092915050565b600082821115610e55576040517f08c379a000000000000000000000000000000000000000000000000000000000815260040180806020018281038252601e8152602001807f536166654d6174683a207375627472616374696f6e206f766572666c6f77000081525060200191505060405180910390fd5b600082840390508091505092915050565b600073ffffffffffffffffffffffffffffffffffffffff168373ffffffffffffffffffffffffffffffffffffffff161415610eec576040517f08c379a00000000000000000000000000000000000000000000000000000000081526004018080602001828103825260258152602001806113956025913960400191505060405180910390fd5b600073ffffffffffffffffffffffffffffffffffffffff168273ffffffffffffffffffffffffffffffffffffffff161415610f72576040517f08c379a00000000000000000000000000000000000000000000000000000000081526004018080602001828103825260238152602001806113506023913960400191505060405180910390fd5b610fc481600460008673ffffffffffffffffffffffffffffffffffffffff1673ffffffffffffffffffffffffffffffffffffffff16815260200190815260200160002054610ddd90919063ffffffff16565b600460008573ffffffffffffffffffffffffffffffffffffffff1673ffffffffffffffffffffffffffffffffffffffff1681526020019081526020016000208190555061105981600460008573ffffffffffffffffffffffffffffffffffffffff1673ffffffffffffffffffffffffffffffffffffffff16815260200190815260200160002054610d5590919063ffffffff16565b600460008473ffffffffffffffffffffffffffffffffffffffff1673ffffffffffffffffffffffffffffffffffffffff168152602001908152602001600020819055506110e68283600460008673ffffffffffffffffffffffffffffffffffffffff1673ffffffffffffffffffffffffffffffffffffffff16815260200190815260200160002054611158565b8173ffffffffffffffffffffffffffffffffffffffff168373ffffffffffffffffffffffffffffffffffffffff167fddf252ad1be2c89b69c2b068fc378daa952ba7f163c4a11628f55a4df523b3ef836040518082815260200191505060405180910390a3505050565b600033905090565b600073ffffffffffffffffffffffffffffffffffffffff168373ffffffffffffffffffffffffffffffffffffffff1614156111de576040517f08c379a00000000000000000000000000000000000000000000000000000000081526004018080602001828103825260248152602001806113ba6024913960400191505060405180910390fd5b600073ffffffffffffffffffffffffffffffffffffffff168273ffffffffffffffffffffffffffffffffffffffff161415611264576040517f08c379a00000000000000000000000000000000000000000000000000000000081526004018080602001828103825260228152602001806113736022913960400191505060405180910390fd5b80600560008573ffffffffffffffffffffffffffffffffffffffff1673ffffffffffffffffffffffffffffffffffffffff16815260200190815260200160002060008473ffffffffffffffffffffffffffffffffffffffff1673ffffffffffffffffffffffffffffffffffffffff168152602001908152602001600020819055508173ffffffffffffffffffffffffffffffffffffffff168373ffffffffffffffffffffffffffffffffffffffff167f8c5be1e5ebec7d5bd14f71427d1e84f3dd0314c0f7b2291e5b200ac8c7c3b925836040518082815260200191505060405180910390a350505056fe45524332303a207472616e7366657220746f20746865207a65726f206164647265737345524332303a20617070726f766520746f20746865207a65726f206164647265737345524332303a207472616e736665722066726f6d20746865207a65726f206164647265737345524332303a20617070726f76652066726f6d20746865207a65726f2061646472657373746f6b656e3a20796f7520646f6573206e6f74206861766520736f206d616e7920746f6b656e73a2646970667358221220bffdd9679e847242e6ce6346bf534263e823dba8007260d30e6d562997791b6e64736f6c634300060c0033",
  "source": "pragma solidity ^0.6.0;\r\n\r\nlibrary SafeMath {\r\n   \r\n    function add(uint256 a, uint256 b) internal pure returns (uint256) {\r\n        uint256 c = a + b;\r\n        require(c >= a, \"SafeMath: addition overflow\");\r\n\r\n        return c;\r\n    }\r\n\r\n    function sub(uint256 a, uint256 b) internal pure returns (uint256) {\r\n        require(b <= a, \"SafeMath: subtraction overflow\");\r\n        uint256 c = a - b;\r\n\r\n        return c;\r\n    }\r\n\r\n    function mul(uint256 a, uint256 b) internal pure returns (uint256) {\r\n        if (a == 0) {\r\n            return 0;\r\n        }\r\n\r\n        uint256 c = a * b;\r\n        require(c / a == b, \"SafeMath: multiplication overflow\");\r\n\r\n        return c;\r\n    }\r\n\r\n    function div(uint256 a, uint256 b) internal pure returns (uint256) {\r\n        require(b > 0, \"SafeMath: division by zero\");\r\n        uint256 c = a / b;\r\n        \r\n        return c;\r\n    }\r\n\r\n    function mod(uint256 a, uint256 b) internal pure returns (uint256) {\r\n        require(b != 0, \"SafeMath: modulo by zero\");\r\n        return a % b;\r\n    }\r\n}\r\n\r\ncontract ReentrancyGuard {\r\n    bool private _notEntered;\r\n\r\n    constructor () internal {\r\n        _notEntered = true;\r\n    }\r\n\r\n    modifier nonReentrant() {\r\n    \r\n        require(_notEntered, \"ReentrancyGuard: reentrant call\");\r\n        _notEntered = false;\r\n\r\n        _;\r\n        _notEntered = true;\r\n    }\r\n}\r\n\r\ncontract Context {\r\n    \r\n    constructor () internal { }\r\n\r\n    function _msgSender() internal view returns (address payable) {\r\n        return msg.sender;\r\n    }\r\n\r\n    function _msgData() internal view returns (bytes memory) {\r\n        this; \r\n        return msg.data;\r\n    }\r\n}\r\n\r\ncontract Ownable is Context {\r\n    address private _owner;\r\n\r\n    event OwnershipTransferred(address indexed previousOwner, address indexed newOwner);\r\n\r\n    constructor () internal {\r\n        address msgSender = _msgSender();\r\n        _owner = msgSender;\r\n        emit OwnershipTransferred(address(0), msgSender);\r\n    }\r\n\r\n    function owner() public view returns (address) {\r\n        return _owner;\r\n    }\r\n\r\n    modifier onlyOwner() {\r\n        require(isOwner(), \"Ownable: caller is not the owner\");\r\n        _;\r\n    }\r\n\r\n    function isOwner() public view returns (bool) {\r\n        return _msgSender() == _owner;\r\n    }\r\n\r\n    function renounceOwnership() public onlyOwner {\r\n        emit OwnershipTransferred(_owner, address(0));\r\n        _owner = address(0);\r\n    }\r\n\r\n    function transferOwnership(address newOwner) public onlyOwner {\r\n        _transferOwnership(newOwner);\r\n    }\r\n\r\n    function _transferOwnership(address newOwner) internal {\r\n        require(newOwner != address(0), \"Ownable: new owner is the zero address\");\r\n        emit OwnershipTransferred(_owner, newOwner);\r\n        _owner = newOwner;\r\n    }\r\n}\r\n\r\ncontract SimpleToken_IERC20 is Context{\r\n    using SafeMath for uint256;\r\n\r\n    string public name;\r\n    string public symbol;\r\n    uint8 public decimals;\r\n    uint public _totalSupply;\r\n    \r\n    mapping (address => uint256) private _balances; //    \r\n\r\n    mapping (address => mapping (address => uint256)) private _allowances;\r\n    \r\n    event Transfer(address indexed from, address indexed to, uint256 value);\r\n    event Approval(address indexed owner, address indexed spender, uint256 value);\r\n\r\n    constructor (uint totalSuply, string memory _symbol, string memory _name, uint8 _decimals) public {\r\n        _mint(_msgSender(), totalSuply);\r\n        symbol = _symbol;\r\n        name = _name;\r\n        decimals = _decimals;\r\n    }\r\n\r\n    function totalSupply() public view returns (uint256) {\r\n        return _totalSupply.sub(_balances[address(0)]);\r\n    }\r\n\r\n    function balanceOf(address account) public view returns (uint256) {\r\n        return _balances[account];\r\n    }\r\n\r\n    function transfer(address recipient, uint256 amount) public virtual returns (bool) {\r\n        _transfer(_msgSender(), recipient, amount);\r\n        return true;\r\n    }\r\n    \r\n    function allowance(address owner, address spender) public view virtual returns (uint256) {\r\n        return _allowances[owner][spender];\r\n    }\r\n\r\n    function approve(address owner, address spender, uint256 value) public virtual returns (bool) {\r\n        require(balanceOf(owner) >= value, 'token: you does not have so many tokens');\r\n        _approve(owner, spender, value);\r\n        return true;\r\n    }\r\n    \r\n    function transferFrom(address sender, address recipient, uint256 amount) public virtual returns (bool) {\r\n    \trequire(_allowances[sender][msg.sender] >= amount, \"don`t have allowances\");\r\n        _transfer(sender, recipient, amount);\r\n        _approve(sender, _msgSender(), _allowances[sender][_msgSender()].sub(amount));\r\n        return true;\r\n    }\r\n\r\n    function increaseAllowance(address __owner, address spender, uint256 addedValue) public virtual returns (bool) {\r\n        require(balanceOf(__owner)>=  _allowances[__owner][spender].add(addedValue), 'token: you does not have so many tokens');\r\n        _approve(__owner, spender, _allowances[__owner][spender].add(addedValue));\r\n        return true;\r\n    }\r\n\r\n    function decreaseAllowance(address __owner, address spender, uint256 subtractedValue) public virtual returns (bool) {\r\n  \t    require(_allowances[__owner][spender] >= subtractedValue, \"don`t have allowance\");\r\n        _approve(__owner, spender, _allowances[__owner][spender].sub(subtractedValue));\r\n        return true;\r\n    }\r\n\r\n    function _transfer(address sender, address recipient, uint256 amount) internal virtual {\r\n        require(sender != address(0), \"ERC20: transfer from the zero address\");\r\n        require(recipient != address(0), \"ERC20: transfer to the zero address\");\r\n        \r\n        _balances[sender] = _balances[sender].sub(amount);\r\n        _balances[recipient] = _balances[recipient].add(amount);\r\n        _approve(recipient, recipient, _balances[recipient]);\r\n        emit Transfer(sender, recipient, amount);\r\n    }\r\n\r\n    function _approve(address owner, address spender, uint256 value) internal {  \r\n        require(owner != address(0), \"ERC20: approve from the zero address\");\r\n        require(spender != address(0), \"ERC20: approve to the zero address\");\r\n\r\n        _allowances[owner][spender] = value;\r\n        emit Approval(owner, spender, value);\r\n    }\r\n    \r\n    function _mint(address account, uint256 amount) internal virtual {\r\n        require(account != address(0), \"ERC20: mint to the zero address\");\r\n        _totalSupply = _totalSupply.add(amount);\r\n        _balances[account] = _balances[account].add(amount);\r\n        emit Transfer(address(0), account, amount);\r\n    }\r\n    \r\n    function _burn(address account, uint256 amount) internal virtual {\r\n        require(account != address(0), \"ERC20: burn from the zero address\");\r\n\r\n        _balances[account] = _balances[account].sub(amount);\r\n        _totalSupply = _totalSupply.sub(amount);\r\n        emit Transfer(account, address(0), amount);\r\n    }\r\n\r\n    function _burnFrom(address account, uint256 amount) internal virtual {\r\n        _burn(account, amount);\r\n        _approve(account, _msgSender(), _allowances[account][_msgSender()].sub(amount));\r\n    }\r\n}\r\n\r\ncontract Min is Ownable {\r\n\r\n    uint private _min;\r\n     \r\n    function _setMIN(uint value) public onlyOwner returns(uint)  {\r\n        require(value >=0 , \"Min: the sum cannot be smaller than NULL\");\r\n        _min = value;\r\n        return _min;\r\n    }\r\n   \r\n    function check() internal returns(bool) {\r\n        if ( _min != 0 && msg.value >= _min ) {return true;}\r\n        else { return false; }\r\n    }\r\n} \r\n\r\ncontract Crowdsale is Min, ReentrancyGuard{\r\n    using SafeMath for uint256;\r\n\r\n    SimpleToken_IERC20 private _token; // from constructor\r\n\r\n    address payable private _wallet; // from constructor\r\n\r\n    uint256 private _rate; // from constructor\r\n\r\n    uint256 public _weiRaised;\r\n\r\n    mapping(address => uint256) private _contributions;\r\n    address[] _investors;\r\n \r\n    event ClaimedTokens(address indexed _token, address indexed _controller, uint _amount);\r\n\r\n    event TokensPurchased(address indexed purchaser, address indexed beneficiary, uint256 value, uint256 amount);\r\n    \r\n    constructor( uint totalSupply, string memory symbol, string memory name, uint8 decimals, address payable wallet,uint rate) public {\r\n        _token = new SimpleToken_IERC20(totalSupply, symbol,name, decimals);\r\n        _rate = rate;\r\n        _wallet = wallet;\r\n    }\r\n    \r\n    receive() external payable  {\r\n        buyTokens(_msgSender());\r\n    }\r\n\r\n    function get_balance() external view returns(uint){\r\n        return address(this).balance;\r\n    }\r\n\r\n    function get_ether(uint a) external onlyOwner{\r\n        require(a <= address(this).balance, 'contract does not have enough ether');\r\n        _wallet.transfer(a);\r\n    }\r\n\r\n    function totalSupply() public view returns(uint) {\r\n        return _token.totalSupply();\r\n    }\r\n\r\n    function balanceOf(address account) public view returns(uint) {\r\n        return _token.balanceOf(account);\r\n    }\r\n\r\n    function allowance(address owner, address spender) public view returns (uint256) {\r\n        return _token.allowance(owner, spender);\r\n    }\r\n \r\n    function approve(address spender, uint256 value) public returns (bool) {\r\n        return _token.approve(_msgSender(), spender, value);\r\n    }\r\n   \r\n    function increaseAllowance(address spender, uint256 addedValue) public returns (bool) {\r\n        return _token.increaseAllowance(_msgSender(), spender, addedValue);\r\n    }\r\n \r\n    function decreaseAllowance(address spender, uint256 subtractedValue) public returns (bool) {\r\n        return _token.decreaseAllowance(_msgSender(), spender, subtractedValue);\r\n    }\r\n   \r\n    function token() public view returns (SimpleToken_IERC20) {\r\n        return _token;\r\n    }\r\n \r\n    function wallet() public view returns (address payable) {\r\n        return _wallet;\r\n    }\r\n \r\n    function rate() public view returns (uint256) {\r\n        return _rate;\r\n    }\r\n \r\n    function weiRaised() public view returns (uint256) {\r\n        return _weiRaised;\r\n    }\r\n\r\n    function buyTokens(address beneficiary) public nonReentrant checking() payable {//\r\n        uint256 weiAmount;\r\n        weiAmount = msg.value;\r\n        \r\n        _preValidatePurchase(beneficiary, weiAmount);\r\n\r\n        uint256 tokens = _getTokenAmount(weiAmount);\r\n\r\n        _weiRaised = _weiRaised.add(weiAmount);\r\n\r\n        _processPurchase(beneficiary, tokens);\r\n        _updatePurchasingState(beneficiary, weiAmount);\r\n        emit TokensPurchased(_msgSender(), beneficiary, weiAmount, tokens);\r\n        \r\n        if(beneficiary == owner()){\r\n            _investors.push(_msgSender());\r\n        }\r\n        _forwardFunds();\r\n        _postValidatePurchase(beneficiary, weiAmount);\r\n    }\r\n\r\n    function _preValidatePurchase(address beneficiary, uint256 weiAmount) internal view {\r\n        require(beneficiary != address(0), \"Crowdsale: beneficiary is the zero address\");\r\n        require(weiAmount != 0, \"Crowdsale: weiAmount is 0\");\r\n        this;\r\n    }\r\n    \r\n    function _postValidatePurchase(address beneficiary, uint256 weiAmount) internal {\r\n        _contributions[beneficiary] = _contributions[beneficiary].add(weiAmount);\r\n        _investors.push(beneficiary);\r\n    }\r\n \r\n    function _updatePurchasingState(address beneficiary, uint256 weiAmount) internal {\r\n       \r\n    }\r\n   \r\n    function _deliverTokens(address beneficiary, uint256 tokenAmount) internal {\r\n        _token.transfer(beneficiary, tokenAmount);\r\n        \r\n    }\r\n \r\n    function _processPurchase(address beneficiary, uint256 tokenAmount) internal {\r\n        _deliverTokens(beneficiary, tokenAmount);\r\n    }\r\n \r\n    function _getTokenAmount(uint256 weiAmount) internal view returns (uint) {\r\n        return weiAmount.mul(_rate);\r\n\r\n    }\r\n \r\n    function _forwardFunds() internal {\r\n        _wallet.transfer(msg.value);\r\n    }\r\n    \r\n    /*\r\n     @notice This method can be used by the owner to extract mistakenly\r\n     sent tokens to this contract.\r\n     @param _token The address of the token contract that you want to recover\r\n     set to 0 in case you want to extract ether.\r\n    */\r\n    function claimTokens(address __token) public onlyOwner {\r\n        if (__token == address(0x0)) {\r\n            _wallet.transfer(address(this).balance); //\r\n            return;\r\n        }\r\n\r\n        SimpleToken_IERC20 token1 = SimpleToken_IERC20(__token);\r\n        uint256 balance = token1.balanceOf(address(this));\r\n        token1.transfer(owner(), balance);\r\n        emit ClaimedTokens(__token, owner(), balance);\r\n    }\r\n    \r\n    modifier checking() {\r\n        require(check(), \"Capped: uncorrect sum\");\r\n        _;\r\n    }\r\n}",
  "sourcePath": "C:\\Users\\zheny\\Desktop\\constructor\\constructor\\src\\contracts\\Min.sol",
  "compiler": {
    "name": "solc",
    "version": "0.6.12+commit.27d51765.Emscripten.clang"
  },
  "schemaVersion": "3.0.23",
  "updatedAt": "2020-08-06T17:35:31.815Z",
  "devdoc": {
    "kind": "dev",
    "methods": {},
    "version": 1
  },
  "userdoc": {
    "kind": "user",
    "methods": {},
    "version": 1
  }
}