{
  "contractName": "Crowdsale",
  "abi": [
    {
      "inputs": [
        {
          "internalType": "uint256",
          "name": "total_",
          "type": "uint256"
        },
        {
          "internalType": "string",
          "name": "symbol",
          "type": "string"
        },
        {
          "internalType": "string",
          "name": "name",
          "type": "string"
        },
        {
          "internalType": "uint8",
          "name": "decimals",
          "type": "uint8"
        },
        {
          "internalType": "address payable",
          "name": "wallet",
          "type": "address"
        }
      ],
      "stateMutability": "nonpayable",
      "type": "constructor"
    },
    {
      "anonymous": false,
      "inputs": [
        {
          "indexed": true,
          "internalType": "address",
          "name": "_token",
          "type": "address"
        },
        {
          "indexed": true,
          "internalType": "address",
          "name": "_controller",
          "type": "address"
        },
        {
          "indexed": false,
          "internalType": "uint256",
          "name": "_amount",
          "type": "uint256"
        }
      ],
      "name": "ClaimedTokens",
      "type": "event"
    },
    {
      "anonymous": false,
      "inputs": [
        {
          "indexed": true,
          "internalType": "address",
          "name": "previousOwner",
          "type": "address"
        },
        {
          "indexed": true,
          "internalType": "address",
          "name": "newOwner",
          "type": "address"
        }
      ],
      "name": "OwnershipTransferred",
      "type": "event"
    },
    {
      "anonymous": false,
      "inputs": [
        {
          "indexed": true,
          "internalType": "address",
          "name": "purchaser",
          "type": "address"
        },
        {
          "indexed": true,
          "internalType": "address",
          "name": "beneficiary",
          "type": "address"
        },
        {
          "indexed": false,
          "internalType": "uint256",
          "name": "value",
          "type": "uint256"
        },
        {
          "indexed": false,
          "internalType": "uint256",
          "name": "amount",
          "type": "uint256"
        }
      ],
      "name": "TokensPurchased",
      "type": "event"
    },
    {
      "inputs": [
        {
          "internalType": "uint256",
          "name": "i",
          "type": "uint256"
        }
      ],
      "name": "aimIsReached",
      "outputs": [
        {
          "internalType": "bool",
          "name": "",
          "type": "bool"
        }
      ],
      "stateMutability": "view",
      "type": "function"
    },
    {
      "inputs": [],
      "name": "getCurrentRate",
      "outputs": [
        {
          "internalType": "uint256",
          "name": "",
          "type": "uint256"
        }
      ],
      "stateMutability": "view",
      "type": "function"
    },
    {
      "inputs": [],
      "name": "isOwner",
      "outputs": [
        {
          "internalType": "bool",
          "name": "",
          "type": "bool"
        }
      ],
      "stateMutability": "view",
      "type": "function"
    },
    {
      "inputs": [],
      "name": "owner",
      "outputs": [
        {
          "internalType": "address",
          "name": "",
          "type": "address"
        }
      ],
      "stateMutability": "view",
      "type": "function"
    },
    {
      "inputs": [
        {
          "internalType": "uint256",
          "name": "i",
          "type": "uint256"
        }
      ],
      "name": "rateForStage",
      "outputs": [
        {
          "internalType": "uint256",
          "name": "",
          "type": "uint256"
        }
      ],
      "stateMutability": "view",
      "type": "function"
    },
    {
      "inputs": [],
      "name": "renounceOwnership",
      "outputs": [],
      "stateMutability": "nonpayable",
      "type": "function"
    },
    {
      "inputs": [
        {
          "internalType": "uint256",
          "name": "_aim",
          "type": "uint256"
        },
        {
          "internalType": "uint256",
          "name": "_rate",
          "type": "uint256"
        }
      ],
      "name": "setStage",
      "outputs": [],
      "stateMutability": "nonpayable",
      "type": "function"
    },
    {
      "inputs": [
        {
          "internalType": "address",
          "name": "newOwner",
          "type": "address"
        }
      ],
      "name": "transferOwnership",
      "outputs": [],
      "stateMutability": "nonpayable",
      "type": "function"
    },
    {
      "inputs": [],
      "name": "weiRaised",
      "outputs": [
        {
          "internalType": "uint256",
          "name": "",
          "type": "uint256"
        }
      ],
      "stateMutability": "view",
      "type": "function"
    },
    {
      "stateMutability": "payable",
      "type": "receive"
    },
    {
      "inputs": [
        {
          "internalType": "uint256",
          "name": "a",
          "type": "uint256"
        }
      ],
      "name": "get_ether",
      "outputs": [],
      "stateMutability": "nonpayable",
      "type": "function"
    },
    {
      "inputs": [],
      "name": "totalSupply",
      "outputs": [
        {
          "internalType": "uint256",
          "name": "",
          "type": "uint256"
        }
      ],
      "stateMutability": "view",
      "type": "function"
    },
    {
      "inputs": [
        {
          "internalType": "address",
          "name": "account",
          "type": "address"
        }
      ],
      "name": "balanceOf",
      "outputs": [
        {
          "internalType": "uint256",
          "name": "",
          "type": "uint256"
        }
      ],
      "stateMutability": "view",
      "type": "function"
    },
    {
      "inputs": [
        {
          "internalType": "address",
          "name": "owner",
          "type": "address"
        },
        {
          "internalType": "address",
          "name": "spender",
          "type": "address"
        }
      ],
      "name": "allowance",
      "outputs": [
        {
          "internalType": "uint256",
          "name": "",
          "type": "uint256"
        }
      ],
      "stateMutability": "view",
      "type": "function"
    },
    {
      "inputs": [
        {
          "internalType": "address",
          "name": "spender",
          "type": "address"
        },
        {
          "internalType": "uint256",
          "name": "value",
          "type": "uint256"
        }
      ],
      "name": "approve",
      "outputs": [
        {
          "internalType": "bool",
          "name": "",
          "type": "bool"
        }
      ],
      "stateMutability": "nonpayable",
      "type": "function"
    },
    {
      "inputs": [
        {
          "internalType": "address",
          "name": "spender",
          "type": "address"
        },
        {
          "internalType": "uint256",
          "name": "addedValue",
          "type": "uint256"
        }
      ],
      "name": "increaseAllowance",
      "outputs": [
        {
          "internalType": "bool",
          "name": "",
          "type": "bool"
        }
      ],
      "stateMutability": "nonpayable",
      "type": "function"
    },
    {
      "inputs": [
        {
          "internalType": "address",
          "name": "spender",
          "type": "address"
        },
        {
          "internalType": "uint256",
          "name": "subtractedValue",
          "type": "uint256"
        }
      ],
      "name": "decreaseAllowance",
      "outputs": [
        {
          "internalType": "bool",
          "name": "",
          "type": "bool"
        }
      ],
      "stateMutability": "nonpayable",
      "type": "function"
    },
    {
      "inputs": [],
      "name": "token",
      "outputs": [
        {
          "internalType": "contract SimpleToken_IERC20",
          "name": "",
          "type": "address"
        }
      ],
      "stateMutability": "view",
      "type": "function"
    },
    {
      "inputs": [],
      "name": "wallet",
      "outputs": [
        {
          "internalType": "address payable",
          "name": "",
          "type": "address"
        }
      ],
      "stateMutability": "view",
      "type": "function"
    },
    {
      "inputs": [
        {
          "internalType": "address",
          "name": "beneficiary",
          "type": "address"
        }
      ],
      "name": "buyTokens",
      "outputs": [],
      "stateMutability": "payable",
      "type": "function"
    },
    {
      "inputs": [
        {
          "internalType": "address",
          "name": "__token",
          "type": "address"
        }
      ],
      "name": "claimTokens",
      "outputs": [],
      "stateMutability": "nonpayable",
      "type": "function"
    }
  ],
  "bytecode": "0x608060405230600460006101000a81548173ffffffffffffffffffffffffffffffffffffffff021916908373ffffffffffffffffffffffffffffffffffffffff1602179055503480156200005257600080fd5b506040516200426838038062004268833981810160405260a08110156200007857600080fd5b810190808051906020019092919080516040519392919084640100000000821115620000a357600080fd5b83820191506020820185811115620000ba57600080fd5b8251866001820283011164010000000082111715620000d857600080fd5b8083526020830192505050908051906020019080838360005b838110156200010e578082015181840152602081019050620000f1565b50505050905090810190601f1680156200013c5780820380516001836020036101000a031916815260200191505b50604052602001805160405193929190846401000000008211156200016057600080fd5b838201915060208201858111156200017757600080fd5b82518660018202830111640100000000821117156200019557600080fd5b8083526020830192505050908051906020019080838360005b83811015620001cb578082015181840152602081019050620001ae565b50505050905090810190601f168015620001f95780820380516001836020036101000a031916815260200191505b5060405260200180519060200190929190805190602001909291905050506000620002296200047d60201b60201c565b9050806000806101000a81548173ffffffffffffffffffffffffffffffffffffffff021916908373ffffffffffffffffffffffffffffffffffffffff1602179055508073ffffffffffffffffffffffffffffffffffffffff16600073ffffffffffffffffffffffffffffffffffffffff167f8be0079c531659141344cd1fd0a4f28419497f9722a3daafe3b4186f6b6457e060405160405180910390a350600160028190555084848484604051620002e19062000485565b8085815260200180602001806020018460ff168152602001838103835286818151815260200191508051906020019080838360005b838110156200033357808201518184015260208101905062000316565b50505050905090810190601f168015620003615780820380516001836020036101000a031916815260200191505b50838103825285818151815260200191508051906020019080838360005b838110156200039c5780820151818401526020810190506200037f565b50505050905090810190601f168015620003ca5780820380516001836020036101000a031916815260200191505b509650505050505050604051809103906000f080158015620003f0573d6000803e3d6000fd5b50600360006101000a81548173ffffffffffffffffffffffffffffffffffffffff021916908373ffffffffffffffffffffffffffffffffffffffff16021790555080600560006101000a81548173ffffffffffffffffffffffffffffffffffffffff021916908373ffffffffffffffffffffffffffffffffffffffff160217905550505050505062000493565b600033905090565b6117a98062002abf83390190565b61261c80620004a36000396000f3fe6080604052600436106101235760003560e01c8063a457c2d7116100a0578063ec8ac4d811610064578063ec8ac4d8146105ba578063f2fde38b146105fe578063f7fb07b01461064f578063fc0c546a1461067a578063fda7ea1b146106bb5761013a565b8063a457c2d7146103e7578063cdcdeb6314610458578063d2edfcae146104a9578063dd62ed3e146104e4578063df8de3e7146105695761013a565b806355f7bde4116100e757806355f7bde4146102b857806370a08231146102fd578063715018a6146103625780638da5cb5b146103795780638f32d59b146103ba5761013a565b8063095ea7b31461013f57806318160ddd146101b057806339509351146101db5780634042b66f1461024c578063521eb273146102775761013a565b3661013a5761013861013361070a565b610712565b005b600080fd5b34801561014b57600080fd5b506101986004803603604081101561016257600080fd5b81019080803573ffffffffffffffffffffffffffffffffffffffff16906020019092919080359060200190929190505050610954565b60405180821515815260200191505060405180910390f35b3480156101bc57600080fd5b506101c5610a2c565b6040518082815260200191505060405180910390f35b3480156101e757600080fd5b50610234600480360360408110156101fe57600080fd5b81019080803573ffffffffffffffffffffffffffffffffffffffff16906020019092919080359060200190929190505050610ad6565b60405180821515815260200191505060405180910390f35b34801561025857600080fd5b50610261610bae565b6040518082815260200191505060405180910390f35b34801561028357600080fd5b5061028c610c55565b604051808273ffffffffffffffffffffffffffffffffffffffff16815260200191505060405180910390f35b3480156102c457600080fd5b506102fb600480360360408110156102db57600080fd5b810190808035906020019092919080359060200190929190505050610c7f565b005b34801561030957600080fd5b5061034c6004803603602081101561032057600080fd5b81019080803573ffffffffffffffffffffffffffffffffffffffff169060200190929190505050610f01565b6040518082815260200191505060405180910390f35b34801561036e57600080fd5b50610377610fce565b005b34801561038557600080fd5b5061038e611106565b604051808273ffffffffffffffffffffffffffffffffffffffff16815260200191505060405180910390f35b3480156103c657600080fd5b506103cf61112f565b60405180821515815260200191505060405180910390f35b3480156103f357600080fd5b506104406004803603604081101561040a57600080fd5b81019080803573ffffffffffffffffffffffffffffffffffffffff1690602001909291908035906020019092919050505061118d565b60405180821515815260200191505060405180910390f35b34801561046457600080fd5b506104916004803603602081101561047b57600080fd5b8101908080359060200190929190505050611265565b60405180821515815260200191505060405180910390f35b3480156104b557600080fd5b506104e2600480360360208110156104cc57600080fd5b81019080803590602001909291905050506113d8565b005b3480156104f057600080fd5b506105536004803603604081101561050757600080fd5b81019080803573ffffffffffffffffffffffffffffffffffffffff169060200190929190803573ffffffffffffffffffffffffffffffffffffffff169060200190929190505050611517565b6040518082815260200191505060405180910390f35b34801561057557600080fd5b506105b86004803603602081101561058c57600080fd5b81019080803573ffffffffffffffffffffffffffffffffffffffff169060200190929190505050611603565b005b6105fc600480360360208110156105d057600080fd5b81019080803573ffffffffffffffffffffffffffffffffffffffff169060200190929190505050610712565b005b34801561060a57600080fd5b5061064d6004803603602081101561062157600080fd5b81019080803573ffffffffffffffffffffffffffffffffffffffff1690602001909291905050506118f1565b005b34801561065b57600080fd5b50610664611977565b6040518082815260200191505060405180910390f35b34801561068657600080fd5b5061068f611aa1565b604051808273ffffffffffffffffffffffffffffffffffffffff16815260200191505060405180910390f35b3480156106c757600080fd5b506106f4600480360360208110156106de57600080fd5b8101908080359060200190929190505050611acb565b6040518082815260200191505060405180910390f35b600033905090565b60016002600082825401925050819055506000600254905060006001805490501461081857600161075160018080549050611c0e90919063ffffffff16565b8154811061075b57fe5b906000526020600020906005020160000154600161078760018080549050611c0e90919063ffffffff16565b8154811061079157fe5b9060005260206000209060050201600201541115610817576040517f08c379a00000000000000000000000000000000000000000000000000000000081526004018080602001828103825260158152602001807f53746167653a2061696d2069732072656163686564000000000000000000000081525060200191505060405180910390fd5b5b60003490506108278382611c97565b600061083282611d98565b905061083d82611dbb565b6108478482611e1f565b6108518483611e2d565b8373ffffffffffffffffffffffffffffffffffffffff1661087061070a565b73ffffffffffffffffffffffffffffffffffffffff167f6faf93231a456e552dbc9961f58d9713ee4f2e69d15f1975b050ef0911053a7b8484604051808381526020018281526020019250505060405180910390a36108cd611e31565b6108d78483611e9c565b50506002548114610950576040517f08c379a000000000000000000000000000000000000000000000000000000000815260040180806020018281038252601f8152602001807f5265656e7472616e637947756172643a207265656e7472616e742063616c6c0081525060200191505060405180910390fd5b5050565b6000600360009054906101000a900473ffffffffffffffffffffffffffffffffffffffff1673ffffffffffffffffffffffffffffffffffffffff1663095ea7b384846040518363ffffffff1660e01b8152600401808373ffffffffffffffffffffffffffffffffffffffff16815260200182815260200192505050602060405180830381600087803b1580156109e957600080fd5b505af11580156109fd573d6000803e3d6000fd5b505050506040513d6020811015610a1357600080fd5b8101908080519060200190929190505050905092915050565b6000600360009054906101000a900473ffffffffffffffffffffffffffffffffffffffff1673ffffffffffffffffffffffffffffffffffffffff166318160ddd6040518163ffffffff1660e01b815260040160206040518083038186803b158015610a9657600080fd5b505afa158015610aaa573d6000803e3d6000fd5b505050506040513d6020811015610ac057600080fd5b8101908080519060200190929190505050905090565b6000600360009054906101000a900473ffffffffffffffffffffffffffffffffffffffff1673ffffffffffffffffffffffffffffffffffffffff16633950935184846040518363ffffffff1660e01b8152600401808373ffffffffffffffffffffffffffffffffffffffff16815260200182815260200192505050602060405180830381600087803b158015610b6b57600080fd5b505af1158015610b7f573d6000803e3d6000fd5b505050506040513d6020811015610b9557600080fd5b8101908080519060200190929190505050905092915050565b6000806001805490501415610c0e576040517f08c379a000000000000000000000000000000000000000000000000000000000815260040180806020018281038252602e8152602001806124d1602e913960400191505060405180910390fd5b6000805b600180549050811015610c4d578160018281548110610c2d57fe5b906000526020600020906005020160020154019150600181019050610c12565b508091505090565b6000600460009054906101000a900473ffffffffffffffffffffffffffffffffffffffff16905090565b610c8761112f565b610cf9576040517f08c379a00000000000000000000000000000000000000000000000000000000081526004018080602001828103825260208152602001807f4f776e61626c653a2063616c6c6572206973206e6f7420746865206f776e657281525060200191505060405180910390fd5b600060018054905014610d8957610d166001808054905003611265565b610d88576040517f08c379a00000000000000000000000000000000000000000000000000000000081526004018080602001828103825260198152602001807f53746167653a2061696d206973206e6f7420726561636865640000000000000081525060200191505060405180910390fd5b5b6000821415610e00576040517f08c379a00000000000000000000000000000000000000000000000000000000081526004018080602001828103825260198152602001807f53746167653a2061696d2063616e6e6f74206265204e554c4c0000000000000081525060200191505060405180910390fd5b6000811415610e77576040517f08c379a000000000000000000000000000000000000000000000000000000000815260040180806020018281038252601a8152602001807f53746167653a20726174652063616e6e6f74206265204e554c4c00000000000081525060200191505060405180910390fd5b610e7f6123bd565b828160000181815250508181602001818152505060018190806001815401808255809150506001900390600052602060002090600502016000909190919091506000820151816000015560208201518160010155604082015181600201556060820151816004019080519060200190610ef99291906123e5565b505050505050565b6000600360009054906101000a900473ffffffffffffffffffffffffffffffffffffffff1673ffffffffffffffffffffffffffffffffffffffff166370a08231836040518263ffffffff1660e01b8152600401808273ffffffffffffffffffffffffffffffffffffffff16815260200191505060206040518083038186803b158015610f8c57600080fd5b505afa158015610fa0573d6000803e3d6000fd5b505050506040513d6020811015610fb657600080fd5b81019080805190602001909291905050509050919050565b610fd661112f565b611048576040517f08c379a00000000000000000000000000000000000000000000000000000000081526004018080602001828103825260208152602001807f4f776e61626c653a2063616c6c6572206973206e6f7420746865206f776e657281525060200191505060405180910390fd5b600073ffffffffffffffffffffffffffffffffffffffff1660008054906101000a900473ffffffffffffffffffffffffffffffffffffffff1673ffffffffffffffffffffffffffffffffffffffff167f8be0079c531659141344cd1fd0a4f28419497f9722a3daafe3b4186f6b6457e060405160405180910390a360008060006101000a81548173ffffffffffffffffffffffffffffffffffffffff021916908373ffffffffffffffffffffffffffffffffffffffff160217905550565b60008060009054906101000a900473ffffffffffffffffffffffffffffffffffffffff16905090565b60008060009054906101000a900473ffffffffffffffffffffffffffffffffffffffff1673ffffffffffffffffffffffffffffffffffffffff1661117161070a565b73ffffffffffffffffffffffffffffffffffffffff1614905090565b6000600360009054906101000a900473ffffffffffffffffffffffffffffffffffffffff1673ffffffffffffffffffffffffffffffffffffffff1663a457c2d784846040518363ffffffff1660e01b8152600401808373ffffffffffffffffffffffffffffffffffffffff16815260200182815260200192505050602060405180830381600087803b15801561122257600080fd5b505af1158015611236573d6000803e3d6000fd5b505050506040513d602081101561124c57600080fd5b8101908080519060200190929190505050905092915050565b600081600060018054905014156112c7576040517f08c379a00000000000000000000000000000000000000000000000000000000081526004018080602001828103825260218152602001806125c66021913960400191505060405180910390fd5b6000811015611321576040517f08c379a00000000000000000000000000000000000000000000000000000000081526004018080602001828103825260268152602001806125a06026913960400191505060405180910390fd5b6001808054905003811115611381576040517f08c379a00000000000000000000000000000000000000000000000000000000081526004018080602001828103825260338152602001806124ff6033913960400191505060405180910390fd5b6001838154811061138e57fe5b906000526020600020906005020160000154600184815481106113ad57fe5b906000526020600020906005020160020154106113cd57600191506113d2565b600091505b50919050565b6113e061112f565b611452576040517f08c379a00000000000000000000000000000000000000000000000000000000081526004018080602001828103825260208152602001807f4f776e61626c653a2063616c6c6572206973206e6f7420746865206f776e657281525060200191505060405180910390fd5b478111156114ab576040517f08c379a00000000000000000000000000000000000000000000000000000000081526004018080602001828103825260238152602001806125536023913960400191505060405180910390fd5b600560009054906101000a900473ffffffffffffffffffffffffffffffffffffffff1673ffffffffffffffffffffffffffffffffffffffff166108fc829081150290604051600060405180830381858888f19350505050158015611513573d6000803e3d6000fd5b5050565b6000600360009054906101000a900473ffffffffffffffffffffffffffffffffffffffff1673ffffffffffffffffffffffffffffffffffffffff1663dd62ed3e84846040518363ffffffff1660e01b8152600401808373ffffffffffffffffffffffffffffffffffffffff1681526020018273ffffffffffffffffffffffffffffffffffffffff1681526020019250505060206040518083038186803b1580156115c057600080fd5b505afa1580156115d4573d6000803e3d6000fd5b505050506040513d60208110156115ea57600080fd5b8101908080519060200190929190505050905092915050565b61160b61112f565b61167d576040517f08c379a00000000000000000000000000000000000000000000000000000000081526004018080602001828103825260208152602001807f4f776e61626c653a2063616c6c6572206973206e6f7420746865206f776e657281525060200191505060405180910390fd5b600073ffffffffffffffffffffffffffffffffffffffff168173ffffffffffffffffffffffffffffffffffffffff16141561172057600460009054906101000a900473ffffffffffffffffffffffffffffffffffffffff1673ffffffffffffffffffffffffffffffffffffffff166108fc479081150290604051600060405180830381858888f1935050505015801561171a573d6000803e3d6000fd5b506118ee565b600081905060008173ffffffffffffffffffffffffffffffffffffffff166370a08231306040518263ffffffff1660e01b8152600401808273ffffffffffffffffffffffffffffffffffffffff16815260200191505060206040518083038186803b15801561178e57600080fd5b505afa1580156117a2573d6000803e3d6000fd5b505050506040513d60208110156117b857600080fd5b810190808051906020019092919050505090508173ffffffffffffffffffffffffffffffffffffffff1663a9059cbb6117ef611106565b836040518363ffffffff1660e01b8152600401808373ffffffffffffffffffffffffffffffffffffffff16815260200182815260200192505050602060405180830381600087803b15801561184357600080fd5b505af1158015611857573d6000803e3d6000fd5b505050506040513d602081101561186d57600080fd5b810190808051906020019092919050505050611887611106565b73ffffffffffffffffffffffffffffffffffffffff168373ffffffffffffffffffffffffffffffffffffffff167ff931edb47c50b4b4104c187b5814a9aef5f709e17e2ecf9617e860cacade929c836040518082815260200191505060405180910390a350505b50565b6118f961112f565b61196b576040517f08c379a00000000000000000000000000000000000000000000000000000000081526004018080602001828103825260208152602001807f4f776e61626c653a2063616c6c6572206973206e6f7420746865206f776e657281525060200191505060405180910390fd5b61197481611eaa565b50565b60008060018054905014611a6657600161199f60018080549050611c0e90919063ffffffff16565b815481106119a957fe5b90600052602060002090600502016000015460016119d560018080549050611c0e90919063ffffffff16565b815481106119df57fe5b9060005260206000209060050201600201541115611a65576040517f08c379a00000000000000000000000000000000000000000000000000000000081526004018080602001828103825260158152602001807f53746167653a2061696d2069732072656163686564000000000000000000000081525060200191505060405180910390fd5b5b6001611a8060018080549050611c0e90919063ffffffff16565b81548110611a8a57fe5b906000526020600020906005020160010154905090565b6000600360009054906101000a900473ffffffffffffffffffffffffffffffffffffffff16905090565b60008160006001805490501415611b2d576040517f08c379a00000000000000000000000000000000000000000000000000000000081526004018080602001828103825260218152602001806125c66021913960400191505060405180910390fd5b6000811015611b87576040517f08c379a00000000000000000000000000000000000000000000000000000000081526004018080602001828103825260268152602001806125a06026913960400191505060405180910390fd5b6001808054905003811115611be7576040517f08c379a00000000000000000000000000000000000000000000000000000000081526004018080602001828103825260338152602001806124ff6033913960400191505060405180910390fd5b60018381548110611bf457fe5b906000526020600020906005020160010154915050919050565b600082821115611c86576040517f08c379a000000000000000000000000000000000000000000000000000000000815260040180806020018281038252601e8152602001807f536166654d6174683a207375627472616374696f6e206f766572666c6f77000081525060200191505060405180910390fd5b600082840390508091505092915050565b600073ffffffffffffffffffffffffffffffffffffffff168273ffffffffffffffffffffffffffffffffffffffff161415611d1d576040517f08c379a000000000000000000000000000000000000000000000000000000000815260040180806020018281038252602a815260200180612576602a913960400191505060405180910390fd5b6000811415611d94576040517f08c379a00000000000000000000000000000000000000000000000000000000081526004018080602001828103825260198152602001807f43726f776473616c653a20776569416d6f756e7420697320300000000000000081525060200191505060405180910390fd5b5050565b6000611db4611da5611977565b83611fed90919063ffffffff16565b9050919050565b611df3816001611dc9612073565b81548110611dd357fe5b9060005260206000209060050201600201546120fd90919063ffffffff16565b6001611dfd612073565b81548110611e0757fe5b90600052602060002090600502016002018190555050565b611e298282612185565b5050565b5050565b600460009054906101000a900473ffffffffffffffffffffffffffffffffffffffff1673ffffffffffffffffffffffffffffffffffffffff166108fc349081150290604051600060405180830381858888f19350505050158015611e99573d6000803e3d6000fd5b50565b611ea68282612258565b5050565b600073ffffffffffffffffffffffffffffffffffffffff168173ffffffffffffffffffffffffffffffffffffffff161415611f30576040517f08c379a00000000000000000000000000000000000000000000000000000000081526004018080602001828103825260268152602001806124ab6026913960400191505060405180910390fd5b8073ffffffffffffffffffffffffffffffffffffffff1660008054906101000a900473ffffffffffffffffffffffffffffffffffffffff1673ffffffffffffffffffffffffffffffffffffffff167f8be0079c531659141344cd1fd0a4f28419497f9722a3daafe3b4186f6b6457e060405160405180910390a3806000806101000a81548173ffffffffffffffffffffffffffffffffffffffff021916908373ffffffffffffffffffffffffffffffffffffffff16021790555050565b600080831415612000576000905061206d565b600082840290508284828161201157fe5b0414612068576040517f08c379a00000000000000000000000000000000000000000000000000000000081526004018080602001828103825260218152602001806125326021913960400191505060405180910390fd5b809150505b92915050565b60008060018054905014156120f0576040517f08c379a000000000000000000000000000000000000000000000000000000000815260040180806020018281038252601e8152602001807f73746167653a20746865726520617265206e6f2070726f63657373657320000081525060200191505060405180910390fd5b6001808054905003905090565b60008082840190508381101561217b576040517f08c379a000000000000000000000000000000000000000000000000000000000815260040180806020018281038252601b8152602001807f536166654d6174683a206164646974696f6e206f766572666c6f77000000000081525060200191505060405180910390fd5b8091505092915050565b600360009054906101000a900473ffffffffffffffffffffffffffffffffffffffff1673ffffffffffffffffffffffffffffffffffffffff1663a9059cbb83836040518363ffffffff1660e01b8152600401808373ffffffffffffffffffffffffffffffffffffffff16815260200182815260200192505050602060405180830381600087803b15801561221857600080fd5b505af115801561222c573d6000803e3d6000fd5b505050506040513d602081101561224257600080fd5b8101908080519060200190929190505050505050565b6122cd816001612266612073565b8154811061227057fe5b906000526020600020906005020160030160008573ffffffffffffffffffffffffffffffffffffffff1673ffffffffffffffffffffffffffffffffffffffff168152602001908152602001600020546120fd90919063ffffffff16565b60016122d7612073565b815481106122e157fe5b906000526020600020906005020160030160008473ffffffffffffffffffffffffffffffffffffffff1673ffffffffffffffffffffffffffffffffffffffff16815260200190815260200160002081905550600161233d612073565b8154811061234757fe5b9060005260206000209060050201600401829080600181540180825580915050600190039060005260206000200160009091909190916101000a81548173ffffffffffffffffffffffffffffffffffffffff021916908373ffffffffffffffffffffffffffffffffffffffff1602179055505050565b6040518060800160405280600081526020016000815260200160008152602001606081525090565b82805482825590600052602060002090810192821561245e579160200282015b8281111561245d5782518260006101000a81548173ffffffffffffffffffffffffffffffffffffffff021916908373ffffffffffffffffffffffffffffffffffffffff16021790555091602001919060010190612405565b5b50905061246b919061246f565b5090565b5b808211156124a657600081816101000a81549073ffffffffffffffffffffffffffffffffffffffff021916905550600101612470565b509056fe4f776e61626c653a206e6577206f776e657220697320746865207a65726f206164647265737373746167653a20746865726520617265206e6f206163746976652070726f636573736573207269676874206e6f7753746167653a20696e6465782063616e6e6f742062652067726561746572207468616e206c656e677468206f66206172726179536166654d6174683a206d756c7469706c69636174696f6e206f766572666c6f77636f6e747261637420646f6573206e6f74206861766520656e6f75676820657468657243726f776473616c653a2062656e656669636961727920697320746865207a65726f206164647265737353746167653a20696e6465782063616e6e6f74206265206e65676174697665206e756d62657253746167653a206d617373697665206f662073746167657320697320656d707479a264697066735822122045fab74b1f6a75a4d0c3d335468467df7e4153a494b4f9e08833be1c94a9bc4164736f6c634300060c003360806040523480156200001157600080fd5b50604051620017a9380380620017a9833981810160405260808110156200003757600080fd5b8101908080519060200190929190805160405193929190846401000000008211156200006257600080fd5b838201915060208201858111156200007957600080fd5b82518660018202830111640100000000821117156200009757600080fd5b8083526020830192505050908051906020019080838360005b83811015620000cd578082015181840152602081019050620000b0565b50505050905090810190601f168015620000fb5780820380516001836020036101000a031916815260200191505b50604052602001805160405193929190846401000000008211156200011f57600080fd5b838201915060208201858111156200013657600080fd5b82518660018202830111640100000000821117156200015457600080fd5b8083526020830192505050908051906020019080838360005b838110156200018a5780820151818401526020810190506200016d565b50505050905090810190601f168015620001b85780820380516001836020036101000a031916815260200191505b5060405260200180519060200190929190505050620001ed620001e06200024460201b60201c565b856200024c60201b60201c565b826001908051906020019062000205929190620004ba565b5081600090805190602001906200021e929190620004ba565b5080600260006101000a81548160ff021916908360ff1602179055505050505062000560565b600033905090565b600073ffffffffffffffffffffffffffffffffffffffff168273ffffffffffffffffffffffffffffffffffffffff161415620002f0576040517f08c379a000000000000000000000000000000000000000000000000000000000815260040180806020018281038252601f8152602001807f45524332303a206d696e7420746f20746865207a65726f20616464726573730081525060200191505060405180910390fd5b62000304600083836200042c60201b60201c565b62000320816003546200043160201b62000bc51790919060201c565b6003819055506200037f81600460008573ffffffffffffffffffffffffffffffffffffffff1673ffffffffffffffffffffffffffffffffffffffff168152602001908152602001600020546200043160201b62000bc51790919060201c565b600460008473ffffffffffffffffffffffffffffffffffffffff1673ffffffffffffffffffffffffffffffffffffffff168152602001908152602001600020819055508173ffffffffffffffffffffffffffffffffffffffff16600073ffffffffffffffffffffffffffffffffffffffff167fddf252ad1be2c89b69c2b068fc378daa952ba7f163c4a11628f55a4df523b3ef836040518082815260200191505060405180910390a35050565b505050565b600080828401905083811015620004b0576040517f08c379a000000000000000000000000000000000000000000000000000000000815260040180806020018281038252601b8152602001807f536166654d6174683a206164646974696f6e206f766572666c6f77000000000081525060200191505060405180910390fd5b8091505092915050565b828054600181600116156101000203166002900490600052602060002090601f016020900481019282601f10620004fd57805160ff19168380011785556200052e565b828001600101855582156200052e579182015b828111156200052d57825182559160200191906001019062000510565b5b5090506200053d919062000541565b5090565b5b808211156200055c57600081600090555060010162000542565b5090565b61123980620005706000396000f3fe608060405234801561001057600080fd5b50600436106100b45760003560e01c80633eaaf86b116100715780633eaaf86b146102c757806370a08231146102e557806395d89b411461033d578063a457c2d7146103c0578063a9059cbb14610424578063dd62ed3e14610488576100b4565b806306fdde03146100b9578063095ea7b31461013c57806318160ddd146101a057806323b872dd146101be578063313ce567146102425780633950935114610263575b600080fd5b6100c1610500565b6040518080602001828103825283818151815260200191508051906020019080838360005b838110156101015780820151818401526020810190506100e6565b50505050905090810190601f16801561012e5780820380516001836020036101000a031916815260200191505b509250505060405180910390f35b6101886004803603604081101561015257600080fd5b81019080803573ffffffffffffffffffffffffffffffffffffffff1690602001909291908035906020019092919050505061059e565b60405180821515815260200191505060405180910390f35b6101a86105bc565b6040518082815260200191505060405180910390f35b61022a600480360360608110156101d457600080fd5b81019080803573ffffffffffffffffffffffffffffffffffffffff169060200190929190803573ffffffffffffffffffffffffffffffffffffffff16906020019092919080359060200190929190505050610617565b60405180821515815260200191505060405180910390f35b61024a6107c8565b604051808260ff16815260200191505060405180910390f35b6102af6004803603604081101561027957600080fd5b81019080803573ffffffffffffffffffffffffffffffffffffffff169060200190929190803590602001909291905050506107db565b60405180821515815260200191505060405180910390f35b6102cf610887565b6040518082815260200191505060405180910390f35b610327600480360360208110156102fb57600080fd5b81019080803573ffffffffffffffffffffffffffffffffffffffff16906020019092919050505061088d565b6040518082815260200191505060405180910390f35b6103456108d6565b6040518080602001828103825283818151815260200191508051906020019080838360005b8381101561038557808201518184015260208101905061036a565b50505050905090810190601f1680156103b25780820380516001836020036101000a031916815260200191505b509250505060405180910390f35b61040c600480360360408110156103d657600080fd5b81019080803573ffffffffffffffffffffffffffffffffffffffff16906020019092919080359060200190929190505050610974565b60405180821515815260200191505060405180910390f35b6104706004803603604081101561043a57600080fd5b81019080803573ffffffffffffffffffffffffffffffffffffffff16906020019092919080359060200190929190505050610b20565b60405180821515815260200191505060405180910390f35b6104ea6004803603604081101561049e57600080fd5b81019080803573ffffffffffffffffffffffffffffffffffffffff169060200190929190803573ffffffffffffffffffffffffffffffffffffffff169060200190929190505050610b3e565b6040518082815260200191505060405180910390f35b60008054600181600116156101000203166002900480601f0160208091040260200160405190810160405280929190818152602001828054600181600116156101000203166002900480156105965780601f1061056b57610100808354040283529160200191610596565b820191906000526020600020905b81548152906001019060200180831161057957829003601f168201915b505050505081565b60006105b26105ab610c4d565b8484610c55565b6001905092915050565b6000610612600460008073ffffffffffffffffffffffffffffffffffffffff1673ffffffffffffffffffffffffffffffffffffffff16815260200190815260200160002054600354610e4c90919063ffffffff16565b905090565b600081600560008673ffffffffffffffffffffffffffffffffffffffff1673ffffffffffffffffffffffffffffffffffffffff16815260200190815260200160002060003373ffffffffffffffffffffffffffffffffffffffff1673ffffffffffffffffffffffffffffffffffffffff16815260200190815260200160002054101561070b576040517f08c379a00000000000000000000000000000000000000000000000000000000081526004018080602001828103825260158152602001807f646f6e6074206861766520616c6c6f77616e636573000000000000000000000081525060200191505060405180910390fd5b610716848484610ed5565b6107bd84610722610c4d565b6107b885600560008a73ffffffffffffffffffffffffffffffffffffffff1673ffffffffffffffffffffffffffffffffffffffff168152602001908152602001600020600061076f610c4d565b73ffffffffffffffffffffffffffffffffffffffff1673ffffffffffffffffffffffffffffffffffffffff16815260200190815260200160002054610e4c90919063ffffffff16565b610c55565b600190509392505050565b600260009054906101000a900460ff1681565b600061087d338461087885600560006107f2610c4d565b73ffffffffffffffffffffffffffffffffffffffff1673ffffffffffffffffffffffffffffffffffffffff16815260200190815260200160002060008973ffffffffffffffffffffffffffffffffffffffff1673ffffffffffffffffffffffffffffffffffffffff16815260200190815260200160002054610bc590919063ffffffff16565b610c55565b6001905092915050565b60035481565b6000600460008373ffffffffffffffffffffffffffffffffffffffff1673ffffffffffffffffffffffffffffffffffffffff168152602001908152602001600020549050919050565b60018054600181600116156101000203166002900480601f01602080910402602001604051908101604052809291908181526020018280546001816001161561010002031660029004801561096c5780601f106109415761010080835404028352916020019161096c565b820191906000526020600020905b81548152906001019060200180831161094f57829003601f168201915b505050505081565b60008160056000610983610c4d565b73ffffffffffffffffffffffffffffffffffffffff1673ffffffffffffffffffffffffffffffffffffffff16815260200190815260200160002060008573ffffffffffffffffffffffffffffffffffffffff1673ffffffffffffffffffffffffffffffffffffffff168152602001908152602001600020541015610a6f576040517f08c379a00000000000000000000000000000000000000000000000000000000081526004018080602001828103825260148152602001807f646f6e6074206861766520616c6c6f77616e636500000000000000000000000081525060200191505060405180910390fd5b610b16610a7a610c4d565b84610b118560056000610a8b610c4d565b73ffffffffffffffffffffffffffffffffffffffff1673ffffffffffffffffffffffffffffffffffffffff16815260200190815260200160002060008973ffffffffffffffffffffffffffffffffffffffff1673ffffffffffffffffffffffffffffffffffffffff16815260200190815260200160002054610e4c90919063ffffffff16565b610c55565b6001905092915050565b6000610b34610b2d610c4d565b8484610ed5565b6001905092915050565b6000600560008473ffffffffffffffffffffffffffffffffffffffff1673ffffffffffffffffffffffffffffffffffffffff16815260200190815260200160002060008373ffffffffffffffffffffffffffffffffffffffff1673ffffffffffffffffffffffffffffffffffffffff16815260200190815260200160002054905092915050565b600080828401905083811015610c43576040517f08c379a000000000000000000000000000000000000000000000000000000000815260040180806020018281038252601b8152602001807f536166654d6174683a206164646974696f6e206f766572666c6f77000000000081525060200191505060405180910390fd5b8091505092915050565b600033905090565b600073ffffffffffffffffffffffffffffffffffffffff168373ffffffffffffffffffffffffffffffffffffffff161415610cdb576040517f08c379a00000000000000000000000000000000000000000000000000000000081526004018080602001828103825260248152602001806111e06024913960400191505060405180910390fd5b600073ffffffffffffffffffffffffffffffffffffffff168273ffffffffffffffffffffffffffffffffffffffff161415610d61576040517f08c379a00000000000000000000000000000000000000000000000000000000081526004018080602001828103825260228152602001806111996022913960400191505060405180910390fd5b80600560008573ffffffffffffffffffffffffffffffffffffffff1673ffffffffffffffffffffffffffffffffffffffff16815260200190815260200160002060008473ffffffffffffffffffffffffffffffffffffffff1673ffffffffffffffffffffffffffffffffffffffff168152602001908152602001600020819055508173ffffffffffffffffffffffffffffffffffffffff168373ffffffffffffffffffffffffffffffffffffffff167f8c5be1e5ebec7d5bd14f71427d1e84f3dd0314c0f7b2291e5b200ac8c7c3b925836040518082815260200191505060405180910390a3505050565b600082821115610ec4576040517f08c379a000000000000000000000000000000000000000000000000000000000815260040180806020018281038252601e8152602001807f536166654d6174683a207375627472616374696f6e206f766572666c6f77000081525060200191505060405180910390fd5b600082840390508091505092915050565b600073ffffffffffffffffffffffffffffffffffffffff168373ffffffffffffffffffffffffffffffffffffffff161415610f5b576040517f08c379a00000000000000000000000000000000000000000000000000000000081526004018080602001828103825260258152602001806111bb6025913960400191505060405180910390fd5b600073ffffffffffffffffffffffffffffffffffffffff168273ffffffffffffffffffffffffffffffffffffffff161415610fe1576040517f08c379a00000000000000000000000000000000000000000000000000000000081526004018080602001828103825260238152602001806111766023913960400191505060405180910390fd5b61103381600460008673ffffffffffffffffffffffffffffffffffffffff1673ffffffffffffffffffffffffffffffffffffffff16815260200190815260200160002054610e4c90919063ffffffff16565b600460008573ffffffffffffffffffffffffffffffffffffffff1673ffffffffffffffffffffffffffffffffffffffff168152602001908152602001600020819055506110c881600460008573ffffffffffffffffffffffffffffffffffffffff1673ffffffffffffffffffffffffffffffffffffffff16815260200190815260200160002054610bc590919063ffffffff16565b600460008473ffffffffffffffffffffffffffffffffffffffff1673ffffffffffffffffffffffffffffffffffffffff168152602001908152602001600020819055508173ffffffffffffffffffffffffffffffffffffffff168373ffffffffffffffffffffffffffffffffffffffff167fddf252ad1be2c89b69c2b068fc378daa952ba7f163c4a11628f55a4df523b3ef836040518082815260200191505060405180910390a350505056fe45524332303a207472616e7366657220746f20746865207a65726f206164647265737345524332303a20617070726f766520746f20746865207a65726f206164647265737345524332303a207472616e736665722066726f6d20746865207a65726f206164647265737345524332303a20617070726f76652066726f6d20746865207a65726f2061646472657373a2646970667358221220e01e91c597b0c834dd7e59f8c19e35ea6d43cb9e3d24290456fd3c9845b2cfc164736f6c634300060c0033",
  "source": "pragma solidity >= 0.6.0;\r\n\r\nlibrary SafeMath {\r\n\r\n    function add(uint256 a, uint256 b) internal pure returns (uint256) {\r\n        uint256 c = a + b;\r\n        require(c >= a, \"SafeMath: addition overflow\");\r\n\r\n        return c;\r\n    }\r\n\r\n    function sub(uint256 a, uint256 b) internal pure returns (uint256) {\r\n        require(b <= a, \"SafeMath: subtraction overflow\");\r\n        uint256 c = a - b;\r\n\r\n        return c;\r\n    }\r\n\r\n    function mul(uint256 a, uint256 b) internal pure returns (uint256) {\r\n     \r\n         if (a == 0) {\r\n            return 0;\r\n        }\r\n\r\n        uint256 c = a * b;\r\n        require(c / a == b, \"SafeMath: multiplication overflow\");\r\n\r\n        return c;\r\n    }\r\n\r\n    \r\n    function div(uint256 a, uint256 b) internal pure returns (uint256) {\r\n       \r\n        require(b > 0, \"SafeMath: division by zero\");\r\n        uint256 c = a / b;\r\n      \r\n        return c;\r\n    }\r\n\r\n  \r\n    function mod(uint256 a, uint256 b) internal pure returns (uint256) {\r\n        require(b != 0, \"SafeMath: modulo by zero\");\r\n        return a % b;\r\n    }\r\n}\r\n\r\ncontract ReentrancyGuard {\r\n\r\n    uint256 private _guardCounter;\r\n\r\n    constructor () internal {\r\n       _guardCounter = 1;\r\n    }\r\n\r\n   \r\n    modifier nonReentrant() {\r\n        _guardCounter += 1;\r\n        uint256 localCounter = _guardCounter;\r\n        _;\r\n        require(localCounter == _guardCounter, \"ReentrancyGuard: reentrant call\");\r\n    }\r\n}\r\n\r\ncontract Context {\r\n \r\n   constructor () internal { }\r\n   \r\n    function _msgSender() internal view returns (address payable) {\r\n        return msg.sender;\r\n    }\r\n\r\n    function _msgData() internal view returns (bytes memory) {\r\n        this; // silence state mutability warning without generating bytecode - see https://github.com/ethereum/solidity/issues/2691\r\n        return msg.data;\r\n    }\r\n}\r\n\r\ncontract Ownable is Context {\r\n    address private _owner;\r\n\r\n    event OwnershipTransferred(address indexed previousOwner, address indexed newOwner);\r\n\r\n   constructor () internal {\r\n        address msgSender = _msgSender();\r\n        _owner = msgSender;\r\n        emit OwnershipTransferred(address(0), msgSender);\r\n    }\r\n\r\n   function owner() public view returns (address) {\r\n        return _owner;\r\n    }\r\n\r\n   modifier onlyOwner() {\r\n        require(isOwner(), \"Ownable: caller is not the owner\");\r\n        _;\r\n    }\r\n\r\n    function isOwner() public view returns (bool) {\r\n        return _msgSender() == _owner;\r\n    }\r\n\r\n    function renounceOwnership() public virtual onlyOwner {\r\n        emit OwnershipTransferred(_owner, address(0));\r\n        _owner = address(0);\r\n    }\r\n\r\n    function transferOwnership(address newOwner) public virtual onlyOwner {\r\n        _transferOwnership(newOwner);\r\n    }\r\n\r\n    function _transferOwnership(address newOwner) internal virtual {\r\n        require(newOwner != address(0), \"Ownable: new owner is the zero address\");\r\n        emit OwnershipTransferred(_owner, newOwner);\r\n        _owner = newOwner;\r\n    }    \r\n}\r\n\r\ncontract TimeTable  is Ownable{\r\n    \r\n    using SafeMath for uint256;\r\n    \r\n    struct stage {\r\n        \r\n        uint16 yearStart;\r\n        uint8 monthStart;\r\n        uint8 dayStart;\r\n       \r\n        uint16 yearFinish;\r\n        uint8 monthFinish;\r\n        uint8 dayFinish;\r\n       \r\n        uint timestampSTART;\r\n        uint timestampFINISH;\r\n        \r\n        uint _rate;\r\n        uint weiRaisedOnStage;\r\n        \r\n        mapping(address => uint256) contributor;\r\n        address[] contributors;\r\n    }\r\n        \r\n    uint constant DAY_IN_SECONDS = 86400;\r\n    uint constant YEAR_IN_SECONDS = 31536000;\r\n    uint constant LEAP_YEAR_IN_SECONDS = 31622400;\r\n \r\n    uint constant HOUR_IN_SECONDS = 3600;\r\n    uint constant MINUTE_IN_SECONDS = 60;\r\n \r\n    uint16 constant ORIGIN_YEAR = 1970;\r\n    \r\n    mapping (uint => stage) times;\r\n    uint[] starts;\r\n    bool _entrance = true;\r\n    \r\n    function _postValidatePurchase(address beneficiary, uint256 weiAmount) virtual internal {\r\n        times[getCurrentStage()].contributor[beneficiary] = times[getCurrentStage()].contributor[beneficiary].add(weiAmount);\r\n        times[getCurrentStage()].contributors.push(beneficiary);\r\n    }\r\n    \r\n    function weiRaised() public view returns(uint){\r\n        require(starts.length != 0, \"TimedCrowdsale: there are no active processes right now\"); \r\n        uint value = 0;\r\n        for (uint i; i < starts.length; i = i + 1) {\r\n            value = times[starts[i]].weiRaisedOnStage + value; \r\n        }\r\n        return value;\r\n    }\r\n    \r\n    function changeWeiRaised( uint weiAmount ) internal {\r\n        times[getCurrentStage()].weiRaisedOnStage = times[getCurrentStage()].weiRaisedOnStage.add(weiAmount);\r\n    } \r\n    \r\n    function pushArray(uint8 _dayStart, uint8 _monthStart, uint16 _yearStart, uint8 _dayFinish, uint8 _monthFinish, uint16 _yearFinish, uint _timestampSTART, uint _timestampFINISH, uint rate) internal {\r\n        times[_timestampSTART].yearStart = _yearStart;\r\n        times[_timestampSTART].monthStart = _monthStart;\r\n        times[_timestampSTART].dayStart = _dayStart;\r\n        times[_timestampSTART].yearFinish = _yearFinish; \r\n        times[_timestampSTART].monthFinish = _monthFinish;\r\n        times[_timestampSTART].dayFinish = _dayFinish;\r\n        times[_timestampSTART].timestampSTART = _timestampSTART;\r\n        times[_timestampSTART].timestampFINISH = _timestampFINISH;\r\n        times[_timestampSTART]._rate = rate;\r\n        starts.push(_timestampSTART);\r\n    }\r\n   \r\n    function setTime(uint8 _dayStart, uint8 _monthStart, uint16 _yearStart, uint8 _dayFinish, uint8 _monthFinish, uint16 _yearFinish, uint rate) public onlyOwner {\r\n        require(rate > 0, \"TimedCrowdsale: rate cannot be NULL\");\r\n        uint _timestampSTART = inSec(_dayStart, _monthStart, _yearStart);\r\n        require(_timestampSTART >= block.timestamp, \"TimedCrowdsale: opening time is before current time\");\r\n        uint _timestampFINISH = inSec( _dayFinish, _monthFinish, _yearFinish);\r\n        require(_timestampFINISH > _timestampSTART, \"TimedCrowdsale: opening time is not before closing time\");\r\n        pushArray( _dayStart, _monthStart, _yearStart, _dayFinish, _monthFinish, _yearFinish, _timestampSTART, _timestampFINISH, rate);\r\n    }\r\n    \r\n    function isLeapYear(uint16 year) internal pure returns (bool) {\r\n        if (year % 4 != 0) {\r\n            return false;\r\n        }\r\n        if (year % 100 != 0) {\r\n            return true;\r\n        }\r\n        if (year % 400 != 0) {\r\n            return false;\r\n        }\r\n        return true;\r\n    }\r\n   \r\n    function inSec(uint8 day, uint8 month, uint16 year) internal pure returns (uint) {\r\n        uint16 i;\r\n        uint timestamp;\r\n         // Year\r\n        for (i = ORIGIN_YEAR; i < year; i++) {\r\n            if (isLeapYear(i)) {\r\n                timestamp += LEAP_YEAR_IN_SECONDS;\r\n            }\r\n            else {\r\n                timestamp += YEAR_IN_SECONDS;\r\n            }\r\n        }\r\n \r\n        // Month\r\n        uint8[12] memory monthDayCounts;\r\n        monthDayCounts[0] = 31;\r\n        if (isLeapYear(year)) {\r\n            monthDayCounts[1] = 29;\r\n        }\r\n        else {\r\n            monthDayCounts[1] = 28;\r\n        }\r\n        monthDayCounts[2] = 31;\r\n        monthDayCounts[3] = 30;\r\n        monthDayCounts[4] = 31;\r\n        monthDayCounts[5] = 30;\r\n        monthDayCounts[6] = 31;\r\n        monthDayCounts[7] = 31;\r\n        monthDayCounts[8] = 30;\r\n        monthDayCounts[9] = 31;\r\n        monthDayCounts[10] = 30;\r\n        monthDayCounts[11] = 31;\r\n \r\n        for (i = 1; i < month; i++) {\r\n            timestamp = timestamp.add(DAY_IN_SECONDS.mul(monthDayCounts[i - 1]));\r\n        }\r\n        // Day\r\n        timestamp = timestamp.add(DAY_IN_SECONDS.mul(day - 1));\r\n        return timestamp;\r\n    }\r\n    \r\n    function getCurrentRate() public view time_stage returns(uint){\r\n        return times[getCurrentStage()]._rate;\r\n    }\r\n    \r\n    function getCurrentStage() internal view time_stage returns(uint) {\r\n        for(uint i; i < starts.length; i = i + 1) {\r\n            if(block.timestamp >= starts[i] && block.timestamp <= times[starts[i]].timestampFINISH){\r\n                return starts[i];\r\n            }\r\n        }\r\n    }\r\n    \r\n    modifier time_stage() {\r\n        bool check = false;\r\n        for(uint i; i < starts.length; i = i + 1) {\r\n            if(block.timestamp >= starts[i] && block.timestamp <= times[starts[i]].timestampFINISH){\r\n               check = true; \r\n            }\r\n        }\r\n        require(check, \"TimedCrowdsale: there are no active processes right now\");\r\n        _;\r\n    }\r\n}\r\n\r\ncontract Stage is Ownable {\r\n    using SafeMath for uint256; \r\n    \r\n    struct stage{\r\n        uint aim; // ,     \r\n        uint rate; // \r\n        uint weiRaisedOnStage; //   \r\n        \r\n        mapping(address => uint) contributor; // \r\n        address[] contributors; // \r\n    }\r\n    \r\n    stage[] stages;\r\n    \r\n    function setStage(uint _aim, uint _rate) public onlyOwner checkLast {\r\n        require(_aim != 0, \"Stage: aim cannot be NULL\");\r\n        require(_rate != 0, \"Stage: rate cannot be NULL\");\r\n        stage memory process; \r\n        process.aim = _aim;\r\n        process.rate = _rate;\r\n        stages.push(process);\r\n    }     \r\n    \r\n    function aimIsReached(uint i) public view index(i) returns(bool) {\r\n        if (stages[i].weiRaisedOnStage >= stages[i].aim) {\r\n            return true;\r\n        }\r\n        else { return false; }\r\n    }\r\n    \r\n    function rateForStage(uint i) public view index(i) returns(uint) {\r\n        return stages[i].rate;\r\n    }\r\n    \r\n    function getCurrentRate() public view time_stage returns(uint){\r\n        return stages[stages.length.sub(1)].rate;\r\n    }\r\n    \r\n    function getCurrentStage() internal view returns(uint){\r\n        require(stages.length != 0, \"stage: there are no processes \"); \r\n        return stages.length-1;\r\n    }\r\n    \r\n    function changeWeiRaised( uint weiAmount ) internal {\r\n        stages[getCurrentStage()].weiRaisedOnStage = stages[getCurrentStage()].weiRaisedOnStage.add(weiAmount);\r\n    } \r\n    \r\n    function _postValidatePurchase(address beneficiary, uint256 weiAmount) virtual internal {\r\n        stages[getCurrentStage()].contributor[beneficiary] = stages[getCurrentStage()].contributor[beneficiary].add(weiAmount);\r\n        stages[getCurrentStage()].contributors.push(beneficiary);\r\n    }\r\n\r\n    function weiRaised() public view returns(uint){\r\n        require(stages.length != 0, \"stage: there are no active processes right now\"); \r\n        uint value = 0;\r\n        for (uint i; i < stages.length; i = i + 1) {\r\n            value = stages[i].weiRaisedOnStage + value; \r\n        }\r\n        return value;\r\n    }\r\n\r\n    modifier checkLast() {\r\n        if(stages.length != 0) {\r\n            require(aimIsReached(stages.length-1), \"Stage: aim is not reached\");\r\n        }\r\n        _;\r\n    }\r\n\r\n    modifier index(uint i) {\r\n        require(stages.length != 0, \"Stage: massive of stages is empty\");\r\n        require(i >= 0, \"Stage: index cannot be negative number\");\r\n        require(i <= stages.length-1, \"Stage: index cannot be greater than length of array\");\r\n        _;\r\n    }    \r\n    \r\n    modifier time_stage() {\r\n        if(stages.length != 0) {\r\n            require(stages[stages.length.sub(1)].weiRaisedOnStage <= stages[stages.length.sub(1)].aim, \"Stage: aim is reached\");\r\n        }\r\n        _;\r\n    }\r\n}\r\n\r\ncontract SimpleToken_IERC20 is Context{\r\n    using SafeMath for uint256;\r\n\r\n    string public name;\r\n    string public symbol;\r\n    uint8 public decimals;\r\n    uint public _totalSupply;\r\n\r\n    mapping (address => uint256) private _balances; //    \r\n\r\n    mapping (address => mapping (address => uint256)) private _allowances;\r\n    \r\n    event Transfer(address indexed from, address indexed to, uint256 value);\r\n    event Approval(address indexed owner, address indexed spender, uint256 value);\r\n\r\n    constructor (uint totalSuply, string memory _symbol, string memory _name, uint8 _decimals) public {\r\n        _mint(_msgSender(), totalSuply);\r\n        symbol = _symbol;\r\n        name = _name;\r\n        decimals = _decimals;\r\n    }\r\n\r\n    function totalSupply() public view returns (uint256) {\r\n        return _totalSupply.sub(_balances[address(0)]);\r\n    }\r\n\r\n    function balanceOf(address account) public view returns (uint256) {\r\n        return _balances[account];\r\n    }\r\n\r\n    function transfer(address recipient, uint256 amount) public virtual returns (bool) {\r\n        _transfer(_msgSender(), recipient, amount);\r\n        return true;\r\n    }\r\n    \r\n    function allowance(address owner, address spender) public view virtual returns (uint256) {\r\n        return _allowances[owner][spender];\r\n    }\r\n\r\n    function approve(address spender, uint256 value) public virtual returns (bool) {\r\n        _approve(_msgSender(), spender, value);\r\n        return true;\r\n    }\r\n    \r\n    function transferFrom(address sender, address recipient, uint256 amount) public virtual returns (bool) {\r\n    \trequire(_allowances[sender][msg.sender] >= amount, \"don`t have allowances\");\r\n        _transfer(sender, recipient, amount);\r\n        _approve(sender, _msgSender(), _allowances[sender][_msgSender()].sub(amount));\r\n        return true;\r\n    }\r\n\r\n    function increaseAllowance(address spender, uint256 addedValue) public virtual returns (bool) {\r\n        _approve(msg.sender, spender, _allowances[_msgSender()][spender].add(addedValue));\r\n        return true;\r\n    }\r\n\r\n    function decreaseAllowance(address spender, uint256 subtractedValue) public virtual returns (bool) {\r\n  \t    require(_allowances[_msgSender()][spender] >= subtractedValue, \"don`t have allowance\");\r\n        _approve(_msgSender(), spender, _allowances[_msgSender()][spender].sub(subtractedValue));\r\n        return true;\r\n    }\r\n\r\n    function _transfer(address sender, address recipient, uint256 amount) internal virtual {\r\n        require(sender != address(0), \"ERC20: transfer from the zero address\");\r\n        require(recipient != address(0), \"ERC20: transfer to the zero address\");\r\n        \r\n        _balances[sender] = _balances[sender].sub(amount);\r\n        _balances[recipient] = _balances[recipient].add(amount);\r\n        emit Transfer(sender, recipient, amount);\r\n    }\r\n\r\n    function _approve(address owner, address spender, uint256 value) internal {\r\n        require(owner != address(0), \"ERC20: approve from the zero address\");\r\n        require(spender != address(0), \"ERC20: approve to the zero address\");\r\n\r\n        _allowances[owner][spender] = value;\r\n        emit Approval(owner, spender, value);\r\n    }\r\n    \r\n    function _mint(address account, uint256 amount) internal virtual {\r\n        require(account != address(0), \"ERC20: mint to the zero address\");\r\n\r\n        _beforeTokenTransfer(address(0), account, amount);\r\n\r\n        _totalSupply = _totalSupply.add(amount);\r\n        _balances[account] = _balances[account].add(amount);\r\n        emit Transfer(address(0), account, amount);\r\n    }\r\n    \r\n    function _burn(address account, uint256 amount) internal virtual {\r\n        require(account != address(0), \"ERC20: burn from the zero address\");\r\n\r\n        _beforeTokenTransfer(account, address(0), amount);\r\n\r\n        _balances[account] = _balances[account].sub(amount);\r\n        _totalSupply = _totalSupply.sub(amount);\r\n        emit Transfer(account, address(0), amount);\r\n    }\r\n\r\n    function _burnFrom(address account, uint256 amount) internal virtual {\r\n        _burn(account, amount);\r\n        _approve(account, _msgSender(), _allowances[account][_msgSender()].sub(amount));\r\n    }\r\n    \r\n    function _beforeTokenTransfer(address from, address to, uint256 amount) internal virtual { }\r\n}\r\n\r\ncontract Crowdsale is Stage, ReentrancyGuard {\r\n    using SafeMath for uint256;\r\n\r\n    SimpleToken_IERC20 private _token; \r\n\r\n    address payable private _wallet = payable(address(this));\r\n    address payable private owners_wallet; \r\n\r\n    event ClaimedTokens(address indexed _token, address indexed _controller, uint _amount);\r\n\r\n    event TokensPurchased(address indexed purchaser, address indexed beneficiary, uint256 value, uint256 amount);\r\n    \r\n    constructor(uint total_, string memory symbol, string memory name, uint8 decimals, address payable wallet) public{\r\n        _token = new SimpleToken_IERC20(total_, symbol, name, decimals);\r\n        owners_wallet = wallet;\r\n    }\r\n    \r\n    receive() external payable  {\r\n        buyTokens(_msgSender());\r\n    }\r\n    \r\n    function get_ether(uint a) external onlyOwner {\r\n        require(a <= address(this).balance, 'contract does not have enough ether');\r\n        owners_wallet.transfer(a);\r\n    }\r\n      \r\n    \r\n    function totalSupply() public view returns(uint) {\r\n        return _token.totalSupply(); \r\n    }\r\n    \r\n    function balanceOf(address account) public view returns(uint) {\r\n        return _token.balanceOf(account);\r\n    }\r\n    \r\n    function allowance(address owner, address spender) public view returns (uint256) {\r\n        return _token.allowance(owner, spender);\r\n    }\r\n\r\n    function approve(address spender, uint256 value) public returns (bool) {\r\n        return _token.approve(spender, value);\r\n    }\r\n    \r\n    function increaseAllowance(address spender, uint256 addedValue) public returns (bool) {\r\n        return _token.increaseAllowance(spender, addedValue); \r\n    }\r\n\r\n    function decreaseAllowance(address spender, uint256 subtractedValue) public returns (bool) {\r\n        return _token.decreaseAllowance(spender, subtractedValue);\r\n    }\r\n    \r\n    function token() public view returns (SimpleToken_IERC20) {\r\n        return _token;\r\n    }\r\n\r\n    function wallet() public view returns (address payable) {\r\n        return _wallet;\r\n    }\r\n    \r\n    function buyTokens(address beneficiary) public nonReentrant time_stage payable {//\r\n        uint256 weiAmount;\r\n        weiAmount = msg.value;\r\n        \r\n        _preValidatePurchase(beneficiary, weiAmount);\r\n\r\n        uint256 tokens = _getTokenAmount(weiAmount);\r\n\r\n        changeWeiRaised(weiAmount); \r\n\r\n        _processPurchase(beneficiary, tokens);\r\n        _updatePurchasingState(beneficiary, weiAmount);\r\n        emit TokensPurchased(_msgSender(), beneficiary, weiAmount, tokens);\r\n        \r\n        _forwardFunds();\r\n        _postValidatePurchase(beneficiary, weiAmount);\r\n    }\r\n    \r\n    function _postValidatePurchase(address beneficiary, uint256 weiAmount) override internal {\r\n        super._postValidatePurchase(beneficiary, weiAmount);\r\n    }\r\n    \r\n    function _preValidatePurchase(address beneficiary, uint256 weiAmount) internal view {\r\n        require(beneficiary != address(0), \"Crowdsale: beneficiary is the zero address\");\r\n        require(weiAmount != 0, \"Crowdsale: weiAmount is 0\");\r\n        this;\r\n    }\r\n\r\n    function _updatePurchasingState(address beneficiary, uint256 weiAmount) internal {\r\n     \r\n    }\r\n    \r\n    function _deliverTokens(address beneficiary, uint256 tokenAmount) internal {\r\n        _token.transfer(beneficiary, tokenAmount);\r\n    }\r\n\r\n    function _processPurchase(address beneficiary, uint256 tokenAmount) internal {\r\n        _deliverTokens(beneficiary, tokenAmount);\r\n    }\r\n\r\n    function _getTokenAmount(uint256 weiAmount) internal view returns (uint) {\r\n        return weiAmount.mul(getCurrentRate());\r\n    }\r\n\r\n    function _forwardFunds() internal {\r\n        _wallet.transfer(msg.value);\r\n    }\r\n    \r\n    /*\r\n     @notice This method can be used by the owner to extract mistakenly\r\n     sent tokens to this contract.\r\n     @param _token The address of the token contract that you want to recover\r\n     set to 0 in case you want to extract ether.\r\n    */\r\n    function claimTokens(address __token) public onlyOwner {\r\n        if (__token == address(0x0)) {\r\n            _wallet.transfer(address(this).balance); //\r\n            return;\r\n        }\r\n\r\n        SimpleToken_IERC20 token1 = SimpleToken_IERC20(__token);\r\n        uint256 balance = token1.balanceOf(address(this));\r\n        token1.transfer(owner(), balance);\r\n        emit ClaimedTokens(__token, owner(), balance);\r\n    }\r\n    \r\n}",
  "sourcePath": "C:\\Users\\zheny\\Desktop\\constructor\\constructor\\src\\contracts\\Stage.sol",
  "compiler": {
    "name": "solc",
    "version": "0.6.12+commit.27d51765.Emscripten.clang"
  },
  "schemaVersion": "3.0.23",
  "updatedAt": "2020-08-04T04:37:38.915Z",
  "devdoc": {
    "kind": "dev",
    "methods": {},
    "version": 1
  },
  "userdoc": {
    "kind": "user",
    "methods": {},
    "version": 1
  }
}